{
  "contractName": "DogAccessControl",
  "abi": [
    {
      "constant": true,
      "inputs": [],
      "name": "cfoAddress",
      "outputs": [
        {
          "name": "",
          "type": "address"
        }
      ],
      "payable": false,
      "stateMutability": "view",
      "type": "function"
    },
    {
      "constant": true,
      "inputs": [],
      "name": "ceoAddress",
      "outputs": [
        {
          "name": "",
          "type": "address"
        }
      ],
      "payable": false,
      "stateMutability": "view",
      "type": "function"
    },
    {
      "constant": true,
      "inputs": [],
      "name": "paused",
      "outputs": [
        {
          "name": "",
          "type": "bool"
        }
      ],
      "payable": false,
      "stateMutability": "view",
      "type": "function"
    },
    {
      "constant": true,
      "inputs": [],
      "name": "cooAddress",
      "outputs": [
        {
          "name": "",
          "type": "address"
        }
      ],
      "payable": false,
      "stateMutability": "view",
      "type": "function"
    },
    {
      "anonymous": false,
      "inputs": [
        {
          "indexed": false,
          "name": "newContract",
          "type": "address"
        }
      ],
      "name": "ContractUpgrade",
      "type": "event"
    },
    {
      "constant": false,
      "inputs": [
        {
          "name": "_newCEO",
          "type": "address"
        }
      ],
      "name": "setCEO",
      "outputs": [],
      "payable": false,
      "stateMutability": "nonpayable",
      "type": "function"
    },
    {
      "constant": false,
      "inputs": [
        {
          "name": "_newCFO",
          "type": "address"
        }
      ],
      "name": "setCFO",
      "outputs": [],
      "payable": false,
      "stateMutability": "nonpayable",
      "type": "function"
    },
    {
      "constant": false,
      "inputs": [
        {
          "name": "_newCOO",
          "type": "address"
        }
      ],
      "name": "setCOO",
      "outputs": [],
      "payable": false,
      "stateMutability": "nonpayable",
      "type": "function"
    },
    {
      "constant": false,
      "inputs": [],
      "name": "pause",
      "outputs": [],
      "payable": false,
      "stateMutability": "nonpayable",
      "type": "function"
    },
    {
      "constant": false,
      "inputs": [],
      "name": "unpause",
      "outputs": [],
      "payable": false,
      "stateMutability": "nonpayable",
      "type": "function"
    }
  ],
  "bytecode": "0x60806040526000600260146101000a81548160ff02191690831515021790555034801561002b57600080fd5b506107e08061003b6000396000f300608060405260043610610099576000357c0100000000000000000000000000000000000000000000000000000000900463ffffffff1680630519ce791461009e5780630a0f8168146100f557806327d7874c1461014c5780632ba73c151461018f5780633f4ba83a146101d25780634e0a3379146101e95780635c975abb1461022c5780638456cb591461025b578063b047fb5014610272575b600080fd5b3480156100aa57600080fd5b506100b36102c9565b604051808273ffffffffffffffffffffffffffffffffffffffff1673ffffffffffffffffffffffffffffffffffffffff16815260200191505060405180910390f35b34801561010157600080fd5b5061010a6102ef565b604051808273ffffffffffffffffffffffffffffffffffffffff1673ffffffffffffffffffffffffffffffffffffffff16815260200191505060405180910390f35b34801561015857600080fd5b5061018d600480360381019080803573ffffffffffffffffffffffffffffffffffffffff169060200190929190505050610314565b005b34801561019b57600080fd5b506101d0600480360381019080803573ffffffffffffffffffffffffffffffffffffffff1690602001909291905050506103ee565b005b3480156101de57600080fd5b506101e76104c9565b005b3480156101f557600080fd5b5061022a600480360381019080803573ffffffffffffffffffffffffffffffffffffffff16906020019092919050505061055c565b005b34801561023857600080fd5b50610241610637565b604051808215151515815260200191505060405180910390f35b34801561026757600080fd5b5061027061064a565b005b34801561027e57600080fd5b5061028761078e565b604051808273ffffffffffffffffffffffffffffffffffffffff1673ffffffffffffffffffffffffffffffffffffffff16815260200191505060405180910390f35b600160009054906101000a900473ffffffffffffffffffffffffffffffffffffffff1681565b6000809054906101000a900473ffffffffffffffffffffffffffffffffffffffff1681565b6000809054906101000a900473ffffffffffffffffffffffffffffffffffffffff1673ffffffffffffffffffffffffffffffffffffffff163373ffffffffffffffffffffffffffffffffffffffff1614151561036f57600080fd5b600073ffffffffffffffffffffffffffffffffffffffff168173ffffffffffffffffffffffffffffffffffffffff16141515156103ab57600080fd5b806000806101000a81548173ffffffffffffffffffffffffffffffffffffffff021916908373ffffffffffffffffffffffffffffffffffffffff16021790555050565b6000809054906101000a900473ffffffffffffffffffffffffffffffffffffffff1673ffffffffffffffffffffffffffffffffffffffff163373ffffffffffffffffffffffffffffffffffffffff1614151561044957600080fd5b600073ffffffffffffffffffffffffffffffffffffffff168173ffffffffffffffffffffffffffffffffffffffff161415151561048557600080fd5b80600260006101000a81548173ffffffffffffffffffffffffffffffffffffffff021916908373ffffffffffffffffffffffffffffffffffffffff16021790555050565b6000809054906101000a900473ffffffffffffffffffffffffffffffffffffffff1673ffffffffffffffffffffffffffffffffffffffff163373ffffffffffffffffffffffffffffffffffffffff1614151561052457600080fd5b600260149054906101000a900460ff16151561053f57600080fd5b6000600260146101000a81548160ff021916908315150217905550565b6000809054906101000a900473ffffffffffffffffffffffffffffffffffffffff1673ffffffffffffffffffffffffffffffffffffffff163373ffffffffffffffffffffffffffffffffffffffff161415156105b757600080fd5b600073ffffffffffffffffffffffffffffffffffffffff168173ffffffffffffffffffffffffffffffffffffffff16141515156105f357600080fd5b80600160006101000a81548173ffffffffffffffffffffffffffffffffffffffff021916908373ffffffffffffffffffffffffffffffffffffffff16021790555050565b600260149054906101000a900460ff1681565b600260009054906101000a900473ffffffffffffffffffffffffffffffffffffffff1673ffffffffffffffffffffffffffffffffffffffff163373ffffffffffffffffffffffffffffffffffffffff1614806106f257506000809054906101000a900473ffffffffffffffffffffffffffffffffffffffff1673ffffffffffffffffffffffffffffffffffffffff163373ffffffffffffffffffffffffffffffffffffffff16145b8061074a5750600160009054906101000a900473ffffffffffffffffffffffffffffffffffffffff1673ffffffffffffffffffffffffffffffffffffffff163373ffffffffffffffffffffffffffffffffffffffff16145b151561075557600080fd5b600260149054906101000a900460ff1615151561077157600080fd5b6001600260146101000a81548160ff021916908315150217905550565b600260009054906101000a900473ffffffffffffffffffffffffffffffffffffffff16815600a165627a7a72305820f09a5db8c7f1195174dd72d1179e6fc10dba65ee30007a2aa07eb5cd943210700029",
  "source": "// CryptoKitties Source code\r\n// Copied from: https://etherscan.io/address/0x06012c8cf97bead5deae237070f9587f8e7a266d#code\r\n\r\npragma solidity ^0.4.25;\r\n\r\n\r\n/// @title A facet of KittyCore that manages special access privileges.\r\n/// @author Axiom Zen (https://www.axiomzen.co)\r\n/// @dev See the KittyCore contract documentation to understand how the various contract facets are arranged.\r\ncontract DogAccessControl {\r\n    // This facet controls access control for CryptoKitties. There are four roles managed here:\r\n    //\r\n    //     - The CEO: The CEO can reassign other roles and change the addresses of our dependent smart\r\n    //         contracts. It is also the only role that can unpause the smart contract. It is initially\r\n    //         set to the address that created the smart contract in the KittyCore constructor.\r\n    //\r\n    //     - The CFO: The CFO can withdraw funds from KittyCore and its auction contracts.\r\n    //\r\n    //     - The COO: The COO can release gen0 kitties to auction, and mint promo cats.\r\n    //\r\n    // It should be noted that these roles are distinct without overlap in their access abilities, the\r\n    // abilities listed for each role above are exhaustive. In particular, while the CEO can assign any\r\n    // address to any role, the CEO address itself doesn't have the ability to act in those roles. This\r\n    // restriction is intentional so that we aren't tempted to use the CEO address frequently out of\r\n    // convenience. The less we use an address, the less likely it is that we somehow compromise the\r\n    // account.\r\n\r\n    /// @dev Emited when contract is upgraded - See README.md for updgrade plan\r\n    event ContractUpgrade(address newContract);\r\n\r\n    // The addresses of the accounts (or contracts) that can execute actions within each roles.\r\n    address public ceoAddress;\r\n    address public cfoAddress;\r\n    address public cooAddress;\r\n\r\n    // @dev Keeps track whether the contract is paused. When that is true, most actions are blocked\r\n    bool public paused = false;\r\n\r\n    /// @dev Access modifier for CEO-only functionality\r\n    modifier onlyCEO() {\r\n        require(msg.sender == ceoAddress);\r\n        _;\r\n    }\r\n\r\n    /// @dev Access modifier for CFO-only functionality\r\n    modifier onlyCFO() {\r\n        require(msg.sender == cfoAddress);\r\n        _;\r\n    }\r\n\r\n    /// @dev Access modifier for COO-only functionality\r\n    modifier onlyCOO() {\r\n        require(msg.sender == cooAddress);\r\n        _;\r\n    }\r\n\r\n    modifier onlyCLevel() {\r\n        require(\r\n            msg.sender == cooAddress ||\r\n            msg.sender == ceoAddress ||\r\n            msg.sender == cfoAddress\r\n        );\r\n        _;\r\n    }\r\n\r\n    /// @dev Assigns a new address to act as the CEO. Only available to the current CEO.\r\n    /// @param _newCEO The address of the new CEO\r\n    function setCEO(address _newCEO) external onlyCEO {\r\n        require(_newCEO != address(0));\r\n\r\n        ceoAddress = _newCEO;\r\n    }\r\n\r\n    /// @dev Assigns a new address to act as the CFO. Only available to the current CEO.\r\n    /// @param _newCFO The address of the new CFO\r\n    function setCFO(address _newCFO) external onlyCEO {\r\n        require(_newCFO != address(0));\r\n\r\n        cfoAddress = _newCFO;\r\n    }\r\n\r\n    /// @dev Assigns a new address to act as the COO. Only available to the current CEO.\r\n    /// @param _newCOO The address of the new COO\r\n    function setCOO(address _newCOO) external onlyCEO {\r\n        require(_newCOO != address(0));\r\n\r\n        cooAddress = _newCOO;\r\n    }\r\n\r\n    /*** Pausable functionality adapted from OpenZeppelin ***/\r\n\r\n    /// @dev Modifier to allow actions only when the contract IS NOT paused\r\n    modifier whenNotPaused() {\r\n        require(!paused);\r\n        _;\r\n    }\r\n\r\n    /// @dev Modifier to allow actions only when the contract IS paused\r\n    modifier whenPaused {\r\n        require(paused);\r\n        _;\r\n    }\r\n\r\n    /// @dev Called by any \"C-level\" role to pause the contract. Used only when\r\n    ///  a bug or exploit is detected and we need to limit damage.\r\n    function pause() external onlyCLevel whenNotPaused {\r\n        paused = true;\r\n    }\r\n\r\n    /// @dev Unpauses the smart contract. Can only be called by the CEO, since\r\n    ///  one reason we may pause the contract is when CFO or COO accounts are\r\n    ///  compromised.\r\n    /// @notice This is public rather than external so it can be called by\r\n    ///  derived contracts.\r\n    function unpause() public onlyCEO whenPaused {\r\n        // can't unpause if contract was upgraded\r\n        paused = false;\r\n    }\r\n}\r\n",
  "sourcePath": "C:\\Users\\CTrov\\OneDrive\\Documents\\ESILV\\BLOCKCHAIN PROGRAMMING\\Blockchain_Programming_TD6\\contracts\\DogAccessControl.sol",
  "compiler": {
    "name": "solc",
    "version": "0.4.25+commit.59dbf8f1.Emscripten.clang"
  },
  "schemaVersion": "2.0.2",
  "updatedAt": "2019-03-17T20:04:31.839Z"
}