{
  "contractName": "DogBase",
  "abi": [
    {
      "constant": true,
      "inputs": [],
      "name": "cfoAddress",
      "outputs": [
        {
          "name": "",
          "type": "address"
        }
      ],
      "payable": false,
      "stateMutability": "view",
      "type": "function"
    },
    {
      "constant": true,
      "inputs": [],
      "name": "ceoAddress",
      "outputs": [
        {
          "name": "",
          "type": "address"
        }
      ],
      "payable": false,
      "stateMutability": "view",
      "type": "function"
    },
    {
      "constant": true,
      "inputs": [],
      "name": "siringAuction",
      "outputs": [
        {
          "name": "",
          "type": "address"
        }
      ],
      "payable": false,
      "stateMutability": "view",
      "type": "function"
    },
    {
      "constant": false,
      "inputs": [
        {
          "name": "_newCEO",
          "type": "address"
        }
      ],
      "name": "setCEO",
      "outputs": [],
      "payable": false,
      "stateMutability": "nonpayable",
      "type": "function"
    },
    {
      "constant": false,
      "inputs": [
        {
          "name": "_newCOO",
          "type": "address"
        }
      ],
      "name": "setCOO",
      "outputs": [],
      "payable": false,
      "stateMutability": "nonpayable",
      "type": "function"
    },
    {
      "constant": false,
      "inputs": [],
      "name": "unpause",
      "outputs": [],
      "payable": false,
      "stateMutability": "nonpayable",
      "type": "function"
    },
    {
      "constant": true,
      "inputs": [
        {
          "name": "",
          "type": "uint256"
        }
      ],
      "name": "sireAllowedToAddress",
      "outputs": [
        {
          "name": "",
          "type": "address"
        }
      ],
      "payable": false,
      "stateMutability": "view",
      "type": "function"
    },
    {
      "constant": false,
      "inputs": [
        {
          "name": "_newCFO",
          "type": "address"
        }
      ],
      "name": "setCFO",
      "outputs": [],
      "payable": false,
      "stateMutability": "nonpayable",
      "type": "function"
    },
    {
      "constant": true,
      "inputs": [],
      "name": "paused",
      "outputs": [
        {
          "name": "",
          "type": "bool"
        }
      ],
      "payable": false,
      "stateMutability": "view",
      "type": "function"
    },
    {
      "constant": true,
      "inputs": [],
      "name": "secondsPerBlock",
      "outputs": [
        {
          "name": "",
          "type": "uint256"
        }
      ],
      "payable": false,
      "stateMutability": "view",
      "type": "function"
    },
    {
      "constant": false,
      "inputs": [],
      "name": "pause",
      "outputs": [],
      "payable": false,
      "stateMutability": "nonpayable",
      "type": "function"
    },
    {
      "constant": true,
      "inputs": [
        {
          "name": "",
          "type": "uint256"
        }
      ],
      "name": "dogIndexToOwner",
      "outputs": [
        {
          "name": "",
          "type": "address"
        }
      ],
      "payable": false,
      "stateMutability": "view",
      "type": "function"
    },
    {
      "constant": true,
      "inputs": [
        {
          "name": "",
          "type": "uint256"
        }
      ],
      "name": "cooldowns",
      "outputs": [
        {
          "name": "",
          "type": "uint32"
        }
      ],
      "payable": false,
      "stateMutability": "view",
      "type": "function"
    },
    {
      "constant": true,
      "inputs": [],
      "name": "cooAddress",
      "outputs": [
        {
          "name": "",
          "type": "address"
        }
      ],
      "payable": false,
      "stateMutability": "view",
      "type": "function"
    },
    {
      "constant": true,
      "inputs": [
        {
          "name": "",
          "type": "uint256"
        }
      ],
      "name": "dogIndexToApproved",
      "outputs": [
        {
          "name": "",
          "type": "address"
        }
      ],
      "payable": false,
      "stateMutability": "view",
      "type": "function"
    },
    {
      "constant": true,
      "inputs": [],
      "name": "saleAuction",
      "outputs": [
        {
          "name": "",
          "type": "address"
        }
      ],
      "payable": false,
      "stateMutability": "view",
      "type": "function"
    },
    {
      "anonymous": false,
      "inputs": [
        {
          "indexed": false,
          "name": "owner",
          "type": "address"
        },
        {
          "indexed": false,
          "name": "dogId",
          "type": "uint256"
        },
        {
          "indexed": false,
          "name": "matronId",
          "type": "uint256"
        },
        {
          "indexed": false,
          "name": "sireId",
          "type": "uint256"
        },
        {
          "indexed": false,
          "name": "genes",
          "type": "uint256"
        }
      ],
      "name": "Birth",
      "type": "event"
    },
    {
      "anonymous": false,
      "inputs": [
        {
          "indexed": false,
          "name": "from",
          "type": "address"
        },
        {
          "indexed": false,
          "name": "to",
          "type": "address"
        },
        {
          "indexed": false,
          "name": "tokenId",
          "type": "uint256"
        }
      ],
      "name": "Transfer",
      "type": "event"
    },
    {
      "anonymous": false,
      "inputs": [
        {
          "indexed": false,
          "name": "newContract",
          "type": "address"
        }
      ],
      "name": "ContractUpgrade",
      "type": "event"
    },
    {
      "constant": false,
      "inputs": [
        {
          "name": "secs",
          "type": "uint256"
        }
      ],
      "name": "setSecondsPerBlock",
      "outputs": [],
      "payable": false,
      "stateMutability": "nonpayable",
      "type": "function"
    }
  ],
  "bytecode": "0x60806040526000600260146101000a81548160ff0219169083151502179055506101c060405190810160405280603c63ffffffff1663ffffffff168152602001607863ffffffff1663ffffffff16815260200161012c63ffffffff1663ffffffff16815260200161025863ffffffff1663ffffffff16815260200161070863ffffffff1663ffffffff168152602001610e1063ffffffff1663ffffffff168152602001611c2063ffffffff1663ffffffff16815260200161384063ffffffff1663ffffffff16815260200161708063ffffffff1663ffffffff16815260200161e10063ffffffff1663ffffffff1681526020016201518063ffffffff1663ffffffff1681526020016202a30063ffffffff1663ffffffff1681526020016205460063ffffffff1663ffffffff16815260200162093a8063ffffffff1663ffffffff16815250600390600e61015492919061016c565b50600f60055534801561016657600080fd5b50610242565b82600e6007016008900481019282156101fe5791602002820160005b838211156101cc57835183826101000a81548163ffffffff021916908363ffffffff1602179055509260200192600401602081600301049283019260010302610188565b80156101fc5782816101000a81549063ffffffff02191690556004016020816003010492830192600103026101cc565b505b50905061020b919061020f565b5090565b61023f91905b8082111561023b57600081816101000a81549063ffffffff021916905550600101610215565b5090565b90565b610d40806102516000396000f3006080604052600436106100f1576000357c0100000000000000000000000000000000000000000000000000000000900463ffffffff1680630519ce79146100f65780630a0f81681461014d57806321717ebf146101a457806327d7874c146101fb5780632ba73c151461023e5780633f4ba83a1461028157806346116e6f146102985780634e0a3379146103055780635663896e146103485780635c975abb146103755780637a7d4937146103a45780638456cb59146103cf5780638a836031146103e65780639d6fac6f14610453578063b047fb50146104a0578063d83970a1146104f7578063e6cbe35114610564575b600080fd5b34801561010257600080fd5b5061010b6105bb565b604051808273ffffffffffffffffffffffffffffffffffffffff1673ffffffffffffffffffffffffffffffffffffffff16815260200191505060405180910390f35b34801561015957600080fd5b506101626105e1565b604051808273ffffffffffffffffffffffffffffffffffffffff1673ffffffffffffffffffffffffffffffffffffffff16815260200191505060405180910390f35b3480156101b057600080fd5b506101b9610606565b604051808273ffffffffffffffffffffffffffffffffffffffff1673ffffffffffffffffffffffffffffffffffffffff16815260200191505060405180910390f35b34801561020757600080fd5b5061023c600480360381019080803573ffffffffffffffffffffffffffffffffffffffff16906020019092919050505061062c565b005b34801561024a57600080fd5b5061027f600480360381019080803573ffffffffffffffffffffffffffffffffffffffff169060200190929190505050610706565b005b34801561028d57600080fd5b506102966107e1565b005b3480156102a457600080fd5b506102c360048036038101908080359060200190929190505050610874565b604051808273ffffffffffffffffffffffffffffffffffffffff1673ffffffffffffffffffffffffffffffffffffffff16815260200191505060405180910390f35b34801561031157600080fd5b50610346600480360381019080803573ffffffffffffffffffffffffffffffffffffffff1690602001909291905050506108a7565b005b34801561035457600080fd5b5061037360048036038101908080359060200190929190505050610982565b005b34801561038157600080fd5b5061038a610ad6565b604051808215151515815260200191505060405180910390f35b3480156103b057600080fd5b506103b9610ae9565b6040518082815260200191505060405180910390f35b3480156103db57600080fd5b506103e4610aef565b005b3480156103f257600080fd5b5061041160048036038101908080359060200190929190505050610c33565b604051808273ffffffffffffffffffffffffffffffffffffffff1673ffffffffffffffffffffffffffffffffffffffff16815260200191505060405180910390f35b34801561045f57600080fd5b5061047e60048036038101908080359060200190929190505050610c66565b604051808263ffffffff1663ffffffff16815260200191505060405180910390f35b3480156104ac57600080fd5b506104b5610c95565b604051808273ffffffffffffffffffffffffffffffffffffffff1673ffffffffffffffffffffffffffffffffffffffff16815260200191505060405180910390f35b34801561050357600080fd5b5061052260048036038101908080359060200190929190505050610cbb565b604051808273ffffffffffffffffffffffffffffffffffffffff1673ffffffffffffffffffffffffffffffffffffffff16815260200191505060405180910390f35b34801561057057600080fd5b50610579610cee565b604051808273ffffffffffffffffffffffffffffffffffffffff1673ffffffffffffffffffffffffffffffffffffffff16815260200191505060405180910390f35b600160009054906101000a900473ffffffffffffffffffffffffffffffffffffffff1681565b6000809054906101000a900473ffffffffffffffffffffffffffffffffffffffff1681565b600c60009054906101000a900473ffffffffffffffffffffffffffffffffffffffff1681565b6000809054906101000a900473ffffffffffffffffffffffffffffffffffffffff1673ffffffffffffffffffffffffffffffffffffffff163373ffffffffffffffffffffffffffffffffffffffff1614151561068757600080fd5b600073ffffffffffffffffffffffffffffffffffffffff168173ffffffffffffffffffffffffffffffffffffffff16141515156106c357600080fd5b806000806101000a81548173ffffffffffffffffffffffffffffffffffffffff021916908373ffffffffffffffffffffffffffffffffffffffff16021790555050565b6000809054906101000a900473ffffffffffffffffffffffffffffffffffffffff1673ffffffffffffffffffffffffffffffffffffffff163373ffffffffffffffffffffffffffffffffffffffff1614151561076157600080fd5b600073ffffffffffffffffffffffffffffffffffffffff168173ffffffffffffffffffffffffffffffffffffffff161415151561079d57600080fd5b80600260006101000a81548173ffffffffffffffffffffffffffffffffffffffff021916908373ffffffffffffffffffffffffffffffffffffffff16021790555050565b6000809054906101000a900473ffffffffffffffffffffffffffffffffffffffff1673ffffffffffffffffffffffffffffffffffffffff163373ffffffffffffffffffffffffffffffffffffffff1614151561083c57600080fd5b600260149054906101000a900460ff16151561085757600080fd5b6000600260146101000a81548160ff021916908315150217905550565b600a6020528060005260406000206000915054906101000a900473ffffffffffffffffffffffffffffffffffffffff1681565b6000809054906101000a900473ffffffffffffffffffffffffffffffffffffffff1673ffffffffffffffffffffffffffffffffffffffff163373ffffffffffffffffffffffffffffffffffffffff1614151561090257600080fd5b600073ffffffffffffffffffffffffffffffffffffffff168173ffffffffffffffffffffffffffffffffffffffff161415151561093e57600080fd5b80600160006101000a81548173ffffffffffffffffffffffffffffffffffffffff021916908373ffffffffffffffffffffffffffffffffffffffff16021790555050565b600260009054906101000a900473ffffffffffffffffffffffffffffffffffffffff1673ffffffffffffffffffffffffffffffffffffffff163373ffffffffffffffffffffffffffffffffffffffff161480610a2a57506000809054906101000a900473ffffffffffffffffffffffffffffffffffffffff1673ffffffffffffffffffffffffffffffffffffffff163373ffffffffffffffffffffffffffffffffffffffff16145b80610a825750600160009054906101000a900473ffffffffffffffffffffffffffffffffffffffff1673ffffffffffffffffffffffffffffffffffffffff163373ffffffffffffffffffffffffffffffffffffffff16145b1515610a8d57600080fd5b60036000600e81101515610a9d57fe5b600891828204019190066004029054906101000a900463ffffffff1663ffffffff1681101515610acc57600080fd5b8060058190555050565b600260149054906101000a900460ff1681565b60055481565b600260009054906101000a900473ffffffffffffffffffffffffffffffffffffffff1673ffffffffffffffffffffffffffffffffffffffff163373ffffffffffffffffffffffffffffffffffffffff161480610b9757506000809054906101000a900473ffffffffffffffffffffffffffffffffffffffff1673ffffffffffffffffffffffffffffffffffffffff163373ffffffffffffffffffffffffffffffffffffffff16145b80610bef5750600160009054906101000a900473ffffffffffffffffffffffffffffffffffffffff1673ffffffffffffffffffffffffffffffffffffffff163373ffffffffffffffffffffffffffffffffffffffff16145b1515610bfa57600080fd5b600260149054906101000a900460ff16151515610c1657600080fd5b6001600260146101000a81548160ff021916908315150217905550565b60076020528060005260406000206000915054906101000a900473ffffffffffffffffffffffffffffffffffffffff1681565b600381600e81101515610c7557fe5b60089182820401919006600402915054906101000a900463ffffffff1681565b600260009054906101000a900473ffffffffffffffffffffffffffffffffffffffff1681565b60096020528060005260406000206000915054906101000a900473ffffffffffffffffffffffffffffffffffffffff1681565b600b60009054906101000a900473ffffffffffffffffffffffffffffffffffffffff16815600a165627a7a7230582034d8557c31dcd4a0f081be0b62a897d2c3b7a7c1588ea35c279be74401b37a830029",
  "source": "// CryptoKitties Source code\r\n// Copied from: https://etherscan.io/address/0x06012c8cf97bead5deae237070f9587f8e7a266d#code\r\n\r\npragma solidity ^0.4.25;\r\n\r\nimport \"./DogAccessControl.sol\";\r\nimport \"./SaleClockAuction.sol\";\r\nimport \"./SiringClockAuction.sol\";\r\nimport \"./ERC721Burnable.sol\";\r\n\r\n\r\n/// @title Base contract for CryptoKitties. Holds all common structs, events and base variables.\r\n/// @author Axiom Zen (https://www.axiomzen.co)\r\n/// @dev See the KittyCore contract documentation to understand how the various contract facets are arranged.\r\ncontract DogBase is DogAccessControl {\r\n    /*** EVENTS ***/\r\n\r\n    /// @dev The Birth event is fired whenever a new kitten comes into existence. This obviously\r\n    ///  includes any time a cat is created through the giveBirth method, but it is also called\r\n    ///  when a new gen0 cat is created.\r\n    event Birth(address owner, uint256 dogId, uint256 matronId, uint256 sireId, uint256 genes);\r\n\r\n    /// @dev Transfer event as defined in current draft of ERC721. Emitted every time a kitten\r\n    ///  ownership is assigned, including births.\r\n    event Transfer(address from, address to, uint256 tokenId);\r\n\r\n    /*** DATA TYPES ***/\r\n\r\n    /// @dev The main Kitty struct. Every cat in CryptoKitties is represented by a copy\r\n    ///  of this structure, so great care was taken to ensure that it fits neatly into\r\n    ///  exactly two 256-bit words. Note that the order of the members in this structure\r\n    ///  is important because of the byte-packing rules used by Ethereum.\r\n    ///  Ref: http://solidity.readthedocs.io/en/develop/miscellaneous.html\r\n    struct Dog {\r\n        // The Kitty's genetic code is packed into these 256-bits, the format is\r\n        // sooper-sekret! A cat's genes never change.\r\n        uint256 genes;\r\n\r\n        // The timestamp from the block when this cat came into existence.\r\n        uint64 birthTime;\r\n\r\n        // The minimum timestamp after which this cat can engage in breeding\r\n        // activities again. This same timestamp is used for the pregnancy\r\n        // timer (for matrons) as well as the siring cooldown.\r\n        uint64 cooldownEndBlock;\r\n\r\n        // The ID of the parents of this kitty, set to 0 for gen0 cats.\r\n        // Note that using 32-bit unsigned integers limits us to a \"mere\"\r\n        // 4 billion cats. This number might seem small until you realize\r\n        // that Ethereum currently has a limit of about 500 million\r\n        // transactions per year! So, this definitely won't be a problem\r\n        // for several years (even as Ethereum learns to scale).\r\n        uint32 matronId;\r\n        uint32 sireId;\r\n\r\n        // Set to the ID of the sire cat for matrons that are pregnant,\r\n        // zero otherwise. A non-zero value here is how we know a cat\r\n        // is pregnant. Used to retrieve the genetic material for the new\r\n        // kitten when the birth transpires.\r\n        uint32 siringWithId;\r\n\r\n        // Set to the index in the cooldown array (see below) that represents\r\n        // the current cooldown duration for this Kitty. This starts at zero\r\n        // for gen0 cats, and is initialized to floor(generation/2) for others.\r\n        // Incremented by one for each successful breeding action, regardless\r\n        // of whether this cat is acting as matron or sire.\r\n        uint16 cooldownIndex;\r\n\r\n        // The \"generation number\" of this cat. Cats minted by the CK contract\r\n        // for sale are called \"gen0\" and have a generation number of 0. The\r\n        // generation number of all other cats is the larger of the two generation\r\n        // numbers of their parents, plus one.\r\n        // (i.e. max(matron.generation, sire.generation) + 1)\r\n        uint16 generation;\r\n    }\r\n\r\n    /*** CONSTANTS ***/\r\n\r\n    /// @dev A lookup table indicating the cooldown duration after any successful\r\n    ///  breeding action, called \"pregnancy time\" for matrons and \"siring cooldown\"\r\n    ///  for sires. Designed such that the cooldown roughly doubles each time a cat\r\n    ///  is bred, encouraging owners not to just keep breeding the same cat over\r\n    ///  and over again. Caps out at one week (a cat can breed an unbounded number\r\n    ///  of times, and the maximum cooldown is always seven days).\r\n    uint32[14] public cooldowns = [\r\n        uint32(1 minutes),\r\n        uint32(2 minutes),\r\n        uint32(5 minutes),\r\n        uint32(10 minutes),\r\n        uint32(30 minutes),\r\n        uint32(1 hours),\r\n        uint32(2 hours),\r\n        uint32(4 hours),\r\n        uint32(8 hours),\r\n        uint32(16 hours),\r\n        uint32(1 days),\r\n        uint32(2 days),\r\n        uint32(4 days),\r\n        uint32(7 days)\r\n    ];\r\n\r\n    // An approximation of currently how many seconds are in between blocks.\r\n    uint256 public secondsPerBlock = 15;\r\n\r\n    /*** STORAGE ***/\r\n\r\n    /// @dev An array containing the Kitty struct for all Kitties in existence. The ID\r\n    ///  of each cat is actually an index into this array. Note that ID 0 is a negacat,\r\n    ///  the unKitty, the mythical beast that is the parent of all gen0 cats. A bizarre\r\n    ///  creature that is both matron and sire... to itself! Has an invalid genetic code.\r\n    ///  In other words, cat ID 0 is invalid... ;-)\r\n    Dog[] kennel;\r\n\r\n    /// @dev A mapping from cat IDs to the address that owns them. All cats have\r\n    ///  some valid owner address, even gen0 cats are created with a non-zero owner.\r\n    mapping (uint256 => address) public dogIndexToOwner;\r\n\r\n    // @dev A mapping from owner address to count of tokens that address owns.\r\n    //  Used internally inside balanceOf() to resolve ownership count.\r\n    mapping (address => uint256) ownershipTokenCount;\r\n\r\n    /// @dev A mapping from KittyIDs to an address that has been approved to call\r\n    ///  transferFrom(). Each Kitty can only have one approved address for transfer\r\n    ///  at any time. A zero value means no approval is outstanding.\r\n    mapping (uint256 => address) public dogIndexToApproved;\r\n\r\n    /// @dev A mapping from KittyIDs to an address that has been approved to use\r\n    ///  this Kitty for siring via breedWith(). Each Kitty can only have one approved\r\n    ///  address for siring at any time. A zero value means no approval is outstanding.\r\n    mapping (uint256 => address) public sireAllowedToAddress;\r\n\r\n    /// @dev The address of the ClockAuction contract that handles sales of Kitties. This\r\n    ///  same contract handles both peer-to-peer sales as well as the gen0 sales which are\r\n    ///  initiated every 15 minutes.\r\n    SaleClockAuction public saleAuction;\r\n\r\n    /// @dev The address of a custom ClockAuction subclassed contract that handles siring\r\n    ///  auctions. Needs to be separate from saleAuction because the actions taken on success\r\n    ///  after a sales and siring auction are quite different.\r\n    SiringClockAuction public siringAuction;\r\n\r\n    /// @dev Assigns ownership of a specific Kitty to an address.\r\n    function _transfer(address _from, address _to, uint256 _tokenId) internal {\r\n        // Since the number of kittens is capped to 2^32 we can't overflow this\r\n        ownershipTokenCount[_to]++;\r\n        // transfer ownership\r\n        dogIndexToOwner[_tokenId] = _to;\r\n        // When creating new kittens _from is 0x0, but we can't account that address.\r\n        if (_from != address(0)) {\r\n            ownershipTokenCount[_from]--;\r\n            // once the kitten is transferred also clear sire allowances\r\n            delete sireAllowedToAddress[_tokenId];\r\n            // clear any previously approved ownership exchange\r\n            delete dogIndexToApproved[_tokenId];\r\n        }\r\n        // Emit the transfer event.\r\n        emit Transfer(_from, _to, _tokenId);\r\n    }\r\n\r\n    /// @dev An internal method that creates a new kitty and stores it. This\r\n    ///  method doesn't do any checking and should only be called when the\r\n    ///  input data is known to be valid. Will generate both a Birth event\r\n    ///  and a Transfer event.\r\n    /// @param _matronId The kitty ID of the matron of this cat (zero for gen0)\r\n    /// @param _sireId The kitty ID of the sire of this cat (zero for gen0)\r\n    /// @param _generation The generation number of this cat, must be computed by caller.\r\n    /// @param _genes The kitty's genetic code.\r\n    /// @param _owner The inital owner of this cat, must be non-zero (except for the unKitty, ID 0)\r\n    function _createDog(\r\n        uint256 _matronId,\r\n        uint256 _sireId,\r\n        uint256 _generation,\r\n        uint256 _genes,\r\n        address _owner\r\n    )\r\n        internal\r\n        returns (uint)\r\n    {\r\n        // These requires are not strictly necessary, our calling code should make\r\n        // sure that these conditions are never broken. However! _createKitty() is already\r\n        // an expensive call (for storage), and it doesn't hurt to be especially careful\r\n        // to ensure our data structures are always valid.\r\n        require(_matronId == uint256(uint32(_matronId)));\r\n        require(_sireId == uint256(uint32(_sireId)));\r\n        require(_generation == uint256(uint16(_generation)));\r\n\r\n        // New kitty starts with the same cooldown as parent gen/2\r\n        uint16 cooldownIndex = uint16(_generation / 2);\r\n        if (cooldownIndex > 13) {\r\n            cooldownIndex = 13;\r\n        }\r\n\r\n        Dog memory _dog = Dog({\r\n            genes: _genes,\r\n            birthTime: uint64(now),\r\n            cooldownEndBlock: 0,\r\n            matronId: uint32(_matronId),\r\n            sireId: uint32(_sireId),\r\n            siringWithId: 0,\r\n            cooldownIndex: cooldownIndex,\r\n            generation: uint16(_generation)\r\n        });\r\n        uint256 newDogId = kennel.push(_dog) - 1;\r\n\r\n        // It's probably never going to happen, 4 billion cats is A LOT, but\r\n        // let's just be 100% sure we never let this happen.\r\n        require(newDogId == uint256(uint32(newDogId)));\r\n\r\n        // emit the birth event\r\n        emit Birth(\r\n            _owner,\r\n            newDogId,\r\n            uint256(_dog.matronId),\r\n            uint256(_dog.sireId),\r\n            _dog.genes\r\n        );\r\n\r\n        // This will assign ownership, and also emit the Transfer event as\r\n        // per ERC721 draft\r\n        _transfer(0, _owner, newDogId);\r\n\r\n        return newDogId;\r\n    }\r\n\r\n    // Any C-level can fix how many seconds per blocks are currently observed.\r\n    function setSecondsPerBlock(uint256 secs) external onlyCLevel {\r\n        require(secs < cooldowns[0]);\r\n        secondsPerBlock = secs;\r\n    }\r\n}\r\n",
  "sourcePath": "C:\\Users\\CTrov\\OneDrive\\Documents\\ESILV\\BLOCKCHAIN PROGRAMMING\\Blockchain_Programming_TD6\\contracts\\DogBase.sol",
  "compiler": {
    "name": "solc",
    "version": "0.4.25+commit.59dbf8f1.Emscripten.clang"
  },
  "schemaVersion": "2.0.2",
  "updatedAt": "2019-03-17T20:04:31.860Z"
}