{
  "contractName": "DogBreeding",
  "abi": [
    {
      "constant": true,
      "inputs": [
        {
          "name": "_interfaceID",
          "type": "bytes4"
        }
      ],
      "name": "supportsInterface",
      "outputs": [
        {
          "name": "",
          "type": "bool"
        }
      ],
      "payable": false,
      "stateMutability": "view",
      "type": "function"
    },
    {
      "constant": true,
      "inputs": [],
      "name": "cfoAddress",
      "outputs": [
        {
          "name": "",
          "type": "address"
        }
      ],
      "payable": false,
      "stateMutability": "view",
      "type": "function"
    },
    {
      "constant": true,
      "inputs": [
        {
          "name": "_tokenId",
          "type": "uint256"
        },
        {
          "name": "_preferredTransport",
          "type": "string"
        }
      ],
      "name": "tokenMetadata",
      "outputs": [
        {
          "name": "infoUrl",
          "type": "string"
        }
      ],
      "payable": false,
      "stateMutability": "view",
      "type": "function"
    },
    {
      "constant": true,
      "inputs": [],
      "name": "name",
      "outputs": [
        {
          "name": "",
          "type": "string"
        }
      ],
      "payable": false,
      "stateMutability": "view",
      "type": "function"
    },
    {
      "constant": false,
      "inputs": [
        {
          "name": "_to",
          "type": "address"
        },
        {
          "name": "_tokenId",
          "type": "uint256"
        }
      ],
      "name": "approve",
      "outputs": [],
      "payable": false,
      "stateMutability": "nonpayable",
      "type": "function"
    },
    {
      "constant": true,
      "inputs": [],
      "name": "ceoAddress",
      "outputs": [
        {
          "name": "",
          "type": "address"
        }
      ],
      "payable": false,
      "stateMutability": "view",
      "type": "function"
    },
    {
      "constant": true,
      "inputs": [],
      "name": "totalSupply",
      "outputs": [
        {
          "name": "",
          "type": "uint256"
        }
      ],
      "payable": false,
      "stateMutability": "view",
      "type": "function"
    },
    {
      "constant": true,
      "inputs": [],
      "name": "siringAuction",
      "outputs": [
        {
          "name": "",
          "type": "address"
        }
      ],
      "payable": false,
      "stateMutability": "view",
      "type": "function"
    },
    {
      "constant": false,
      "inputs": [
        {
          "name": "_from",
          "type": "address"
        },
        {
          "name": "_to",
          "type": "address"
        },
        {
          "name": "_tokenId",
          "type": "uint256"
        }
      ],
      "name": "transferFrom",
      "outputs": [],
      "payable": false,
      "stateMutability": "nonpayable",
      "type": "function"
    },
    {
      "constant": false,
      "inputs": [
        {
          "name": "_newCEO",
          "type": "address"
        }
      ],
      "name": "setCEO",
      "outputs": [],
      "payable": false,
      "stateMutability": "nonpayable",
      "type": "function"
    },
    {
      "constant": false,
      "inputs": [
        {
          "name": "_newCOO",
          "type": "address"
        }
      ],
      "name": "setCOO",
      "outputs": [],
      "payable": false,
      "stateMutability": "nonpayable",
      "type": "function"
    },
    {
      "constant": true,
      "inputs": [],
      "name": "pregnantDogs",
      "outputs": [
        {
          "name": "",
          "type": "uint256"
        }
      ],
      "payable": false,
      "stateMutability": "view",
      "type": "function"
    },
    {
      "constant": false,
      "inputs": [],
      "name": "unpause",
      "outputs": [],
      "payable": false,
      "stateMutability": "nonpayable",
      "type": "function"
    },
    {
      "constant": true,
      "inputs": [
        {
          "name": "",
          "type": "uint256"
        }
      ],
      "name": "sireAllowedToAddress",
      "outputs": [
        {
          "name": "",
          "type": "address"
        }
      ],
      "payable": false,
      "stateMutability": "view",
      "type": "function"
    },
    {
      "constant": false,
      "inputs": [
        {
          "name": "_newCFO",
          "type": "address"
        }
      ],
      "name": "setCFO",
      "outputs": [],
      "payable": false,
      "stateMutability": "nonpayable",
      "type": "function"
    },
    {
      "constant": false,
      "inputs": [
        {
          "name": "secs",
          "type": "uint256"
        }
      ],
      "name": "setSecondsPerBlock",
      "outputs": [],
      "payable": false,
      "stateMutability": "nonpayable",
      "type": "function"
    },
    {
      "constant": true,
      "inputs": [],
      "name": "paused",
      "outputs": [
        {
          "name": "",
          "type": "bool"
        }
      ],
      "payable": false,
      "stateMutability": "view",
      "type": "function"
    },
    {
      "constant": true,
      "inputs": [
        {
          "name": "_tokenId",
          "type": "uint256"
        }
      ],
      "name": "ownerOf",
      "outputs": [
        {
          "name": "owner",
          "type": "address"
        }
      ],
      "payable": false,
      "stateMutability": "view",
      "type": "function"
    },
    {
      "constant": true,
      "inputs": [
        {
          "name": "_owner",
          "type": "address"
        }
      ],
      "name": "balanceOf",
      "outputs": [
        {
          "name": "count",
          "type": "uint256"
        }
      ],
      "payable": false,
      "stateMutability": "view",
      "type": "function"
    },
    {
      "constant": true,
      "inputs": [],
      "name": "secondsPerBlock",
      "outputs": [
        {
          "name": "",
          "type": "uint256"
        }
      ],
      "payable": false,
      "stateMutability": "view",
      "type": "function"
    },
    {
      "constant": false,
      "inputs": [],
      "name": "pause",
      "outputs": [],
      "payable": false,
      "stateMutability": "nonpayable",
      "type": "function"
    },
    {
      "constant": true,
      "inputs": [
        {
          "name": "_owner",
          "type": "address"
        }
      ],
      "name": "tokensOfOwner",
      "outputs": [
        {
          "name": "ownerTokens",
          "type": "uint256[]"
        }
      ],
      "payable": false,
      "stateMutability": "view",
      "type": "function"
    },
    {
      "constant": true,
      "inputs": [
        {
          "name": "",
          "type": "uint256"
        }
      ],
      "name": "dogIndexToOwner",
      "outputs": [
        {
          "name": "",
          "type": "address"
        }
      ],
      "payable": false,
      "stateMutability": "view",
      "type": "function"
    },
    {
      "constant": true,
      "inputs": [],
      "name": "symbol",
      "outputs": [
        {
          "name": "",
          "type": "string"
        }
      ],
      "payable": false,
      "stateMutability": "view",
      "type": "function"
    },
    {
      "constant": true,
      "inputs": [
        {
          "name": "",
          "type": "uint256"
        }
      ],
      "name": "cooldowns",
      "outputs": [
        {
          "name": "",
          "type": "uint32"
        }
      ],
      "payable": false,
      "stateMutability": "view",
      "type": "function"
    },
    {
      "constant": false,
      "inputs": [
        {
          "name": "_to",
          "type": "address"
        },
        {
          "name": "_tokenId",
          "type": "uint256"
        }
      ],
      "name": "transfer",
      "outputs": [],
      "payable": false,
      "stateMutability": "nonpayable",
      "type": "function"
    },
    {
      "constant": true,
      "inputs": [],
      "name": "cooAddress",
      "outputs": [
        {
          "name": "",
          "type": "address"
        }
      ],
      "payable": false,
      "stateMutability": "view",
      "type": "function"
    },
    {
      "constant": true,
      "inputs": [],
      "name": "autoBirthFee",
      "outputs": [
        {
          "name": "",
          "type": "uint256"
        }
      ],
      "payable": false,
      "stateMutability": "view",
      "type": "function"
    },
    {
      "constant": true,
      "inputs": [],
      "name": "erc721Metadata",
      "outputs": [
        {
          "name": "",
          "type": "address"
        }
      ],
      "payable": false,
      "stateMutability": "view",
      "type": "function"
    },
    {
      "constant": true,
      "inputs": [
        {
          "name": "",
          "type": "uint256"
        }
      ],
      "name": "dogIndexToApproved",
      "outputs": [
        {
          "name": "",
          "type": "address"
        }
      ],
      "payable": false,
      "stateMutability": "view",
      "type": "function"
    },
    {
      "constant": false,
      "inputs": [
        {
          "name": "_contractAddress",
          "type": "address"
        }
      ],
      "name": "setMetadataAddress",
      "outputs": [],
      "payable": false,
      "stateMutability": "nonpayable",
      "type": "function"
    },
    {
      "constant": true,
      "inputs": [],
      "name": "saleAuction",
      "outputs": [
        {
          "name": "",
          "type": "address"
        }
      ],
      "payable": false,
      "stateMutability": "view",
      "type": "function"
    },
    {
      "constant": true,
      "inputs": [
        {
          "name": "tokenId",
          "type": "uint256"
        }
      ],
      "name": "owner_Of",
      "outputs": [
        {
          "name": "",
          "type": "address"
        }
      ],
      "payable": false,
      "stateMutability": "view",
      "type": "function"
    },
    {
      "constant": true,
      "inputs": [],
      "name": "geneScience",
      "outputs": [
        {
          "name": "",
          "type": "address"
        }
      ],
      "payable": false,
      "stateMutability": "view",
      "type": "function"
    },
    {
      "anonymous": false,
      "inputs": [
        {
          "indexed": false,
          "name": "owner",
          "type": "address"
        },
        {
          "indexed": false,
          "name": "matronId",
          "type": "uint256"
        },
        {
          "indexed": false,
          "name": "sireId",
          "type": "uint256"
        },
        {
          "indexed": false,
          "name": "cooldownEndBlock",
          "type": "uint256"
        }
      ],
      "name": "Pregnant",
      "type": "event"
    },
    {
      "anonymous": false,
      "inputs": [
        {
          "indexed": false,
          "name": "from",
          "type": "address"
        },
        {
          "indexed": false,
          "name": "to",
          "type": "address"
        },
        {
          "indexed": false,
          "name": "tokenId",
          "type": "uint256"
        }
      ],
      "name": "Transfer",
      "type": "event"
    },
    {
      "anonymous": false,
      "inputs": [
        {
          "indexed": false,
          "name": "owner",
          "type": "address"
        },
        {
          "indexed": false,
          "name": "approved",
          "type": "address"
        },
        {
          "indexed": false,
          "name": "tokenId",
          "type": "uint256"
        }
      ],
      "name": "Approval",
      "type": "event"
    },
    {
      "anonymous": false,
      "inputs": [
        {
          "indexed": false,
          "name": "owner",
          "type": "address"
        },
        {
          "indexed": false,
          "name": "dogId",
          "type": "uint256"
        },
        {
          "indexed": false,
          "name": "matronId",
          "type": "uint256"
        },
        {
          "indexed": false,
          "name": "sireId",
          "type": "uint256"
        },
        {
          "indexed": false,
          "name": "genes",
          "type": "uint256"
        }
      ],
      "name": "Birth",
      "type": "event"
    },
    {
      "anonymous": false,
      "inputs": [
        {
          "indexed": false,
          "name": "newContract",
          "type": "address"
        }
      ],
      "name": "ContractUpgrade",
      "type": "event"
    },
    {
      "constant": false,
      "inputs": [
        {
          "name": "_address",
          "type": "address"
        }
      ],
      "name": "setGeneScienceAddress",
      "outputs": [],
      "payable": false,
      "stateMutability": "nonpayable",
      "type": "function"
    },
    {
      "constant": false,
      "inputs": [
        {
          "name": "_addr",
          "type": "address"
        },
        {
          "name": "_sireId",
          "type": "uint256"
        }
      ],
      "name": "approveSiring",
      "outputs": [],
      "payable": false,
      "stateMutability": "nonpayable",
      "type": "function"
    },
    {
      "constant": false,
      "inputs": [
        {
          "name": "val",
          "type": "uint256"
        }
      ],
      "name": "setAutoBirthFee",
      "outputs": [],
      "payable": false,
      "stateMutability": "nonpayable",
      "type": "function"
    },
    {
      "constant": true,
      "inputs": [
        {
          "name": "_dogId",
          "type": "uint256"
        }
      ],
      "name": "isReadyToBreed",
      "outputs": [
        {
          "name": "",
          "type": "bool"
        }
      ],
      "payable": false,
      "stateMutability": "view",
      "type": "function"
    },
    {
      "constant": true,
      "inputs": [
        {
          "name": "_dogId",
          "type": "uint256"
        }
      ],
      "name": "isPregnant",
      "outputs": [
        {
          "name": "",
          "type": "bool"
        }
      ],
      "payable": false,
      "stateMutability": "view",
      "type": "function"
    },
    {
      "constant": true,
      "inputs": [
        {
          "name": "_matronId",
          "type": "uint256"
        },
        {
          "name": "_sireId",
          "type": "uint256"
        }
      ],
      "name": "canBreedWith",
      "outputs": [
        {
          "name": "",
          "type": "bool"
        }
      ],
      "payable": false,
      "stateMutability": "view",
      "type": "function"
    },
    {
      "constant": false,
      "inputs": [
        {
          "name": "_matronId",
          "type": "uint256"
        },
        {
          "name": "_sireId",
          "type": "uint256"
        }
      ],
      "name": "breedWithAuto",
      "outputs": [],
      "payable": true,
      "stateMutability": "payable",
      "type": "function"
    },
    {
      "constant": false,
      "inputs": [
        {
          "name": "_matronId",
          "type": "uint256"
        }
      ],
      "name": "giveBirth",
      "outputs": [
        {
          "name": "",
          "type": "uint256"
        }
      ],
      "payable": false,
      "stateMutability": "nonpayable",
      "type": "function"
    }
  ],
  "bytecode": "0x60806040526000600260146101000a81548160ff0219169083151502179055506101c060405190810160405280603c63ffffffff1663ffffffff168152602001607863ffffffff1663ffffffff16815260200161012c63ffffffff1663ffffffff16815260200161025863ffffffff1663ffffffff16815260200161070863ffffffff1663ffffffff168152602001610e1063ffffffff1663ffffffff168152602001611c2063ffffffff1663ffffffff16815260200161384063ffffffff1663ffffffff16815260200161708063ffffffff1663ffffffff16815260200161e10063ffffffff1663ffffffff1681526020016201518063ffffffff1663ffffffff1681526020016202a30063ffffffff1663ffffffff1681526020016205460063ffffffff1663ffffffff16815260200162093a8063ffffffff1663ffffffff16815250600390600e620001569291906200017b565b50600f60055566071afd498d0000600f553480156200017457600080fd5b506200025b565b82600e600701600890048101928215620002125791602002820160005b83821115620001de57835183826101000a81548163ffffffff021916908363ffffffff160217905550926020019260040160208160030104928301926001030262000198565b8015620002105782816101000a81549063ffffffff0219169055600401602081600301049283019260010302620001de565b505b50905062000221919062000225565b5090565b6200025891905b808211156200025457600081816101000a81549063ffffffff0219169055506001016200022c565b5090565b90565b613c7a806200026b6000396000f300608060405260043610610204576000357c0100000000000000000000000000000000000000000000000000000000900463ffffffff16806301ffc9a7146102095780630519ce791461026d5780630560ff44146102c457806306fdde0314610382578063095ea7b3146104125780630a0f81681461045f57806318160ddd146104b65780631940a936146104e157806321717ebf1461052657806323b872dd1461057d57806324e7a38a146105ea57806327d7874c1461062d5780632ba73c15146106705780633369c33d146106b35780633f4ba83a146106de57806346116e6f146106f557806346d22c70146107625780634b85fd55146107b15780634dfff04f146107de5780634e0a33791461082b5780635663896e1461086e5780635c975abb1461089b5780636352211e146108ca57806370a08231146109375780637a7d49371461098e5780638456cb59146109b95780638462151c146109d057806388c2a0bf14610a685780638a83603114610aa957806395d89b4114610b165780639d6fac6f14610ba6578063a9059cbb14610bf3578063b047fb5014610c40578063b0c35c0514610c97578063bc4006f514610cc2578063d3e6f49f14610d19578063d83970a114610d5e578063e17b25af14610dcb578063e6cbe35114610e0e578063e756a66c14610e65578063f2b47d5214610ed2578063f7d8c88314610f29575b600080fd5b34801561021557600080fd5b5061025360048036038101908080357bffffffffffffffffffffffffffffffffffffffffffffffffffffffff19169060200190929190505050610f53565b604051808215151515815260200191505060405180910390f35b34801561027957600080fd5b50610282611264565b604051808273ffffffffffffffffffffffffffffffffffffffff1673ffffffffffffffffffffffffffffffffffffffff16815260200191505060405180910390f35b3480156102d057600080fd5b506103076004803603810190808035906020019092919080359060200190820180359060200191909192939192939050505061128a565b6040518080602001828103825283818151815260200191508051906020019080838360005b8381101561034757808201518184015260208101905061032c565b50505050905090810190601f1680156103745780820380516001836020036101000a031916815260200191505b509250505060405180910390f35b34801561038e57600080fd5b50610397611413565b6040518080602001828103825283818151815260200191508051906020019080838360005b838110156103d75780820151818401526020810190506103bc565b50505050905090810190601f1680156104045780820380516001836020036101000a031916815260200191505b509250505060405180910390f35b34801561041e57600080fd5b5061045d600480360381019080803573ffffffffffffffffffffffffffffffffffffffff1690602001909291908035906020019092919050505061144c565b005b34801561046b57600080fd5b5061047461152a565b604051808273ffffffffffffffffffffffffffffffffffffffff1673ffffffffffffffffffffffffffffffffffffffff16815260200191505060405180910390f35b3480156104c257600080fd5b506104cb61154f565b6040518082815260200191505060405180910390f35b3480156104ed57600080fd5b5061050c6004803603810190808035906020019092919050505061155f565b604051808215151515815260200191505060405180910390f35b34801561053257600080fd5b5061053b6115b1565b604051808273ffffffffffffffffffffffffffffffffffffffff1673ffffffffffffffffffffffffffffffffffffffff16815260200191505060405180910390f35b34801561058957600080fd5b506105e8600480360381019080803573ffffffffffffffffffffffffffffffffffffffff169060200190929190803573ffffffffffffffffffffffffffffffffffffffff169060200190929190803590602001909291905050506115d7565b005b3480156105f657600080fd5b5061062b600480360381019080803573ffffffffffffffffffffffffffffffffffffffff1690602001909291905050506116a4565b005b34801561063957600080fd5b5061066e600480360381019080803573ffffffffffffffffffffffffffffffffffffffff1690602001909291905050506117f3565b005b34801561067c57600080fd5b506106b1600480360381019080803573ffffffffffffffffffffffffffffffffffffffff1690602001909291905050506118cd565b005b3480156106bf57600080fd5b506106c86119a8565b6040518082815260200191505060405180910390f35b3480156106ea57600080fd5b506106f36119ae565b005b34801561070157600080fd5b5061072060048036038101908080359060200190929190505050611a41565b604051808273ffffffffffffffffffffffffffffffffffffffff1673ffffffffffffffffffffffffffffffffffffffff16815260200191505060405180910390f35b34801561076e57600080fd5b506107976004803603810190808035906020019092919080359060200190929190505050611a74565b604051808215151515815260200191505060405180910390f35b3480156107bd57600080fd5b506107dc60048036038101908080359060200190929190505050611afc565b005b3480156107ea57600080fd5b50610829600480360381019080803573ffffffffffffffffffffffffffffffffffffffff16906020019092919080359060200190929190505050611b62565b005b34801561083757600080fd5b5061086c600480360381019080803573ffffffffffffffffffffffffffffffffffffffff169060200190929190505050611be9565b005b34801561087a57600080fd5b5061089960048036038101908080359060200190929190505050611cc4565b005b3480156108a757600080fd5b506108b0611e18565b604051808215151515815260200191505060405180910390f35b3480156108d657600080fd5b506108f560048036038101908080359060200190929190505050611e2b565b604051808273ffffffffffffffffffffffffffffffffffffffff1673ffffffffffffffffffffffffffffffffffffffff16815260200191505060405180910390f35b34801561094357600080fd5b50610978600480360381019080803573ffffffffffffffffffffffffffffffffffffffff169060200190929190505050611ea4565b6040518082815260200191505060405180910390f35b34801561099a57600080fd5b506109a3611eed565b6040518082815260200191505060405180910390f35b3480156109c557600080fd5b506109ce611ef3565b005b3480156109dc57600080fd5b50610a11600480360381019080803573ffffffffffffffffffffffffffffffffffffffff169060200190929190505050612037565b6040518080602001828103825283818151815260200191508051906020019060200280838360005b83811015610a54578082015181840152602081019050610a39565b505050509050019250505060405180910390f35b348015610a7457600080fd5b50610a9360048036038101908080359060200190929190505050612184565b6040518082815260200191505060405180910390f35b348015610ab557600080fd5b50610ad4600480360381019080803590602001909291905050506125cc565b604051808273ffffffffffffffffffffffffffffffffffffffff1673ffffffffffffffffffffffffffffffffffffffff16815260200191505060405180910390f35b348015610b2257600080fd5b50610b2b6125ff565b6040518080602001828103825283818151815260200191508051906020019080838360005b83811015610b6b578082015181840152602081019050610b50565b50505050905090810190601f168015610b985780820380516001836020036101000a031916815260200191505b509250505060405180910390f35b348015610bb257600080fd5b50610bd160048036038101908080359060200190929190505050612638565b604051808263ffffffff1663ffffffff16815260200191505060405180910390f35b348015610bff57600080fd5b50610c3e600480360381019080803573ffffffffffffffffffffffffffffffffffffffff16906020019092919080359060200190929190505050612667565b005b348015610c4c57600080fd5b50610c556127d8565b604051808273ffffffffffffffffffffffffffffffffffffffff1673ffffffffffffffffffffffffffffffffffffffff16815260200191505060405180910390f35b348015610ca357600080fd5b50610cac6127fe565b6040518082815260200191505060405180910390f35b348015610cce57600080fd5b50610cd7612804565b604051808273ffffffffffffffffffffffffffffffffffffffff1673ffffffffffffffffffffffffffffffffffffffff16815260200191505060405180910390f35b348015610d2557600080fd5b50610d446004803603810190808035906020019092919050505061282a565b604051808215151515815260200191505060405180910390f35b348015610d6a57600080fd5b50610d8960048036038101908080359060200190929190505050612999565b604051808273ffffffffffffffffffffffffffffffffffffffff1673ffffffffffffffffffffffffffffffffffffffff16815260200191505060405180910390f35b348015610dd757600080fd5b50610e0c600480360381019080803573ffffffffffffffffffffffffffffffffffffffff1690602001909291905050506129cc565b005b348015610e1a57600080fd5b50610e23612a6b565b604051808273ffffffffffffffffffffffffffffffffffffffff1673ffffffffffffffffffffffffffffffffffffffff16815260200191505060405180910390f35b348015610e7157600080fd5b50610e9060048036038101908080359060200190929190505050612a91565b604051808273ffffffffffffffffffffffffffffffffffffffff1673ffffffffffffffffffffffffffffffffffffffff16815260200191505060405180910390f35b348015610ede57600080fd5b50610ee7612b0f565b604051808273ffffffffffffffffffffffffffffffffffffffff1673ffffffffffffffffffffffffffffffffffffffff16815260200191505060405180910390f35b610f516004803603810190808035906020019092919080359060200190929190505050612b35565b005b600060405180807f737570706f727473496e74657266616365286279746573342900000000000000815250601901905060405180910390207bffffffffffffffffffffffffffffffffffffffffffffffffffffffff1916827bffffffffffffffffffffffffffffffffffffffffffffffffffffffff1916148061125d575060405180807f746f6b656e4d657461646174612875696e743235362c737472696e6729000000815250601d019050604051809103902060405180807f746f6b656e734f664f776e6572286164647265737329000000000000000000008152506016019050604051809103902060405180807f7472616e7366657246726f6d28616464726573732c616464726573732c75696e81526020017f74323536290000000000000000000000000000000000000000000000000000008152506025019050604051809103902060405180807f7472616e7366657228616464726573732c75696e7432353629000000000000008152506019019050604051809103902060405180807f617070726f766528616464726573732c75696e743235362900000000000000008152506018019050604051809103902060405180807f6f776e65724f662875696e7432353629000000000000000000000000000000008152506010019050604051809103902060405180807f62616c616e63654f6628616464726573732900000000000000000000000000008152506012019050604051809103902060405180807f746f74616c537570706c79282900000000000000000000000000000000000000815250600d019050604051809103902060405180807f73796d626f6c28290000000000000000000000000000000000000000000000008152506008019050604051809103902060405180807f6e616d6528290000000000000000000000000000000000000000000000000000815250600601905060405180910390201818181818181818187bffffffffffffffffffffffffffffffffffffffffffffffffffffffff1916827bffffffffffffffffffffffffffffffffffffffffffffffffffffffff1916145b9050919050565b600160009054906101000a900473ffffffffffffffffffffffffffffffffffffffff1681565b6060611294613bb7565b60008073ffffffffffffffffffffffffffffffffffffffff16600e60009054906101000a900473ffffffffffffffffffffffffffffffffffffffff1673ffffffffffffffffffffffffffffffffffffffff16141515156112f357600080fd5b600e60009054906101000a900473ffffffffffffffffffffffffffffffffffffffff1673ffffffffffffffffffffffffffffffffffffffff1663cb4799f28787876040518463ffffffff167c010000000000000000000000000000000000000000000000000000000002815260040180848152602001806020018281038252848482818152602001925080828437820191505094505050505060a060405180830381600087803b1580156113a657600080fd5b505af11580156113ba573d6000803e3d6000fd5b505050506040513d601f19601f8201168201806040525060a08110156113df57600080fd5b810190809190826080018051906020019092919050505080925081935050506114088282612e76565b925050509392505050565b6040805190810160405280600a81526020017f43727970746f446f67730000000000000000000000000000000000000000000081525081565b600260149054906101000a900460ff1615151561146857600080fd5b6114723382612ed2565b151561147d57600080fd5b6114878183612f3e565b7f8c5be1e5ebec7d5bd14f71427d1e84f3dd0314c0f7b2291e5b200ac8c7c3b925338383604051808473ffffffffffffffffffffffffffffffffffffffff1673ffffffffffffffffffffffffffffffffffffffff1681526020018373ffffffffffffffffffffffffffffffffffffffff1673ffffffffffffffffffffffffffffffffffffffff168152602001828152602001935050505060405180910390a15050565b6000809054906101000a900473ffffffffffffffffffffffffffffffffffffffff1681565b6000600160068054905003905090565b6000808211151561156f57600080fd5b600060068381548110151561158057fe5b906000526020600020906002020160010160189054906101000a900463ffffffff1663ffffffff1614159050919050565b600c60009054906101000a900473ffffffffffffffffffffffffffffffffffffffff1681565b600260149054906101000a900460ff161515156115f357600080fd5b600073ffffffffffffffffffffffffffffffffffffffff168273ffffffffffffffffffffffffffffffffffffffff161415151561162f57600080fd5b3073ffffffffffffffffffffffffffffffffffffffff168273ffffffffffffffffffffffffffffffffffffffff161415151561166a57600080fd5b6116743382612f94565b151561167f57600080fd5b6116898382612ed2565b151561169457600080fd5b61169f838383613000565b505050565b60008060009054906101000a900473ffffffffffffffffffffffffffffffffffffffff1673ffffffffffffffffffffffffffffffffffffffff163373ffffffffffffffffffffffffffffffffffffffff1614151561170157600080fd5b8190508073ffffffffffffffffffffffffffffffffffffffff166354c15b826040518163ffffffff167c0100000000000000000000000000000000000000000000000000000000028152600401602060405180830381600087803b15801561176857600080fd5b505af115801561177c573d6000803e3d6000fd5b505050506040513d602081101561179257600080fd5b810190808051906020019092919050505015156117ae57600080fd5b80601160006101000a81548173ffffffffffffffffffffffffffffffffffffffff021916908373ffffffffffffffffffffffffffffffffffffffff1602179055505050565b6000809054906101000a900473ffffffffffffffffffffffffffffffffffffffff1673ffffffffffffffffffffffffffffffffffffffff163373ffffffffffffffffffffffffffffffffffffffff1614151561184e57600080fd5b600073ffffffffffffffffffffffffffffffffffffffff168173ffffffffffffffffffffffffffffffffffffffff161415151561188a57600080fd5b806000806101000a81548173ffffffffffffffffffffffffffffffffffffffff021916908373ffffffffffffffffffffffffffffffffffffffff16021790555050565b6000809054906101000a900473ffffffffffffffffffffffffffffffffffffffff1673ffffffffffffffffffffffffffffffffffffffff163373ffffffffffffffffffffffffffffffffffffffff1614151561192857600080fd5b600073ffffffffffffffffffffffffffffffffffffffff168173ffffffffffffffffffffffffffffffffffffffff161415151561196457600080fd5b80600260006101000a81548173ffffffffffffffffffffffffffffffffffffffff021916908373ffffffffffffffffffffffffffffffffffffffff16021790555050565b60105481565b6000809054906101000a900473ffffffffffffffffffffffffffffffffffffffff1673ffffffffffffffffffffffffffffffffffffffff163373ffffffffffffffffffffffffffffffffffffffff16141515611a0957600080fd5b600260149054906101000a900460ff161515611a2457600080fd5b6000600260146101000a81548160ff021916908315150217905550565b600a6020528060005260406000206000915054906101000a900473ffffffffffffffffffffffffffffffffffffffff1681565b60008060008085111515611a8757600080fd5b600084111515611a9657600080fd5b600685815481101515611aa557fe5b90600052602060002090600202019150600684815481101515611ac457fe5b90600052602060002090600202019050611ae082868387613238565b8015611af25750611af1848661344d565b5b9250505092915050565b600260009054906101000a900473ffffffffffffffffffffffffffffffffffffffff1673ffffffffffffffffffffffffffffffffffffffff163373ffffffffffffffffffffffffffffffffffffffff16141515611b5857600080fd5b80600f8190555050565b600260149054906101000a900460ff16151515611b7e57600080fd5b611b883382612ed2565b1515611b9357600080fd5b81600a600083815260200190815260200160002060006101000a81548173ffffffffffffffffffffffffffffffffffffffff021916908373ffffffffffffffffffffffffffffffffffffffff1602179055505050565b6000809054906101000a900473ffffffffffffffffffffffffffffffffffffffff1673ffffffffffffffffffffffffffffffffffffffff163373ffffffffffffffffffffffffffffffffffffffff16141515611c4457600080fd5b600073ffffffffffffffffffffffffffffffffffffffff168173ffffffffffffffffffffffffffffffffffffffff1614151515611c8057600080fd5b80600160006101000a81548173ffffffffffffffffffffffffffffffffffffffff021916908373ffffffffffffffffffffffffffffffffffffffff16021790555050565b600260009054906101000a900473ffffffffffffffffffffffffffffffffffffffff1673ffffffffffffffffffffffffffffffffffffffff163373ffffffffffffffffffffffffffffffffffffffff161480611d6c57506000809054906101000a900473ffffffffffffffffffffffffffffffffffffffff1673ffffffffffffffffffffffffffffffffffffffff163373ffffffffffffffffffffffffffffffffffffffff16145b80611dc45750600160009054906101000a900473ffffffffffffffffffffffffffffffffffffffff1673ffffffffffffffffffffffffffffffffffffffff163373ffffffffffffffffffffffffffffffffffffffff16145b1515611dcf57600080fd5b60036000600e81101515611ddf57fe5b600891828204019190066004029054906101000a900463ffffffff1663ffffffff1681101515611e0e57600080fd5b8060058190555050565b600260149054906101000a900460ff1681565b60006007600083815260200190815260200160002060009054906101000a900473ffffffffffffffffffffffffffffffffffffffff169050600073ffffffffffffffffffffffffffffffffffffffff168173ffffffffffffffffffffffffffffffffffffffff1614151515611e9f57600080fd5b919050565b6000600860008373ffffffffffffffffffffffffffffffffffffffff1673ffffffffffffffffffffffffffffffffffffffff168152602001908152602001600020549050919050565b60055481565b600260009054906101000a900473ffffffffffffffffffffffffffffffffffffffff1673ffffffffffffffffffffffffffffffffffffffff163373ffffffffffffffffffffffffffffffffffffffff161480611f9b57506000809054906101000a900473ffffffffffffffffffffffffffffffffffffffff1673ffffffffffffffffffffffffffffffffffffffff163373ffffffffffffffffffffffffffffffffffffffff16145b80611ff35750600160009054906101000a900473ffffffffffffffffffffffffffffffffffffffff1673ffffffffffffffffffffffffffffffffffffffff163373ffffffffffffffffffffffffffffffffffffffff16145b1515611ffe57600080fd5b600260149054906101000a900460ff1615151561201a57600080fd5b6001600260146101000a81548160ff021916908315150217905550565b606060006060600080600061204b87611ea4565b9450600085141561208e5760006040519080825280602002602001820160405280156120865781602001602082028038833980820191505090505b50955061217a565b846040519080825280602002602001820160405280156120bd5781602001602082028038833980820191505090505b5093506120c861154f565b925060009150600190505b8281111515612176578673ffffffffffffffffffffffffffffffffffffffff166007600083815260200190815260200160002060009054906101000a900473ffffffffffffffffffffffffffffffffffffffff1673ffffffffffffffffffffffffffffffffffffffff1614156121695780848381518110151561215257fe5b906020019060200201818152505081806001019250505b80806001019150506120d3565b8395505b5050505050919050565b600080600080600080600080600260149054906101000a900460ff161515156121ac57600080fd5b6006898154811015156121bb57fe5b9060005260206000209060020201965060008760010160009054906101000a900467ffffffffffffffff1667ffffffffffffffff16141515156121fd57600080fd5b612333876101006040519081016040529081600082015481526020016001820160009054906101000a900467ffffffffffffffff1667ffffffffffffffff1667ffffffffffffffff1681526020016001820160089054906101000a900467ffffffffffffffff1667ffffffffffffffff1667ffffffffffffffff1681526020016001820160109054906101000a900463ffffffff1663ffffffff1663ffffffff1681526020016001820160149054906101000a900463ffffffff1663ffffffff1663ffffffff1681526020016001820160189054906101000a900463ffffffff1663ffffffff1663ffffffff16815260200160018201601c9054906101000a900461ffff1661ffff1661ffff16815260200160018201601e9054906101000a900461ffff1661ffff1661ffff1681525050613560565b151561233e57600080fd5b8660010160189054906101000a900463ffffffff1663ffffffff16955060068681548110151561236a57fe5b9060005260206000209060020201945086600101601e9054906101000a900461ffff16935086600101601e9054906101000a900461ffff1661ffff1685600101601e9054906101000a900461ffff1661ffff1611156123d95784600101601e9054906101000a900461ffff1693505b601160009054906101000a900473ffffffffffffffffffffffffffffffffffffffff1673ffffffffffffffffffffffffffffffffffffffff16630d9f5aed8860000154876000015460018b60010160089054906101000a900467ffffffffffffffff16036040518463ffffffff167c0100000000000000000000000000000000000000000000000000000000028152600401808481526020018381526020018267ffffffffffffffff1681526020019350505050602060405180830381600087803b1580156124a757600080fd5b505af11580156124bb573d6000803e3d6000fd5b505050506040513d60208110156124d157600080fd5b81019080805190602001909291905050509250600760008a815260200190815260200160002060009054906101000a900473ffffffffffffffffffffffffffffffffffffffff169150612548898860010160189054906101000a900463ffffffff1663ffffffff166001870161ffff16868661359b565b90508660010160186101000a81549063ffffffff0219169055601060008154809291906001900391905055503373ffffffffffffffffffffffffffffffffffffffff166108fc600f549081150290604051600060405180830381858888f193505050501580156125bc573d6000803e3d6000fd5b5080975050505050505050919050565b60076020528060005260406000206000915054906101000a900473ffffffffffffffffffffffffffffffffffffffff1681565b6040805190810160405280600281526020017f434400000000000000000000000000000000000000000000000000000000000081525081565b600381600e8110151561264757fe5b60089182820401919006600402915054906101000a900463ffffffff1681565b600260149054906101000a900460ff1615151561268357600080fd5b600073ffffffffffffffffffffffffffffffffffffffff168273ffffffffffffffffffffffffffffffffffffffff16141515156126bf57600080fd5b3073ffffffffffffffffffffffffffffffffffffffff168273ffffffffffffffffffffffffffffffffffffffff16141515156126fa57600080fd5b600b60009054906101000a900473ffffffffffffffffffffffffffffffffffffffff1673ffffffffffffffffffffffffffffffffffffffff168273ffffffffffffffffffffffffffffffffffffffff161415151561275757600080fd5b600c60009054906101000a900473ffffffffffffffffffffffffffffffffffffffff1673ffffffffffffffffffffffffffffffffffffffff168273ffffffffffffffffffffffffffffffffffffffff16141515156127b457600080fd5b6127be3382612ed2565b15156127c957600080fd5b6127d4338383613000565b5050565b600260009054906101000a900473ffffffffffffffffffffffffffffffffffffffff1681565b600f5481565b600e60009054906101000a900473ffffffffffffffffffffffffffffffffffffffff1681565b60008060008311151561283c57600080fd5b60068381548110151561284b57fe5b90600052602060002090600202019050612991816101006040519081016040529081600082015481526020016001820160009054906101000a900467ffffffffffffffff1667ffffffffffffffff1667ffffffffffffffff1681526020016001820160089054906101000a900467ffffffffffffffff1667ffffffffffffffff1667ffffffffffffffff1681526020016001820160109054906101000a900463ffffffff1663ffffffff1663ffffffff1681526020016001820160149054906101000a900463ffffffff1663ffffffff1663ffffffff1681526020016001820160189054906101000a900463ffffffff1663ffffffff1663ffffffff16815260200160018201601c9054906101000a900461ffff1661ffff1661ffff16815260200160018201601e9054906101000a900461ffff1661ffff1661ffff1681525050613892565b915050919050565b60096020528060005260406000206000915054906101000a900473ffffffffffffffffffffffffffffffffffffffff1681565b6000809054906101000a900473ffffffffffffffffffffffffffffffffffffffff1673ffffffffffffffffffffffffffffffffffffffff163373ffffffffffffffffffffffffffffffffffffffff16141515612a2757600080fd5b80600e60006101000a81548173ffffffffffffffffffffffffffffffffffffffff021916908373ffffffffffffffffffffffffffffffffffffffff16021790555050565b600b60009054906101000a900473ffffffffffffffffffffffffffffffffffffffff1681565b600080600d600084815260200190815260200160002060009054906101000a900473ffffffffffffffffffffffffffffffffffffffff169050600073ffffffffffffffffffffffffffffffffffffffff168173ffffffffffffffffffffffffffffffffffffffff1614151515612b0657600080fd5b80915050919050565b601160009054906101000a900473ffffffffffffffffffffffffffffffffffffffff1681565b600080600260149054906101000a900460ff16151515612b5457600080fd5b600f543410151515612b6557600080fd5b612b6f3385612ed2565b1515612b7a57600080fd5b612b84838561344d565b1515612b8f57600080fd5b600684815481101515612b9e57fe5b90600052602060002090600202019150612ce4826101006040519081016040529081600082015481526020016001820160009054906101000a900467ffffffffffffffff1667ffffffffffffffff1667ffffffffffffffff1681526020016001820160089054906101000a900467ffffffffffffffff1667ffffffffffffffff1667ffffffffffffffff1681526020016001820160109054906101000a900463ffffffff1663ffffffff1663ffffffff1681526020016001820160149054906101000a900463ffffffff1663ffffffff1663ffffffff1681526020016001820160189054906101000a900463ffffffff1663ffffffff1663ffffffff16815260200160018201601c9054906101000a900461ffff1661ffff1661ffff16815260200160018201601e9054906101000a900461ffff1661ffff1661ffff1681525050613892565b1515612cef57600080fd5b600683815481101515612cfe57fe5b90600052602060002090600202019050612e44816101006040519081016040529081600082015481526020016001820160009054906101000a900467ffffffffffffffff1667ffffffffffffffff1667ffffffffffffffff1681526020016001820160089054906101000a900467ffffffffffffffff1667ffffffffffffffff1667ffffffffffffffff1681526020016001820160109054906101000a900463ffffffff1663ffffffff1663ffffffff1681526020016001820160149054906101000a900463ffffffff1663ffffffff1663ffffffff1681526020016001820160189054906101000a900463ffffffff1663ffffffff1663ffffffff16815260200160018201601c9054906101000a900461ffff1661ffff1661ffff16815260200160018201601e9054906101000a900461ffff1661ffff1661ffff1681525050613892565b1515612e4f57600080fd5b612e5b82858386613238565b1515612e6657600080fd5b612e7084846138cc565b50505050565b606080600080846040519080825280601f01601f191660200182016040528015612eaf5781602001602082028038833980820191505090505b509250602083019150859050612ec6828287613a96565b82935050505092915050565b60008273ffffffffffffffffffffffffffffffffffffffff166007600084815260200190815260200160002060009054906101000a900473ffffffffffffffffffffffffffffffffffffffff1673ffffffffffffffffffffffffffffffffffffffff1614905092915050565b806009600084815260200190815260200160002060006101000a81548173ffffffffffffffffffffffffffffffffffffffff021916908373ffffffffffffffffffffffffffffffffffffffff1602179055505050565b60008273ffffffffffffffffffffffffffffffffffffffff166009600084815260200190815260200160002060009054906101000a900473ffffffffffffffffffffffffffffffffffffffff1673ffffffffffffffffffffffffffffffffffffffff1614905092915050565b600860008373ffffffffffffffffffffffffffffffffffffffff1673ffffffffffffffffffffffffffffffffffffffff16815260200190815260200160002060008154809291906001019190505550816007600083815260200190815260200160002060006101000a81548173ffffffffffffffffffffffffffffffffffffffff021916908373ffffffffffffffffffffffffffffffffffffffff160217905550600073ffffffffffffffffffffffffffffffffffffffff168373ffffffffffffffffffffffffffffffffffffffff1614151561319457600860008473ffffffffffffffffffffffffffffffffffffffff1673ffffffffffffffffffffffffffffffffffffffff1681526020019081526020016000206000815480929190600190039190505550600a600082815260200190815260200160002060006101000a81549073ffffffffffffffffffffffffffffffffffffffff02191690556009600082815260200190815260200160002060006101000a81549073ffffffffffffffffffffffffffffffffffffffff02191690555b7fddf252ad1be2c89b69c2b068fc378daa952ba7f163c4a11628f55a4df523b3ef838383604051808473ffffffffffffffffffffffffffffffffffffffff1673ffffffffffffffffffffffffffffffffffffffff1681526020018373ffffffffffffffffffffffffffffffffffffffff1673ffffffffffffffffffffffffffffffffffffffff168152602001828152602001935050505060405180910390a1505050565b60008184141561324b5760009050613445565b818560010160109054906101000a900463ffffffff1663ffffffff16148061328c5750818560010160149054906101000a900463ffffffff1663ffffffff16145b1561329a5760009050613445565b838360010160109054906101000a900463ffffffff1663ffffffff1614806132db5750838360010160149054906101000a900463ffffffff1663ffffffff16145b156132e95760009050613445565b60008360010160109054906101000a900463ffffffff1663ffffffff16148061332c575060008560010160109054906101000a900463ffffffff1663ffffffff16145b1561333a5760019050613445565b8460010160109054906101000a900463ffffffff1663ffffffff168360010160109054906101000a900463ffffffff1663ffffffff1614806133af57508460010160149054906101000a900463ffffffff1663ffffffff168360010160109054906101000a900463ffffffff1663ffffffff16145b156133bd5760009050613445565b8460010160109054906101000a900463ffffffff1663ffffffff168360010160149054906101000a900463ffffffff1663ffffffff16148061343257508460010160149054906101000a900463ffffffff1663ffffffff168360010160149054906101000a900463ffffffff1663ffffffff16145b156134405760009050613445565b600190505b949350505050565b60008060006007600085815260200190815260200160002060009054906101000a900473ffffffffffffffffffffffffffffffffffffffff1691506007600086815260200190815260200160002060009054906101000a900473ffffffffffffffffffffffffffffffffffffffff1690508073ffffffffffffffffffffffffffffffffffffffff168273ffffffffffffffffffffffffffffffffffffffff16148061355657508173ffffffffffffffffffffffffffffffffffffffff16600a600087815260200190815260200160002060009054906101000a900473ffffffffffffffffffffffffffffffffffffffff1673ffffffffffffffffffffffffffffffffffffffff16145b9250505092915050565b6000808260a0015163ffffffff161415801561359457504367ffffffffffffffff16826040015167ffffffffffffffff1611155b9050919050565b6000806135a6613bda565b60008863ffffffff16891415156135bc57600080fd5b8763ffffffff16881415156135d057600080fd5b8661ffff16871415156135e257600080fd5b6002878115156135ee57fe5b049250600d8361ffff16111561360357600d92505b610100604051908101604052808781526020014267ffffffffffffffff168152602001600067ffffffffffffffff1681526020018a63ffffffff1681526020018963ffffffff168152602001600063ffffffff1681526020018461ffff1681526020018861ffff1681525091506001600683908060018154018082558091505090600182039060005260206000209060020201600090919290919091506000820151816000015560208201518160010160006101000a81548167ffffffffffffffff021916908367ffffffffffffffff16021790555060408201518160010160086101000a81548167ffffffffffffffff021916908367ffffffffffffffff16021790555060608201518160010160106101000a81548163ffffffff021916908363ffffffff16021790555060808201518160010160146101000a81548163ffffffff021916908363ffffffff16021790555060a08201518160010160186101000a81548163ffffffff021916908363ffffffff16021790555060c082015181600101601c6101000a81548161ffff021916908361ffff16021790555060e082015181600101601e6101000a81548161ffff021916908361ffff16021790555050500390508063ffffffff16811415156137dc57600080fd5b7f0a5311bd2a6608f08a180df2ee7c5946819a649b204b554bb8e39825b2c50ad58582846060015163ffffffff16856080015163ffffffff168660000151604051808673ffffffffffffffffffffffffffffffffffffffff1673ffffffffffffffffffffffffffffffffffffffff1681526020018581526020018481526020018381526020018281526020019550505050505060405180910390a161388360008683613000565b80935050505095945050505050565b6000808260a0015163ffffffff161480156138c557504367ffffffffffffffff16826040015167ffffffffffffffff1611155b9050919050565b6000806006838154811015156138de57fe5b906000526020600020906002020191506006848154811015156138fd57fe5b90600052602060002090600202019050828160010160186101000a81548163ffffffff021916908363ffffffff16021790555061393982613ae1565b61394281613ae1565b600a600085815260200190815260200160002060006101000a81549073ffffffffffffffffffffffffffffffffffffffff0219169055600a600084815260200190815260200160002060006101000a81549073ffffffffffffffffffffffffffffffffffffffff02191690556010600081548092919060010191905055507f241ea03ca20251805084d27d4440371c34a0b85ff108f6bb5611248f73818b806007600086815260200190815260200160002060009054906101000a900473ffffffffffffffffffffffffffffffffffffffff1685858460010160089054906101000a900467ffffffffffffffff16604051808573ffffffffffffffffffffffffffffffffffffffff1673ffffffffffffffffffffffffffffffffffffffff1681526020018481526020018381526020018267ffffffffffffffff16815260200194505050505060405180910390a150505050565b60005b602082101515613abe5782518452602084019350602083019250602082039150613a99565b6001826020036101000a0390508019835116818551168181178652505050505050565b43600554600383600101601c9054906101000a900461ffff1661ffff16600e81101515613b0a57fe5b600891828204019190066004029054906101000a900463ffffffff1663ffffffff16811515613b3557fe5b04018160010160086101000a81548167ffffffffffffffff021916908367ffffffffffffffff160217905550600d81600101601c9054906101000a900461ffff1661ffff161015613bb457600181600101601c8282829054906101000a900461ffff160192506101000a81548161ffff021916908361ffff1602179055505b50565b608060405190810160405280600490602082028038833980820191505090505090565b6101006040519081016040528060008152602001600067ffffffffffffffff168152602001600067ffffffffffffffff168152602001600063ffffffff168152602001600063ffffffff168152602001600063ffffffff168152602001600061ffff168152602001600061ffff16815250905600a165627a7a72305820e4fd77da9bc7aad46a1f70386a7677ce5558c6a801f226904510db2fb70269620029",
  "source": "// CryptoKitties Source code\r\n// Copied from: https://etherscan.io/address/0x06012c8cf97bead5deae237070f9587f8e7a266d#code\r\n\r\npragma solidity ^0.4.25;\r\n\r\nimport \"./DogOwnership.sol\";\r\nimport \"./GeneScienceInterface.sol\";\r\n\r\n\r\n/// @title A facet of KittyCore that manages Kitty siring, gestation, and birth.\r\n/// @author Axiom Zen (https://www.axiomzen.co)\r\n/// @dev See the KittyCore contract documentation to understand how the various contract facets are arranged.\r\ncontract DogBreeding is DogOwnership {\r\n\r\n    /// @dev The Pregnant event is fired when two cats successfully breed and the pregnancy\r\n    ///  timer begins for the matron.\r\n    event Pregnant(address owner, uint256 matronId, uint256 sireId, uint256 cooldownEndBlock);\r\n\r\n    /// @notice The minimum payment required to use breedWithAuto(). This fee goes towards\r\n    ///  the gas cost paid by whatever calls giveBirth(), and can be dynamically updated by\r\n    ///  the COO role as the gas price changes.\r\n    uint256 public autoBirthFee = 2 finney;\r\n\r\n    // Keeps track of number of pregnant kitties.\r\n    uint256 public pregnantDogs;\r\n\r\n    /// @dev The address of the sibling contract that is used to implement the sooper-sekret\r\n    ///  genetic combination algorithm.\r\n    GeneScienceInterface public geneScience;\r\n\r\n    /// @dev Update the address of the genetic contract, can only be called by the CEO.\r\n    /// @param _address An address of a GeneScience contract instance to be used from this point forward.\r\n    function setGeneScienceAddress(address _address) external onlyCEO {\r\n        GeneScienceInterface candidateContract = GeneScienceInterface(_address);\r\n\r\n        // NOTE: verify that a contract is what we expect - https://github.com/Lunyr/crowdsale-contracts/blob/cfadd15986c30521d8ba7d5b6f57b4fefcc7ac38/contracts/LunyrToken.sol#L117\r\n        require(candidateContract.isGeneScience());\r\n\r\n        // Set the new contract address\r\n        geneScience = candidateContract;\r\n    }\r\n\r\n    /// @dev Checks that a given kitten is able to breed. Requires that the\r\n    ///  current cooldown is finished (for sires) and also checks that there is\r\n    ///  no pending pregnancy.\r\n    function _isReadyToBreed(Dog _dog) internal view returns (bool) {\r\n        // In addition to checking the cooldownEndBlock, we also need to check to see if\r\n        // the cat has a pending birth; there can be some period of time between the end\r\n        // of the pregnacy timer and the birth event.\r\n        return (_dog.siringWithId == 0) && (_dog.cooldownEndBlock <= uint64(block.number));\r\n    }\r\n\r\n    /// @dev Check if a sire has authorized breeding with this matron. True if both sire\r\n    ///  and matron have the same owner, or if the sire has given siring permission to\r\n    ///  the matron's owner (via approveSiring()).\r\n    function _isSiringPermitted(uint256 _sireId, uint256 _matronId) internal view returns (bool) {\r\n        address matronOwner = dogIndexToOwner[_matronId];\r\n        address sireOwner = dogIndexToOwner[_sireId];\r\n\r\n        // Siring is okay if they have same owner, or if the matron's owner was given\r\n        // permission to breed with this sire.\r\n        return (matronOwner == sireOwner || sireAllowedToAddress[_sireId] == matronOwner);\r\n    }\r\n\r\n    /// @dev Set the cooldownEndTime for the given Kitty, based on its current cooldownIndex.\r\n    ///  Also increments the cooldownIndex (unless it has hit the cap).\r\n    /// @param _kennel A reference to the Kitty in storage which needs its timer started.\r\n    function _triggerCooldown(Dog storage _kennel) internal {\r\n        // Compute an estimation of the cooldown time in blocks (based on current cooldownIndex).\r\n        _kennel.cooldownEndBlock = uint64((cooldowns[_kennel.cooldownIndex]/secondsPerBlock) + block.number);\r\n\r\n        // Increment the breeding count, clamping it at 13, which is the length of the\r\n        // cooldowns array. We could check the array size dynamically, but hard-coding\r\n        // this as a constant saves gas. Yay, Solidity!\r\n        if (_kennel.cooldownIndex < 13) {\r\n            _kennel.cooldownIndex += 1;\r\n        }\r\n    }\r\n\r\n    /// @notice Grants approval to another user to sire with one of your Kitties.\r\n    /// @param _addr The address that will be able to sire with your Kitty. Set to\r\n    ///  address(0) to clear all siring approvals for this Kitty.\r\n    /// @param _sireId A Kitty that you own that _addr will now be able to sire with.\r\n    function approveSiring(address _addr, uint256 _sireId)\r\n        external\r\n        whenNotPaused\r\n    {\r\n        require(_owns(msg.sender, _sireId));\r\n        sireAllowedToAddress[_sireId] = _addr;\r\n    }\r\n\r\n    /// @dev Updates the minimum payment required for calling giveBirthAuto(). Can only\r\n    ///  be called by the COO address. (This fee is used to offset the gas cost incurred\r\n    ///  by the autobirth daemon).\r\n    function setAutoBirthFee(uint256 val) external onlyCOO {\r\n        autoBirthFee = val;\r\n    }\r\n\r\n    /// @dev Checks to see if a given Kitty is pregnant and (if so) if the gestation\r\n    ///  period has passed.\r\n    function _isReadyToGiveBirth(Dog _matron) private view returns (bool) {\r\n        return (_matron.siringWithId != 0) && (_matron.cooldownEndBlock <= uint64(block.number));\r\n    }\r\n\r\n    /// @notice Checks that a given kitten is able to breed (i.e. it is not pregnant or\r\n    ///  in the middle of a siring cooldown).\r\n    /// @param _dogId reference the id of the kitten, any user can inquire about it\r\n    function isReadyToBreed(uint256 _dogId)\r\n        public\r\n        view\r\n        returns (bool)\r\n    {\r\n        require(_dogId > 0);\r\n        Dog storage stock = kennel[_dogId];\r\n        return _isReadyToBreed(stock);\r\n    }\r\n\r\n    /// @dev Checks whether a kitty is currently pregnant.\r\n    /// @param _dogId reference the id of the kitten, any user can inquire about it\r\n    function isPregnant(uint256 _dogId)\r\n        public\r\n        view\r\n        returns (bool)\r\n    {\r\n        require(_dogId > 0);\r\n        // A kitty is pregnant if and only if this field is set\r\n        return kennel[_dogId].siringWithId != 0;\r\n    }\r\n\r\n    /// @dev Internal check to see if a given sire and matron are a valid mating pair. DOES NOT\r\n    ///  check ownership permissions (that is up to the caller).\r\n    /// @param _matron A reference to the Kitty struct of the potential matron.\r\n    /// @param _matronId The matron's ID.\r\n    /// @param _sire A reference to the Kitty struct of the potential sire.\r\n    /// @param _sireId The sire's ID\r\n    function _isValidMatingPair(\r\n        Dog storage _matron,\r\n        uint256 _matronId,\r\n        Dog storage _sire,\r\n        uint256 _sireId\r\n    )\r\n        private\r\n        view\r\n        returns(bool)\r\n    {\r\n        // A Kitty can't breed with itself!\r\n        if (_matronId == _sireId) {\r\n            return false;\r\n        }\r\n\r\n        // Kitties can't breed with their parents.\r\n        if (_matron.matronId == _sireId || _matron.sireId == _sireId) {\r\n            return false;\r\n        }\r\n        if (_sire.matronId == _matronId || _sire.sireId == _matronId) {\r\n            return false;\r\n        }\r\n\r\n        // We can short circuit the sibling check (below) if either cat is\r\n        // gen zero (has a matron ID of zero).\r\n        if (_sire.matronId == 0 || _matron.matronId == 0) {\r\n            return true;\r\n        }\r\n\r\n        // Kitties can't breed with full or half siblings.\r\n        if (_sire.matronId == _matron.matronId || _sire.matronId == _matron.sireId) {\r\n            return false;\r\n        }\r\n        if (_sire.sireId == _matron.matronId || _sire.sireId == _matron.sireId) {\r\n            return false;\r\n        }\r\n\r\n        // Everything seems cool! Let's get DTF.\r\n        return true;\r\n    }\r\n\r\n    /// @dev Internal check to see if a given sire and matron are a valid mating pair for\r\n    ///  breeding via auction (i.e. skips ownership and siring approval checks).\r\n    function _canBreedWithViaAuction(uint256 _matronId, uint256 _sireId)\r\n        internal\r\n        view\r\n        returns (bool)\r\n    {\r\n        Dog storage matron = kennel[_matronId];\r\n        Dog storage sire = kennel[_sireId];\r\n        return _isValidMatingPair(matron, _matronId, sire, _sireId);\r\n    }\r\n\r\n    /// @notice Checks to see if two cats can breed together, including checks for\r\n    ///  ownership and siring approvals. Does NOT check that both cats are ready for\r\n    ///  breeding (i.e. breedWith could still fail until the cooldowns are finished).\r\n    ///  TODO: Shouldn't this check pregnancy and cooldowns?!?\r\n    /// @param _matronId The ID of the proposed matron.\r\n    /// @param _sireId The ID of the proposed sire.\r\n    function canBreedWith(uint256 _matronId, uint256 _sireId)\r\n        external\r\n        view\r\n        returns(bool)\r\n    {\r\n        require(_matronId > 0);\r\n        require(_sireId > 0);\r\n        Dog storage matron = kennel[_matronId];\r\n        Dog storage sire = kennel[_sireId];\r\n        return _isValidMatingPair(matron, _matronId, sire, _sireId) &&\r\n            _isSiringPermitted(_sireId, _matronId);\r\n    }\r\n\r\n    /// @dev Internal utility function to initiate breeding, assumes that all breeding\r\n    ///  requirements have been checked.\r\n    function _breedWith(uint256 _matronId, uint256 _sireId) internal {\r\n        // Grab a reference to the Kitties from storage.\r\n        Dog storage sire = kennel[_sireId];\r\n        Dog storage matron = kennel[_matronId];\r\n\r\n        // Mark the matron as pregnant, keeping track of who the sire is.\r\n        matron.siringWithId = uint32(_sireId);\r\n\r\n        // Trigger the cooldown for both parents.\r\n        _triggerCooldown(sire);\r\n        _triggerCooldown(matron);\r\n\r\n        // Clear siring permission for both parents. This may not be strictly necessary\r\n        // but it's likely to avoid confusion!\r\n        delete sireAllowedToAddress[_matronId];\r\n        delete sireAllowedToAddress[_sireId];\r\n\r\n        // Every time a kitty gets pregnant, counter is incremented.\r\n        pregnantDogs++;\r\n\r\n        // Emit the pregnancy event.\r\n        emit Pregnant(dogIndexToOwner[_matronId], _matronId, _sireId, matron.cooldownEndBlock);\r\n    }\r\n\r\n    /// @notice Breed a Kitty you own (as matron) with a sire that you own, or for which you\r\n    ///  have previously been given Siring approval. Will either make your cat pregnant, or will\r\n    ///  fail entirely. Requires a pre-payment of the fee given out to the first caller of giveBirth()\r\n    /// @param _matronId The ID of the Kitty acting as matron (will end up pregnant if successful)\r\n    /// @param _sireId The ID of the Kitty acting as sire (will begin its siring cooldown if successful)\r\n    function breedWithAuto(uint256 _matronId, uint256 _sireId)\r\n        external\r\n        payable\r\n        whenNotPaused\r\n    {\r\n        // Checks for payment.\r\n        require(msg.value >= autoBirthFee);\r\n\r\n        // Caller must own the matron.\r\n        require(_owns(msg.sender, _matronId));\r\n\r\n        // Neither sire nor matron are allowed to be on auction during a normal\r\n        // breeding operation, but we don't need to check that explicitly.\r\n        // For matron: The caller of this function can't be the owner of the matron\r\n        //   because the owner of a Kitty on auction is the auction house, and the\r\n        //   auction house will never call breedWith().\r\n        // For sire: Similarly, a sire on auction will be owned by the auction house\r\n        //   and the act of transferring ownership will have cleared any oustanding\r\n        //   siring approval.\r\n        // Thus we don't need to spend gas explicitly checking to see if either cat\r\n        // is on auction.\r\n\r\n        // Check that matron and sire are both owned by caller, or that the sire\r\n        // has given siring permission to caller (i.e. matron's owner).\r\n        // Will fail for _sireId = 0\r\n        require(_isSiringPermitted(_sireId, _matronId));\r\n\r\n        // Grab a reference to the potential matron\r\n        Dog storage matron = kennel[_matronId];\r\n\r\n        // Make sure matron isn't pregnant, or in the middle of a siring cooldown\r\n        require(_isReadyToBreed(matron));\r\n\r\n        // Grab a reference to the potential sire\r\n        Dog storage sire = kennel[_sireId];\r\n\r\n        // Make sure sire isn't pregnant, or in the middle of a siring cooldown\r\n        require(_isReadyToBreed(sire));\r\n\r\n        // Test that these cats are a valid mating pair.\r\n        require(_isValidMatingPair(\r\n            matron,\r\n            _matronId,\r\n            sire,\r\n            _sireId\r\n        ));\r\n\r\n        // All checks passed, kitty gets pregnant!\r\n        _breedWith(_matronId, _sireId);\r\n    }\r\n\r\n    /// @notice Have a pregnant Kitty give birth!\r\n    /// @param _matronId A Kitty ready to give birth.\r\n    /// @return The Kitty ID of the new kitten.\r\n    /// @dev Looks at a given Kitty and, if pregnant and if the gestation period has passed,\r\n    ///  combines the genes of the two parents to create a new kitten. The new Kitty is assigned\r\n    ///  to the current owner of the matron. Upon successful completion, both the matron and the\r\n    ///  new kitten will be ready to breed again. Note that anyone can call this function (if they\r\n    ///  are willing to pay the gas!), but the new kitten always goes to the mother's owner.\r\n    function giveBirth(uint256 _matronId)\r\n        external\r\n        whenNotPaused\r\n        returns(uint256)\r\n    {\r\n        // Grab a reference to the matron in storage.\r\n        Dog storage matron = kennel[_matronId];\r\n\r\n        // Check that the matron is a valid cat.\r\n        require(matron.birthTime != 0);\r\n\r\n        // Check that the matron is pregnant, and that its time has come!\r\n        require(_isReadyToGiveBirth(matron));\r\n\r\n        // Grab a reference to the sire in storage.\r\n        uint256 sireId = matron.siringWithId;\r\n        Dog storage sire = kennel[sireId];\r\n\r\n        // Determine the higher generation number of the two parents\r\n        uint16 parentGen = matron.generation;\r\n        if (sire.generation > matron.generation) {\r\n            parentGen = sire.generation;\r\n        }\r\n\r\n        // Call the sooper-sekret gene mixing operation.\r\n        uint256 childGenes = geneScience.mixGenes(matron.genes, sire.genes, matron.cooldownEndBlock - 1);\r\n\r\n        // Make the new kitten!\r\n        address owner = dogIndexToOwner[_matronId];\r\n        uint256 dogId = _createDog(_matronId, matron.siringWithId, parentGen + 1, childGenes, owner);\r\n\r\n        // Clear the reference to sire from the matron (REQUIRED! Having siringWithId\r\n        // set is what marks a matron as being pregnant.)\r\n        delete matron.siringWithId;\r\n\r\n        // Every time a kitty gives birth counter is decremented.\r\n        pregnantDogs--;\r\n\r\n        // Send the balance fee to the person who made birth happen.\r\n        msg.sender.transfer(autoBirthFee);\r\n\r\n        // return the new kitten's ID\r\n        return dogId;\r\n    }\r\n}",
  "sourcePath": "C:\\Users\\CTrov\\OneDrive\\Documents\\ESILV\\BLOCKCHAIN PROGRAMMING\\Blockchain_Programming_TD6\\contracts\\DogBreeding.sol",
  "compiler": {
    "name": "solc",
    "version": "0.4.25+commit.59dbf8f1.Emscripten.clang"
  },
  "schemaVersion": "2.0.2",
  "updatedAt": "2019-03-17T15:05:22.144Z"
}