{
  "contractName": "DogMinting",
  "abi": [
    {
      "constant": true,
      "inputs": [
        {
          "name": "_interfaceID",
          "type": "bytes4"
        }
      ],
      "name": "supportsInterface",
      "outputs": [
        {
          "name": "",
          "type": "bool"
        }
      ],
      "payable": false,
      "stateMutability": "view",
      "type": "function"
    },
    {
      "constant": true,
      "inputs": [],
      "name": "cfoAddress",
      "outputs": [
        {
          "name": "",
          "type": "address"
        }
      ],
      "payable": false,
      "stateMutability": "view",
      "type": "function"
    },
    {
      "constant": true,
      "inputs": [
        {
          "name": "_tokenId",
          "type": "uint256"
        },
        {
          "name": "_preferredTransport",
          "type": "string"
        }
      ],
      "name": "tokenMetadata",
      "outputs": [
        {
          "name": "infoUrl",
          "type": "string"
        }
      ],
      "payable": false,
      "stateMutability": "view",
      "type": "function"
    },
    {
      "constant": true,
      "inputs": [],
      "name": "promoCreatedCount",
      "outputs": [
        {
          "name": "",
          "type": "uint256"
        }
      ],
      "payable": false,
      "stateMutability": "view",
      "type": "function"
    },
    {
      "constant": true,
      "inputs": [],
      "name": "name",
      "outputs": [
        {
          "name": "",
          "type": "string"
        }
      ],
      "payable": false,
      "stateMutability": "view",
      "type": "function"
    },
    {
      "constant": false,
      "inputs": [
        {
          "name": "_to",
          "type": "address"
        },
        {
          "name": "_tokenId",
          "type": "uint256"
        }
      ],
      "name": "approve",
      "outputs": [],
      "payable": false,
      "stateMutability": "nonpayable",
      "type": "function"
    },
    {
      "constant": true,
      "inputs": [],
      "name": "ceoAddress",
      "outputs": [
        {
          "name": "",
          "type": "address"
        }
      ],
      "payable": false,
      "stateMutability": "view",
      "type": "function"
    },
    {
      "constant": true,
      "inputs": [],
      "name": "GEN0_STARTING_PRICE",
      "outputs": [
        {
          "name": "",
          "type": "uint256"
        }
      ],
      "payable": false,
      "stateMutability": "view",
      "type": "function"
    },
    {
      "constant": false,
      "inputs": [
        {
          "name": "_address",
          "type": "address"
        }
      ],
      "name": "setSiringAuctionAddress",
      "outputs": [],
      "payable": false,
      "stateMutability": "nonpayable",
      "type": "function"
    },
    {
      "constant": true,
      "inputs": [],
      "name": "totalSupply",
      "outputs": [
        {
          "name": "",
          "type": "uint256"
        }
      ],
      "payable": false,
      "stateMutability": "view",
      "type": "function"
    },
    {
      "constant": true,
      "inputs": [
        {
          "name": "_dogId",
          "type": "uint256"
        }
      ],
      "name": "isPregnant",
      "outputs": [
        {
          "name": "",
          "type": "bool"
        }
      ],
      "payable": false,
      "stateMutability": "view",
      "type": "function"
    },
    {
      "constant": true,
      "inputs": [],
      "name": "GEN0_AUCTION_DURATION",
      "outputs": [
        {
          "name": "",
          "type": "uint256"
        }
      ],
      "payable": false,
      "stateMutability": "view",
      "type": "function"
    },
    {
      "constant": true,
      "inputs": [],
      "name": "siringAuction",
      "outputs": [
        {
          "name": "",
          "type": "address"
        }
      ],
      "payable": false,
      "stateMutability": "view",
      "type": "function"
    },
    {
      "constant": false,
      "inputs": [
        {
          "name": "_from",
          "type": "address"
        },
        {
          "name": "_to",
          "type": "address"
        },
        {
          "name": "_tokenId",
          "type": "uint256"
        }
      ],
      "name": "transferFrom",
      "outputs": [],
      "payable": false,
      "stateMutability": "nonpayable",
      "type": "function"
    },
    {
      "constant": false,
      "inputs": [
        {
          "name": "_address",
          "type": "address"
        }
      ],
      "name": "setGeneScienceAddress",
      "outputs": [],
      "payable": false,
      "stateMutability": "nonpayable",
      "type": "function"
    },
    {
      "constant": false,
      "inputs": [
        {
          "name": "_newCEO",
          "type": "address"
        }
      ],
      "name": "setCEO",
      "outputs": [],
      "payable": false,
      "stateMutability": "nonpayable",
      "type": "function"
    },
    {
      "constant": false,
      "inputs": [
        {
          "name": "_newCOO",
          "type": "address"
        }
      ],
      "name": "setCOO",
      "outputs": [],
      "payable": false,
      "stateMutability": "nonpayable",
      "type": "function"
    },
    {
      "constant": true,
      "inputs": [],
      "name": "pregnantDogs",
      "outputs": [
        {
          "name": "",
          "type": "uint256"
        }
      ],
      "payable": false,
      "stateMutability": "view",
      "type": "function"
    },
    {
      "constant": false,
      "inputs": [
        {
          "name": "_dogId",
          "type": "uint256"
        },
        {
          "name": "_startingPrice",
          "type": "uint256"
        },
        {
          "name": "_endingPrice",
          "type": "uint256"
        },
        {
          "name": "_duration",
          "type": "uint256"
        }
      ],
      "name": "createSaleAuction",
      "outputs": [],
      "payable": false,
      "stateMutability": "nonpayable",
      "type": "function"
    },
    {
      "constant": false,
      "inputs": [],
      "name": "unpause",
      "outputs": [],
      "payable": false,
      "stateMutability": "nonpayable",
      "type": "function"
    },
    {
      "constant": true,
      "inputs": [
        {
          "name": "",
          "type": "uint256"
        }
      ],
      "name": "sireAllowedToAddress",
      "outputs": [
        {
          "name": "",
          "type": "address"
        }
      ],
      "payable": false,
      "stateMutability": "view",
      "type": "function"
    },
    {
      "constant": true,
      "inputs": [
        {
          "name": "_matronId",
          "type": "uint256"
        },
        {
          "name": "_sireId",
          "type": "uint256"
        }
      ],
      "name": "canBreedWith",
      "outputs": [
        {
          "name": "",
          "type": "bool"
        }
      ],
      "payable": false,
      "stateMutability": "view",
      "type": "function"
    },
    {
      "constant": false,
      "inputs": [
        {
          "name": "_dogId",
          "type": "uint256"
        },
        {
          "name": "_startingPrice",
          "type": "uint256"
        },
        {
          "name": "_endingPrice",
          "type": "uint256"
        },
        {
          "name": "_duration",
          "type": "uint256"
        }
      ],
      "name": "createSiringAuction",
      "outputs": [],
      "payable": false,
      "stateMutability": "nonpayable",
      "type": "function"
    },
    {
      "constant": false,
      "inputs": [
        {
          "name": "val",
          "type": "uint256"
        }
      ],
      "name": "setAutoBirthFee",
      "outputs": [],
      "payable": false,
      "stateMutability": "nonpayable",
      "type": "function"
    },
    {
      "constant": false,
      "inputs": [
        {
          "name": "_addr",
          "type": "address"
        },
        {
          "name": "_sireId",
          "type": "uint256"
        }
      ],
      "name": "approveSiring",
      "outputs": [],
      "payable": false,
      "stateMutability": "nonpayable",
      "type": "function"
    },
    {
      "constant": false,
      "inputs": [
        {
          "name": "_newCFO",
          "type": "address"
        }
      ],
      "name": "setCFO",
      "outputs": [],
      "payable": false,
      "stateMutability": "nonpayable",
      "type": "function"
    },
    {
      "constant": false,
      "inputs": [
        {
          "name": "secs",
          "type": "uint256"
        }
      ],
      "name": "setSecondsPerBlock",
      "outputs": [],
      "payable": false,
      "stateMutability": "nonpayable",
      "type": "function"
    },
    {
      "constant": true,
      "inputs": [],
      "name": "paused",
      "outputs": [
        {
          "name": "",
          "type": "bool"
        }
      ],
      "payable": false,
      "stateMutability": "view",
      "type": "function"
    },
    {
      "constant": true,
      "inputs": [
        {
          "name": "_tokenId",
          "type": "uint256"
        }
      ],
      "name": "ownerOf",
      "outputs": [
        {
          "name": "owner",
          "type": "address"
        }
      ],
      "payable": false,
      "stateMutability": "view",
      "type": "function"
    },
    {
      "constant": true,
      "inputs": [],
      "name": "GEN0_CREATION_LIMIT",
      "outputs": [
        {
          "name": "",
          "type": "uint256"
        }
      ],
      "payable": false,
      "stateMutability": "view",
      "type": "function"
    },
    {
      "constant": false,
      "inputs": [
        {
          "name": "_address",
          "type": "address"
        }
      ],
      "name": "setSaleAuctionAddress",
      "outputs": [],
      "payable": false,
      "stateMutability": "nonpayable",
      "type": "function"
    },
    {
      "constant": true,
      "inputs": [
        {
          "name": "_owner",
          "type": "address"
        }
      ],
      "name": "balanceOf",
      "outputs": [
        {
          "name": "count",
          "type": "uint256"
        }
      ],
      "payable": false,
      "stateMutability": "view",
      "type": "function"
    },
    {
      "constant": true,
      "inputs": [],
      "name": "secondsPerBlock",
      "outputs": [
        {
          "name": "",
          "type": "uint256"
        }
      ],
      "payable": false,
      "stateMutability": "view",
      "type": "function"
    },
    {
      "constant": false,
      "inputs": [],
      "name": "pause",
      "outputs": [],
      "payable": false,
      "stateMutability": "nonpayable",
      "type": "function"
    },
    {
      "constant": true,
      "inputs": [
        {
          "name": "_owner",
          "type": "address"
        }
      ],
      "name": "tokensOfOwner",
      "outputs": [
        {
          "name": "ownerTokens",
          "type": "uint256[]"
        }
      ],
      "payable": false,
      "stateMutability": "view",
      "type": "function"
    },
    {
      "constant": false,
      "inputs": [
        {
          "name": "_matronId",
          "type": "uint256"
        }
      ],
      "name": "giveBirth",
      "outputs": [
        {
          "name": "",
          "type": "uint256"
        }
      ],
      "payable": false,
      "stateMutability": "nonpayable",
      "type": "function"
    },
    {
      "constant": true,
      "inputs": [
        {
          "name": "",
          "type": "uint256"
        }
      ],
      "name": "dogIndexToOwner",
      "outputs": [
        {
          "name": "",
          "type": "address"
        }
      ],
      "payable": false,
      "stateMutability": "view",
      "type": "function"
    },
    {
      "constant": false,
      "inputs": [],
      "name": "withdrawAuctionBalances",
      "outputs": [],
      "payable": false,
      "stateMutability": "nonpayable",
      "type": "function"
    },
    {
      "constant": true,
      "inputs": [],
      "name": "symbol",
      "outputs": [
        {
          "name": "",
          "type": "string"
        }
      ],
      "payable": false,
      "stateMutability": "view",
      "type": "function"
    },
    {
      "constant": true,
      "inputs": [
        {
          "name": "",
          "type": "uint256"
        }
      ],
      "name": "cooldowns",
      "outputs": [
        {
          "name": "",
          "type": "uint32"
        }
      ],
      "payable": false,
      "stateMutability": "view",
      "type": "function"
    },
    {
      "constant": false,
      "inputs": [
        {
          "name": "_to",
          "type": "address"
        },
        {
          "name": "_tokenId",
          "type": "uint256"
        }
      ],
      "name": "transfer",
      "outputs": [],
      "payable": false,
      "stateMutability": "nonpayable",
      "type": "function"
    },
    {
      "constant": true,
      "inputs": [],
      "name": "cooAddress",
      "outputs": [
        {
          "name": "",
          "type": "address"
        }
      ],
      "payable": false,
      "stateMutability": "view",
      "type": "function"
    },
    {
      "constant": true,
      "inputs": [],
      "name": "autoBirthFee",
      "outputs": [
        {
          "name": "",
          "type": "uint256"
        }
      ],
      "payable": false,
      "stateMutability": "view",
      "type": "function"
    },
    {
      "constant": true,
      "inputs": [],
      "name": "erc721Metadata",
      "outputs": [
        {
          "name": "",
          "type": "address"
        }
      ],
      "payable": false,
      "stateMutability": "view",
      "type": "function"
    },
    {
      "constant": true,
      "inputs": [
        {
          "name": "_dogId",
          "type": "uint256"
        }
      ],
      "name": "isReadyToBreed",
      "outputs": [
        {
          "name": "",
          "type": "bool"
        }
      ],
      "payable": false,
      "stateMutability": "view",
      "type": "function"
    },
    {
      "constant": true,
      "inputs": [
        {
          "name": "",
          "type": "uint256"
        }
      ],
      "name": "dogIndexToApproved",
      "outputs": [
        {
          "name": "",
          "type": "address"
        }
      ],
      "payable": false,
      "stateMutability": "view",
      "type": "function"
    },
    {
      "constant": true,
      "inputs": [],
      "name": "PROMO_CREATION_LIMIT",
      "outputs": [
        {
          "name": "",
          "type": "uint256"
        }
      ],
      "payable": false,
      "stateMutability": "view",
      "type": "function"
    },
    {
      "constant": false,
      "inputs": [
        {
          "name": "_contractAddress",
          "type": "address"
        }
      ],
      "name": "setMetadataAddress",
      "outputs": [],
      "payable": false,
      "stateMutability": "nonpayable",
      "type": "function"
    },
    {
      "constant": true,
      "inputs": [],
      "name": "saleAuction",
      "outputs": [
        {
          "name": "",
          "type": "address"
        }
      ],
      "payable": false,
      "stateMutability": "view",
      "type": "function"
    },
    {
      "constant": true,
      "inputs": [
        {
          "name": "tokenId",
          "type": "uint256"
        }
      ],
      "name": "owner_Of",
      "outputs": [
        {
          "name": "",
          "type": "address"
        }
      ],
      "payable": false,
      "stateMutability": "view",
      "type": "function"
    },
    {
      "constant": false,
      "inputs": [
        {
          "name": "_sireId",
          "type": "uint256"
        },
        {
          "name": "_matronId",
          "type": "uint256"
        }
      ],
      "name": "bidOnSiringAuction",
      "outputs": [],
      "payable": true,
      "stateMutability": "payable",
      "type": "function"
    },
    {
      "constant": true,
      "inputs": [],
      "name": "gen0CreatedCount",
      "outputs": [
        {
          "name": "",
          "type": "uint256"
        }
      ],
      "payable": false,
      "stateMutability": "view",
      "type": "function"
    },
    {
      "constant": true,
      "inputs": [],
      "name": "geneScience",
      "outputs": [
        {
          "name": "",
          "type": "address"
        }
      ],
      "payable": false,
      "stateMutability": "view",
      "type": "function"
    },
    {
      "constant": false,
      "inputs": [
        {
          "name": "_matronId",
          "type": "uint256"
        },
        {
          "name": "_sireId",
          "type": "uint256"
        }
      ],
      "name": "breedWithAuto",
      "outputs": [],
      "payable": true,
      "stateMutability": "payable",
      "type": "function"
    },
    {
      "anonymous": false,
      "inputs": [
        {
          "indexed": false,
          "name": "owner",
          "type": "address"
        },
        {
          "indexed": false,
          "name": "matronId",
          "type": "uint256"
        },
        {
          "indexed": false,
          "name": "sireId",
          "type": "uint256"
        },
        {
          "indexed": false,
          "name": "cooldownEndBlock",
          "type": "uint256"
        }
      ],
      "name": "Pregnant",
      "type": "event"
    },
    {
      "anonymous": false,
      "inputs": [
        {
          "indexed": false,
          "name": "from",
          "type": "address"
        },
        {
          "indexed": false,
          "name": "to",
          "type": "address"
        },
        {
          "indexed": false,
          "name": "tokenId",
          "type": "uint256"
        }
      ],
      "name": "Transfer",
      "type": "event"
    },
    {
      "anonymous": false,
      "inputs": [
        {
          "indexed": false,
          "name": "owner",
          "type": "address"
        },
        {
          "indexed": false,
          "name": "approved",
          "type": "address"
        },
        {
          "indexed": false,
          "name": "tokenId",
          "type": "uint256"
        }
      ],
      "name": "Approval",
      "type": "event"
    },
    {
      "anonymous": false,
      "inputs": [
        {
          "indexed": false,
          "name": "owner",
          "type": "address"
        },
        {
          "indexed": false,
          "name": "dogId",
          "type": "uint256"
        },
        {
          "indexed": false,
          "name": "matronId",
          "type": "uint256"
        },
        {
          "indexed": false,
          "name": "sireId",
          "type": "uint256"
        },
        {
          "indexed": false,
          "name": "genes",
          "type": "uint256"
        }
      ],
      "name": "Birth",
      "type": "event"
    },
    {
      "anonymous": false,
      "inputs": [
        {
          "indexed": false,
          "name": "newContract",
          "type": "address"
        }
      ],
      "name": "ContractUpgrade",
      "type": "event"
    },
    {
      "constant": false,
      "inputs": [
        {
          "name": "_genes",
          "type": "uint256"
        },
        {
          "name": "_owner",
          "type": "address"
        }
      ],
      "name": "createPromoDog",
      "outputs": [],
      "payable": false,
      "stateMutability": "nonpayable",
      "type": "function"
    },
    {
      "constant": false,
      "inputs": [
        {
          "name": "_genes",
          "type": "uint256"
        }
      ],
      "name": "createGen0Auction",
      "outputs": [],
      "payable": false,
      "stateMutability": "nonpayable",
      "type": "function"
    }
  ],
  "bytecode": "0x60806040526000600260146101000a81548160ff0219169083151502179055506101c060405190810160405280603c63ffffffff1663ffffffff168152602001607863ffffffff1663ffffffff16815260200161012c63ffffffff1663ffffffff16815260200161025863ffffffff1663ffffffff16815260200161070863ffffffff1663ffffffff168152602001610e1063ffffffff1663ffffffff168152602001611c2063ffffffff1663ffffffff16815260200161384063ffffffff1663ffffffff16815260200161708063ffffffff1663ffffffff16815260200161e10063ffffffff1663ffffffff1681526020016201518063ffffffff1663ffffffff1681526020016202a30063ffffffff1663ffffffff1681526020016205460063ffffffff1663ffffffff16815260200162093a8063ffffffff1663ffffffff16815250600390600e620001569291906200017b565b50600f60055566071afd498d0000600f553480156200017457600080fd5b506200025b565b82600e600701600890048101928215620002125791602002820160005b83821115620001de57835183826101000a81548163ffffffff021916908363ffffffff160217905550926020019260040160208160030104928301926001030262000198565b8015620002105782816101000a81549063ffffffff0219169055600401602081600301049283019260010302620001de565b505b50905062000221919062000225565b5090565b6200025891905b808211156200025457600081816101000a81549063ffffffff0219169055506001016200022c565b5090565b90565b614e09806200026b6000396000f30060806040526004361061029e576000357c0100000000000000000000000000000000000000000000000000000000900463ffffffff16806301ffc9a7146102a35780630519ce79146103075780630560ff441461035e57806305e455461461041c57806306fdde0314610447578063095ea7b3146104d75780630a0f8168146105245780630e583df01461057b57806314001f4c146105a657806318160ddd146105e95780631940a9361461061457806319c2f2011461065957806321717ebf1461068457806323b872dd146106db57806324e7a38a1461074857806327d7874c1461078b5780632ba73c15146107ce5780633369c33d146108115780633b8802701461083c5780633d7d3f5a146108895780633f4ba83a146108d457806346116e6f146108eb57806346d22c70146109585780634ad8c938146109a75780634b85fd55146109f25780634dfff04f14610a1f5780634e0a337914610a6c5780635663896e14610aaf5780635c975abb14610adc5780636352211e14610b0b578063680eba2714610b785780636fbde40d14610ba357806370a0823114610be65780637a7d493714610c3d5780638456cb5914610c685780638462151c14610c7f57806388c2a0bf14610d175780638a83603114610d5857806391876e5714610dc557806395d89b4114610ddc5780639d6fac6f14610e6c578063a9059cbb14610eb9578063b047fb5014610f06578063b0c35c0514610f5d578063bc4006f514610f88578063c3bea9af14610fdf578063d3e6f49f1461100c578063d83970a114611051578063defb9584146110be578063e17b25af146110e9578063e6cbe3511461112c578063e756a66c14611183578063ed60ade6146111f0578063f1ca94101461121a578063f2b47d5214611245578063f7d8c8831461129c575b600080fd5b3480156102af57600080fd5b506102ed60048036038101908080357bffffffffffffffffffffffffffffffffffffffffffffffffffffffff191690602001909291905050506112c6565b604051808215151515815260200191505060405180910390f35b34801561031357600080fd5b5061031c6115d7565b604051808273ffffffffffffffffffffffffffffffffffffffff1673ffffffffffffffffffffffffffffffffffffffff16815260200191505060405180910390f35b34801561036a57600080fd5b506103a1600480360381019080803590602001909291908035906020019082018035906020019190919293919293905050506115fd565b6040518080602001828103825283818151815260200191508051906020019080838360005b838110156103e15780820151818401526020810190506103c6565b50505050905090810190601f16801561040e5780820380516001836020036101000a031916815260200191505b509250505060405180910390f35b34801561042857600080fd5b50610431611786565b6040518082815260200191505060405180910390f35b34801561045357600080fd5b5061045c61178c565b6040518080602001828103825283818151815260200191508051906020019080838360005b8381101561049c578082015181840152602081019050610481565b50505050905090810190601f1680156104c95780820380516001836020036101000a031916815260200191505b509250505060405180910390f35b3480156104e357600080fd5b50610522600480360381019080803573ffffffffffffffffffffffffffffffffffffffff169060200190929190803590602001909291905050506117c5565b005b34801561053057600080fd5b506105396118a3565b604051808273ffffffffffffffffffffffffffffffffffffffff1673ffffffffffffffffffffffffffffffffffffffff16815260200191505060405180910390f35b34801561058757600080fd5b506105906118c8565b6040518082815260200191505060405180910390f35b3480156105b257600080fd5b506105e7600480360381019080803573ffffffffffffffffffffffffffffffffffffffff1690602001909291905050506118d3565b005b3480156105f557600080fd5b506105fe611a22565b6040518082815260200191505060405180910390f35b34801561062057600080fd5b5061063f60048036038101908080359060200190929190505050611a32565b604051808215151515815260200191505060405180910390f35b34801561066557600080fd5b5061066e611a84565b6040518082815260200191505060405180910390f35b34801561069057600080fd5b50610699611a8b565b604051808273ffffffffffffffffffffffffffffffffffffffff1673ffffffffffffffffffffffffffffffffffffffff16815260200191505060405180910390f35b3480156106e757600080fd5b50610746600480360381019080803573ffffffffffffffffffffffffffffffffffffffff169060200190929190803573ffffffffffffffffffffffffffffffffffffffff16906020019092919080359060200190929190505050611ab1565b005b34801561075457600080fd5b50610789600480360381019080803573ffffffffffffffffffffffffffffffffffffffff169060200190929190505050611b7e565b005b34801561079757600080fd5b506107cc600480360381019080803573ffffffffffffffffffffffffffffffffffffffff169060200190929190505050611ccd565b005b3480156107da57600080fd5b5061080f600480360381019080803573ffffffffffffffffffffffffffffffffffffffff169060200190929190505050611da7565b005b34801561081d57600080fd5b50610826611e82565b6040518082815260200191505060405180910390f35b34801561084857600080fd5b5061088760048036038101908080359060200190929190803573ffffffffffffffffffffffffffffffffffffffff169060200190929190505050611e88565b005b34801561089557600080fd5b506108d260048036038101908080359060200190929190803590602001909291908035906020019092919080359060200190929190505050611f7d565b005b3480156108e057600080fd5b506108e96120ea565b005b3480156108f757600080fd5b506109166004803603810190808035906020019092919050505061217d565b604051808273ffffffffffffffffffffffffffffffffffffffff1673ffffffffffffffffffffffffffffffffffffffff16815260200191505060405180910390f35b34801561096457600080fd5b5061098d60048036038101908080359060200190929190803590602001909291905050506121b0565b604051808215151515815260200191505060405180910390f35b3480156109b357600080fd5b506109f060048036038101908080359060200190929190803590602001909291908035906020019092919080359060200190929190505050612238565b005b3480156109fe57600080fd5b50610a1d600480360381019080803590602001909291905050506123a4565b005b348015610a2b57600080fd5b50610a6a600480360381019080803573ffffffffffffffffffffffffffffffffffffffff1690602001909291908035906020019092919050505061240a565b005b348015610a7857600080fd5b50610aad600480360381019080803573ffffffffffffffffffffffffffffffffffffffff169060200190929190505050612491565b005b348015610abb57600080fd5b50610ada6004803603810190808035906020019092919050505061256c565b005b348015610ae857600080fd5b50610af16126c0565b604051808215151515815260200191505060405180910390f35b348015610b1757600080fd5b50610b36600480360381019080803590602001909291905050506126d3565b604051808273ffffffffffffffffffffffffffffffffffffffff1673ffffffffffffffffffffffffffffffffffffffff16815260200191505060405180910390f35b348015610b8457600080fd5b50610b8d61274c565b6040518082815260200191505060405180910390f35b348015610baf57600080fd5b50610be4600480360381019080803573ffffffffffffffffffffffffffffffffffffffff169060200190929190505050612752565b005b348015610bf257600080fd5b50610c27600480360381019080803573ffffffffffffffffffffffffffffffffffffffff1690602001909291905050506128a1565b6040518082815260200191505060405180910390f35b348015610c4957600080fd5b50610c526128ea565b6040518082815260200191505060405180910390f35b348015610c7457600080fd5b50610c7d6128f0565b005b348015610c8b57600080fd5b50610cc0600480360381019080803573ffffffffffffffffffffffffffffffffffffffff169060200190929190505050612a34565b6040518080602001828103825283818151815260200191508051906020019060200280838360005b83811015610d03578082015181840152602081019050610ce8565b505050509050019250505060405180910390f35b348015610d2357600080fd5b50610d4260048036038101908080359060200190929190505050612b81565b6040518082815260200191505060405180910390f35b348015610d6457600080fd5b50610d8360048036038101908080359060200190929190505050612fc9565b604051808273ffffffffffffffffffffffffffffffffffffffff1673ffffffffffffffffffffffffffffffffffffffff16815260200191505060405180910390f35b348015610dd157600080fd5b50610dda612ffc565b005b348015610de857600080fd5b50610df1613245565b6040518080602001828103825283818151815260200191508051906020019080838360005b83811015610e31578082015181840152602081019050610e16565b50505050905090810190601f168015610e5e5780820380516001836020036101000a031916815260200191505b509250505060405180910390f35b348015610e7857600080fd5b50610e976004803603810190808035906020019092919050505061327e565b604051808263ffffffff1663ffffffff16815260200191505060405180910390f35b348015610ec557600080fd5b50610f04600480360381019080803573ffffffffffffffffffffffffffffffffffffffff169060200190929190803590602001909291905050506132ad565b005b348015610f1257600080fd5b50610f1b61341e565b604051808273ffffffffffffffffffffffffffffffffffffffff1673ffffffffffffffffffffffffffffffffffffffff16815260200191505060405180910390f35b348015610f6957600080fd5b50610f72613444565b6040518082815260200191505060405180910390f35b348015610f9457600080fd5b50610f9d61344a565b604051808273ffffffffffffffffffffffffffffffffffffffff1673ffffffffffffffffffffffffffffffffffffffff16815260200191505060405180910390f35b348015610feb57600080fd5b5061100a60048036038101908080359060200190929190505050613470565b005b34801561101857600080fd5b5061103760048036038101908080359060200190929190505050613633565b604051808215151515815260200191505060405180910390f35b34801561105d57600080fd5b5061107c600480360381019080803590602001909291905050506137a2565b604051808273ffffffffffffffffffffffffffffffffffffffff1673ffffffffffffffffffffffffffffffffffffffff16815260200191505060405180910390f35b3480156110ca57600080fd5b506110d36137d5565b6040518082815260200191505060405180910390f35b3480156110f557600080fd5b5061112a600480360381019080803573ffffffffffffffffffffffffffffffffffffffff1690602001909291905050506137db565b005b34801561113857600080fd5b5061114161387a565b604051808273ffffffffffffffffffffffffffffffffffffffff1673ffffffffffffffffffffffffffffffffffffffff16815260200191505060405180910390f35b34801561118f57600080fd5b506111ae600480360381019080803590602001909291905050506138a0565b604051808273ffffffffffffffffffffffffffffffffffffffff1673ffffffffffffffffffffffffffffffffffffffff16815260200191505060405180910390f35b611218600480360381019080803590602001909291908035906020019092919050505061391e565b005b34801561122657600080fd5b5061122f613b24565b6040518082815260200191505060405180910390f35b34801561125157600080fd5b5061125a613b2a565b604051808273ffffffffffffffffffffffffffffffffffffffff1673ffffffffffffffffffffffffffffffffffffffff16815260200191505060405180910390f35b6112c46004803603810190808035906020019092919080359060200190929190505050613b50565b005b600060405180807f737570706f727473496e74657266616365286279746573342900000000000000815250601901905060405180910390207bffffffffffffffffffffffffffffffffffffffffffffffffffffffff1916827bffffffffffffffffffffffffffffffffffffffffffffffffffffffff191614806115d0575060405180807f746f6b656e4d657461646174612875696e743235362c737472696e6729000000815250601d019050604051809103902060405180807f746f6b656e734f664f776e6572286164647265737329000000000000000000008152506016019050604051809103902060405180807f7472616e7366657246726f6d28616464726573732c616464726573732c75696e81526020017f74323536290000000000000000000000000000000000000000000000000000008152506025019050604051809103902060405180807f7472616e7366657228616464726573732c75696e7432353629000000000000008152506019019050604051809103902060405180807f617070726f766528616464726573732c75696e743235362900000000000000008152506018019050604051809103902060405180807f6f776e65724f662875696e7432353629000000000000000000000000000000008152506010019050604051809103902060405180807f62616c616e63654f6628616464726573732900000000000000000000000000008152506012019050604051809103902060405180807f746f74616c537570706c79282900000000000000000000000000000000000000815250600d019050604051809103902060405180807f73796d626f6c28290000000000000000000000000000000000000000000000008152506008019050604051809103902060405180807f6e616d6528290000000000000000000000000000000000000000000000000000815250600601905060405180910390201818181818181818187bffffffffffffffffffffffffffffffffffffffffffffffffffffffff1916827bffffffffffffffffffffffffffffffffffffffffffffffffffffffff1916145b9050919050565b600160009054906101000a900473ffffffffffffffffffffffffffffffffffffffff1681565b6060611607614d46565b60008073ffffffffffffffffffffffffffffffffffffffff16600e60009054906101000a900473ffffffffffffffffffffffffffffffffffffffff1673ffffffffffffffffffffffffffffffffffffffff161415151561166657600080fd5b600e60009054906101000a900473ffffffffffffffffffffffffffffffffffffffff1673ffffffffffffffffffffffffffffffffffffffff1663cb4799f28787876040518463ffffffff167c010000000000000000000000000000000000000000000000000000000002815260040180848152602001806020018281038252848482818152602001925080828437820191505094505050505060a060405180830381600087803b15801561171957600080fd5b505af115801561172d573d6000803e3d6000fd5b505050506040513d601f19601f8201168201806040525060a081101561175257600080fd5b8101908091908260800180519060200190929190505050809250819350505061177b8282613e91565b925050509392505050565b60125481565b6040805190810160405280600a81526020017f43727970746f446f67730000000000000000000000000000000000000000000081525081565b600260149054906101000a900460ff161515156117e157600080fd5b6117eb3382613eed565b15156117f657600080fd5b6118008183613f59565b7f8c5be1e5ebec7d5bd14f71427d1e84f3dd0314c0f7b2291e5b200ac8c7c3b925338383604051808473ffffffffffffffffffffffffffffffffffffffff1673ffffffffffffffffffffffffffffffffffffffff1681526020018373ffffffffffffffffffffffffffffffffffffffff1673ffffffffffffffffffffffffffffffffffffffff168152602001828152602001935050505060405180910390a15050565b6000809054906101000a900473ffffffffffffffffffffffffffffffffffffffff1681565b662386f26fc1000081565b60008060009054906101000a900473ffffffffffffffffffffffffffffffffffffffff1673ffffffffffffffffffffffffffffffffffffffff163373ffffffffffffffffffffffffffffffffffffffff1614151561193057600080fd5b8190508073ffffffffffffffffffffffffffffffffffffffff166376190f8f6040518163ffffffff167c0100000000000000000000000000000000000000000000000000000000028152600401602060405180830381600087803b15801561199757600080fd5b505af11580156119ab573d6000803e3d6000fd5b505050506040513d60208110156119c157600080fd5b810190808051906020019092919050505015156119dd57600080fd5b80600c60006101000a81548173ffffffffffffffffffffffffffffffffffffffff021916908373ffffffffffffffffffffffffffffffffffffffff1602179055505050565b6000600160068054905003905090565b60008082111515611a4257600080fd5b6000600683815481101515611a5357fe5b906000526020600020906002020160010160189054906101000a900463ffffffff1663ffffffff1614159050919050565b6201518081565b600c60009054906101000a900473ffffffffffffffffffffffffffffffffffffffff1681565b600260149054906101000a900460ff16151515611acd57600080fd5b600073ffffffffffffffffffffffffffffffffffffffff168273ffffffffffffffffffffffffffffffffffffffff1614151515611b0957600080fd5b3073ffffffffffffffffffffffffffffffffffffffff168273ffffffffffffffffffffffffffffffffffffffff1614151515611b4457600080fd5b611b4e3382613faf565b1515611b5957600080fd5b611b638382613eed565b1515611b6e57600080fd5b611b7983838361401b565b505050565b60008060009054906101000a900473ffffffffffffffffffffffffffffffffffffffff1673ffffffffffffffffffffffffffffffffffffffff163373ffffffffffffffffffffffffffffffffffffffff16141515611bdb57600080fd5b8190508073ffffffffffffffffffffffffffffffffffffffff166354c15b826040518163ffffffff167c0100000000000000000000000000000000000000000000000000000000028152600401602060405180830381600087803b158015611c4257600080fd5b505af1158015611c56573d6000803e3d6000fd5b505050506040513d6020811015611c6c57600080fd5b81019080805190602001909291905050501515611c8857600080fd5b80601160006101000a81548173ffffffffffffffffffffffffffffffffffffffff021916908373ffffffffffffffffffffffffffffffffffffffff1602179055505050565b6000809054906101000a900473ffffffffffffffffffffffffffffffffffffffff1673ffffffffffffffffffffffffffffffffffffffff163373ffffffffffffffffffffffffffffffffffffffff16141515611d2857600080fd5b600073ffffffffffffffffffffffffffffffffffffffff168173ffffffffffffffffffffffffffffffffffffffff1614151515611d6457600080fd5b806000806101000a81548173ffffffffffffffffffffffffffffffffffffffff021916908373ffffffffffffffffffffffffffffffffffffffff16021790555050565b6000809054906101000a900473ffffffffffffffffffffffffffffffffffffffff1673ffffffffffffffffffffffffffffffffffffffff163373ffffffffffffffffffffffffffffffffffffffff16141515611e0257600080fd5b600073ffffffffffffffffffffffffffffffffffffffff168173ffffffffffffffffffffffffffffffffffffffff1614151515611e3e57600080fd5b80600260006101000a81548173ffffffffffffffffffffffffffffffffffffffff021916908373ffffffffffffffffffffffffffffffffffffffff16021790555050565b60105481565b6000600260009054906101000a900473ffffffffffffffffffffffffffffffffffffffff1673ffffffffffffffffffffffffffffffffffffffff163373ffffffffffffffffffffffffffffffffffffffff16141515611ee657600080fd5b819050600073ffffffffffffffffffffffffffffffffffffffff168173ffffffffffffffffffffffffffffffffffffffff161415611f4457600260009054906101000a900473ffffffffffffffffffffffffffffffffffffffff1690505b611388601254101515611f5657600080fd5b601260008154809291906001019190505550611f7760008060008685614253565b50505050565b600260149054906101000a900460ff16151515611f9957600080fd5b611fa33385613eed565b1515611fae57600080fd5b611fb784611a32565b151515611fc357600080fd5b611fef84600b60009054906101000a900473ffffffffffffffffffffffffffffffffffffffff16613f59565b600b60009054906101000a900473ffffffffffffffffffffffffffffffffffffffff1673ffffffffffffffffffffffffffffffffffffffff166327ebe40a85858585336040518663ffffffff167c0100000000000000000000000000000000000000000000000000000000028152600401808681526020018581526020018481526020018381526020018273ffffffffffffffffffffffffffffffffffffffff1673ffffffffffffffffffffffffffffffffffffffff16815260200195505050505050600060405180830381600087803b1580156120cc57600080fd5b505af11580156120e0573d6000803e3d6000fd5b5050505050505050565b6000809054906101000a900473ffffffffffffffffffffffffffffffffffffffff1673ffffffffffffffffffffffffffffffffffffffff163373ffffffffffffffffffffffffffffffffffffffff1614151561214557600080fd5b600260149054906101000a900460ff16151561216057600080fd5b6000600260146101000a81548160ff021916908315150217905550565b600a6020528060005260406000206000915054906101000a900473ffffffffffffffffffffffffffffffffffffffff1681565b600080600080851115156121c357600080fd5b6000841115156121d257600080fd5b6006858154811015156121e157fe5b9060005260206000209060020201915060068481548110151561220057fe5b9060005260206000209060020201905061221c8286838761454a565b801561222e575061222d848661475f565b5b9250505092915050565b600260149054906101000a900460ff1615151561225457600080fd5b61225e3385613eed565b151561226957600080fd5b61227284613633565b151561227d57600080fd5b6122a984600c60009054906101000a900473ffffffffffffffffffffffffffffffffffffffff16613f59565b600c60009054906101000a900473ffffffffffffffffffffffffffffffffffffffff1673ffffffffffffffffffffffffffffffffffffffff166327ebe40a85858585336040518663ffffffff167c0100000000000000000000000000000000000000000000000000000000028152600401808681526020018581526020018481526020018381526020018273ffffffffffffffffffffffffffffffffffffffff1673ffffffffffffffffffffffffffffffffffffffff16815260200195505050505050600060405180830381600087803b15801561238657600080fd5b505af115801561239a573d6000803e3d6000fd5b5050505050505050565b600260009054906101000a900473ffffffffffffffffffffffffffffffffffffffff1673ffffffffffffffffffffffffffffffffffffffff163373ffffffffffffffffffffffffffffffffffffffff1614151561240057600080fd5b80600f8190555050565b600260149054906101000a900460ff1615151561242657600080fd5b6124303382613eed565b151561243b57600080fd5b81600a600083815260200190815260200160002060006101000a81548173ffffffffffffffffffffffffffffffffffffffff021916908373ffffffffffffffffffffffffffffffffffffffff1602179055505050565b6000809054906101000a900473ffffffffffffffffffffffffffffffffffffffff1673ffffffffffffffffffffffffffffffffffffffff163373ffffffffffffffffffffffffffffffffffffffff161415156124ec57600080fd5b600073ffffffffffffffffffffffffffffffffffffffff168173ffffffffffffffffffffffffffffffffffffffff161415151561252857600080fd5b80600160006101000a81548173ffffffffffffffffffffffffffffffffffffffff021916908373ffffffffffffffffffffffffffffffffffffffff16021790555050565b600260009054906101000a900473ffffffffffffffffffffffffffffffffffffffff1673ffffffffffffffffffffffffffffffffffffffff163373ffffffffffffffffffffffffffffffffffffffff16148061261457506000809054906101000a900473ffffffffffffffffffffffffffffffffffffffff1673ffffffffffffffffffffffffffffffffffffffff163373ffffffffffffffffffffffffffffffffffffffff16145b8061266c5750600160009054906101000a900473ffffffffffffffffffffffffffffffffffffffff1673ffffffffffffffffffffffffffffffffffffffff163373ffffffffffffffffffffffffffffffffffffffff16145b151561267757600080fd5b60036000600e8110151561268757fe5b600891828204019190066004029054906101000a900463ffffffff1663ffffffff16811015156126b657600080fd5b8060058190555050565b600260149054906101000a900460ff1681565b60006007600083815260200190815260200160002060009054906101000a900473ffffffffffffffffffffffffffffffffffffffff169050600073ffffffffffffffffffffffffffffffffffffffff168173ffffffffffffffffffffffffffffffffffffffff161415151561274757600080fd5b919050565b61afc881565b60008060009054906101000a900473ffffffffffffffffffffffffffffffffffffffff1673ffffffffffffffffffffffffffffffffffffffff163373ffffffffffffffffffffffffffffffffffffffff161415156127af57600080fd5b8190508073ffffffffffffffffffffffffffffffffffffffff166385b861886040518163ffffffff167c0100000000000000000000000000000000000000000000000000000000028152600401602060405180830381600087803b15801561281657600080fd5b505af115801561282a573d6000803e3d6000fd5b505050506040513d602081101561284057600080fd5b8101908080519060200190929190505050151561285c57600080fd5b80600b60006101000a81548173ffffffffffffffffffffffffffffffffffffffff021916908373ffffffffffffffffffffffffffffffffffffffff1602179055505050565b6000600860008373ffffffffffffffffffffffffffffffffffffffff1673ffffffffffffffffffffffffffffffffffffffff168152602001908152602001600020549050919050565b60055481565b600260009054906101000a900473ffffffffffffffffffffffffffffffffffffffff1673ffffffffffffffffffffffffffffffffffffffff163373ffffffffffffffffffffffffffffffffffffffff16148061299857506000809054906101000a900473ffffffffffffffffffffffffffffffffffffffff1673ffffffffffffffffffffffffffffffffffffffff163373ffffffffffffffffffffffffffffffffffffffff16145b806129f05750600160009054906101000a900473ffffffffffffffffffffffffffffffffffffffff1673ffffffffffffffffffffffffffffffffffffffff163373ffffffffffffffffffffffffffffffffffffffff16145b15156129fb57600080fd5b600260149054906101000a900460ff16151515612a1757600080fd5b6001600260146101000a81548160ff021916908315150217905550565b6060600060606000806000612a48876128a1565b94506000851415612a8b576000604051908082528060200260200182016040528015612a835781602001602082028038833980820191505090505b509550612b77565b84604051908082528060200260200182016040528015612aba5781602001602082028038833980820191505090505b509350612ac5611a22565b925060009150600190505b8281111515612b73578673ffffffffffffffffffffffffffffffffffffffff166007600083815260200190815260200160002060009054906101000a900473ffffffffffffffffffffffffffffffffffffffff1673ffffffffffffffffffffffffffffffffffffffff161415612b6657808483815181101515612b4f57fe5b906020019060200201818152505081806001019250505b8080600101915050612ad0565b8395505b5050505050919050565b600080600080600080600080600260149054906101000a900460ff16151515612ba957600080fd5b600689815481101515612bb857fe5b9060005260206000209060020201965060008760010160009054906101000a900467ffffffffffffffff1667ffffffffffffffff1614151515612bfa57600080fd5b612d30876101006040519081016040529081600082015481526020016001820160009054906101000a900467ffffffffffffffff1667ffffffffffffffff1667ffffffffffffffff1681526020016001820160089054906101000a900467ffffffffffffffff1667ffffffffffffffff1667ffffffffffffffff1681526020016001820160109054906101000a900463ffffffff1663ffffffff1663ffffffff1681526020016001820160149054906101000a900463ffffffff1663ffffffff1663ffffffff1681526020016001820160189054906101000a900463ffffffff1663ffffffff1663ffffffff16815260200160018201601c9054906101000a900461ffff1661ffff1661ffff16815260200160018201601e9054906101000a900461ffff1661ffff1661ffff1681525050614872565b1515612d3b57600080fd5b8660010160189054906101000a900463ffffffff1663ffffffff169550600686815481101515612d6757fe5b9060005260206000209060020201945086600101601e9054906101000a900461ffff16935086600101601e9054906101000a900461ffff1661ffff1685600101601e9054906101000a900461ffff1661ffff161115612dd65784600101601e9054906101000a900461ffff1693505b601160009054906101000a900473ffffffffffffffffffffffffffffffffffffffff1673ffffffffffffffffffffffffffffffffffffffff16630d9f5aed8860000154876000015460018b60010160089054906101000a900467ffffffffffffffff16036040518463ffffffff167c0100000000000000000000000000000000000000000000000000000000028152600401808481526020018381526020018267ffffffffffffffff1681526020019350505050602060405180830381600087803b158015612ea457600080fd5b505af1158015612eb8573d6000803e3d6000fd5b505050506040513d6020811015612ece57600080fd5b81019080805190602001909291905050509250600760008a815260200190815260200160002060009054906101000a900473ffffffffffffffffffffffffffffffffffffffff169150612f45898860010160189054906101000a900463ffffffff1663ffffffff166001870161ffff168686614253565b90508660010160186101000a81549063ffffffff0219169055601060008154809291906001900391905055503373ffffffffffffffffffffffffffffffffffffffff166108fc600f549081150290604051600060405180830381858888f19350505050158015612fb9573d6000803e3d6000fd5b5080975050505050505050919050565b60076020528060005260406000206000915054906101000a900473ffffffffffffffffffffffffffffffffffffffff1681565b600260009054906101000a900473ffffffffffffffffffffffffffffffffffffffff1673ffffffffffffffffffffffffffffffffffffffff163373ffffffffffffffffffffffffffffffffffffffff1614806130a457506000809054906101000a900473ffffffffffffffffffffffffffffffffffffffff1673ffffffffffffffffffffffffffffffffffffffff163373ffffffffffffffffffffffffffffffffffffffff16145b806130fc5750600160009054906101000a900473ffffffffffffffffffffffffffffffffffffffff1673ffffffffffffffffffffffffffffffffffffffff163373ffffffffffffffffffffffffffffffffffffffff16145b151561310757600080fd5b600b60009054906101000a900473ffffffffffffffffffffffffffffffffffffffff1673ffffffffffffffffffffffffffffffffffffffff16635fd8c7106040518163ffffffff167c0100000000000000000000000000000000000000000000000000000000028152600401600060405180830381600087803b15801561318d57600080fd5b505af11580156131a1573d6000803e3d6000fd5b50505050600c60009054906101000a900473ffffffffffffffffffffffffffffffffffffffff1673ffffffffffffffffffffffffffffffffffffffff16635fd8c7106040518163ffffffff167c0100000000000000000000000000000000000000000000000000000000028152600401600060405180830381600087803b15801561322b57600080fd5b505af115801561323f573d6000803e3d6000fd5b50505050565b6040805190810160405280600281526020017f434400000000000000000000000000000000000000000000000000000000000081525081565b600381600e8110151561328d57fe5b60089182820401919006600402915054906101000a900463ffffffff1681565b600260149054906101000a900460ff161515156132c957600080fd5b600073ffffffffffffffffffffffffffffffffffffffff168273ffffffffffffffffffffffffffffffffffffffff161415151561330557600080fd5b3073ffffffffffffffffffffffffffffffffffffffff168273ffffffffffffffffffffffffffffffffffffffff161415151561334057600080fd5b600b60009054906101000a900473ffffffffffffffffffffffffffffffffffffffff1673ffffffffffffffffffffffffffffffffffffffff168273ffffffffffffffffffffffffffffffffffffffff161415151561339d57600080fd5b600c60009054906101000a900473ffffffffffffffffffffffffffffffffffffffff1673ffffffffffffffffffffffffffffffffffffffff168273ffffffffffffffffffffffffffffffffffffffff16141515156133fa57600080fd5b6134043382613eed565b151561340f57600080fd5b61341a33838361401b565b5050565b600260009054906101000a900473ffffffffffffffffffffffffffffffffffffffff1681565b600f5481565b600e60009054906101000a900473ffffffffffffffffffffffffffffffffffffffff1681565b6000600260009054906101000a900473ffffffffffffffffffffffffffffffffffffffff1673ffffffffffffffffffffffffffffffffffffffff163373ffffffffffffffffffffffffffffffffffffffff161415156134ce57600080fd5b61afc86013541015156134e057600080fd5b6134ef60008060008530614253565b905061351d81600b60009054906101000a900473ffffffffffffffffffffffffffffffffffffffff16613f59565b600b60009054906101000a900473ffffffffffffffffffffffffffffffffffffffff1673ffffffffffffffffffffffffffffffffffffffff166327ebe40a826135646148ad565b600062015180306040518663ffffffff167c0100000000000000000000000000000000000000000000000000000000028152600401808681526020018581526020018481526020018381526020018273ffffffffffffffffffffffffffffffffffffffff1673ffffffffffffffffffffffffffffffffffffffff16815260200195505050505050600060405180830381600087803b15801561360557600080fd5b505af1158015613619573d6000803e3d6000fd5b505050506013600081548092919060010191905055505050565b60008060008311151561364557600080fd5b60068381548110151561365457fe5b9060005260206000209060020201905061379a816101006040519081016040529081600082015481526020016001820160009054906101000a900467ffffffffffffffff1667ffffffffffffffff1667ffffffffffffffff1681526020016001820160089054906101000a900467ffffffffffffffff1667ffffffffffffffff1667ffffffffffffffff1681526020016001820160109054906101000a900463ffffffff1663ffffffff1663ffffffff1681526020016001820160149054906101000a900463ffffffff1663ffffffff1663ffffffff1681526020016001820160189054906101000a900463ffffffff1663ffffffff1663ffffffff16815260200160018201601c9054906101000a900461ffff1661ffff1661ffff16815260200160018201601e9054906101000a900461ffff1661ffff1661ffff16815250506149c8565b915050919050565b60096020528060005260406000206000915054906101000a900473ffffffffffffffffffffffffffffffffffffffff1681565b61138881565b6000809054906101000a900473ffffffffffffffffffffffffffffffffffffffff1673ffffffffffffffffffffffffffffffffffffffff163373ffffffffffffffffffffffffffffffffffffffff1614151561383657600080fd5b80600e60006101000a81548173ffffffffffffffffffffffffffffffffffffffff021916908373ffffffffffffffffffffffffffffffffffffffff16021790555050565b600b60009054906101000a900473ffffffffffffffffffffffffffffffffffffffff1681565b600080600d600084815260200190815260200160002060009054906101000a900473ffffffffffffffffffffffffffffffffffffffff169050600073ffffffffffffffffffffffffffffffffffffffff168173ffffffffffffffffffffffffffffffffffffffff161415151561391557600080fd5b80915050919050565b6000600260149054906101000a900460ff1615151561393c57600080fd5b6139463383613eed565b151561395157600080fd5b61395a82613633565b151561396557600080fd5b61396f8284614a02565b151561397a57600080fd5b600c60009054906101000a900473ffffffffffffffffffffffffffffffffffffffff1673ffffffffffffffffffffffffffffffffffffffff1663c55d0f56846040518263ffffffff167c010000000000000000000000000000000000000000000000000000000002815260040180828152602001915050602060405180830381600087803b158015613a0b57600080fd5b505af1158015613a1f573d6000803e3d6000fd5b505050506040513d6020811015613a3557600080fd5b81019080805190602001909291905050509050600f5481013410151515613a5b57600080fd5b600c60009054906101000a900473ffffffffffffffffffffffffffffffffffffffff1673ffffffffffffffffffffffffffffffffffffffff1663454a2ab3600f543403856040518363ffffffff167c0100000000000000000000000000000000000000000000000000000000028152600401808281526020019150506000604051808303818588803b158015613af057600080fd5b505af1158015613b04573d6000803e3d6000fd5b5050505050613b1f8263ffffffff168463ffffffff16614a5b565b505050565b60135481565b601160009054906101000a900473ffffffffffffffffffffffffffffffffffffffff1681565b600080600260149054906101000a900460ff16151515613b6f57600080fd5b600f543410151515613b8057600080fd5b613b8a3385613eed565b1515613b9557600080fd5b613b9f838561475f565b1515613baa57600080fd5b600684815481101515613bb957fe5b90600052602060002090600202019150613cff826101006040519081016040529081600082015481526020016001820160009054906101000a900467ffffffffffffffff1667ffffffffffffffff1667ffffffffffffffff1681526020016001820160089054906101000a900467ffffffffffffffff1667ffffffffffffffff1667ffffffffffffffff1681526020016001820160109054906101000a900463ffffffff1663ffffffff1663ffffffff1681526020016001820160149054906101000a900463ffffffff1663ffffffff1663ffffffff1681526020016001820160189054906101000a900463ffffffff1663ffffffff1663ffffffff16815260200160018201601c9054906101000a900461ffff1661ffff1661ffff16815260200160018201601e9054906101000a900461ffff1661ffff1661ffff16815250506149c8565b1515613d0a57600080fd5b600683815481101515613d1957fe5b90600052602060002090600202019050613e5f816101006040519081016040529081600082015481526020016001820160009054906101000a900467ffffffffffffffff1667ffffffffffffffff1667ffffffffffffffff1681526020016001820160089054906101000a900467ffffffffffffffff1667ffffffffffffffff1667ffffffffffffffff1681526020016001820160109054906101000a900463ffffffff1663ffffffff1663ffffffff1681526020016001820160149054906101000a900463ffffffff1663ffffffff1663ffffffff1681526020016001820160189054906101000a900463ffffffff1663ffffffff1663ffffffff16815260200160018201601c9054906101000a900461ffff1661ffff1661ffff16815260200160018201601e9054906101000a900461ffff1661ffff1661ffff16815250506149c8565b1515613e6a57600080fd5b613e768285838661454a565b1515613e8157600080fd5b613e8b8484614a5b565b50505050565b606080600080846040519080825280601f01601f191660200182016040528015613eca5781602001602082028038833980820191505090505b509250602083019150859050613ee1828287614c25565b82935050505092915050565b60008273ffffffffffffffffffffffffffffffffffffffff166007600084815260200190815260200160002060009054906101000a900473ffffffffffffffffffffffffffffffffffffffff1673ffffffffffffffffffffffffffffffffffffffff1614905092915050565b806009600084815260200190815260200160002060006101000a81548173ffffffffffffffffffffffffffffffffffffffff021916908373ffffffffffffffffffffffffffffffffffffffff1602179055505050565b60008273ffffffffffffffffffffffffffffffffffffffff166009600084815260200190815260200160002060009054906101000a900473ffffffffffffffffffffffffffffffffffffffff1673ffffffffffffffffffffffffffffffffffffffff1614905092915050565b600860008373ffffffffffffffffffffffffffffffffffffffff1673ffffffffffffffffffffffffffffffffffffffff16815260200190815260200160002060008154809291906001019190505550816007600083815260200190815260200160002060006101000a81548173ffffffffffffffffffffffffffffffffffffffff021916908373ffffffffffffffffffffffffffffffffffffffff160217905550600073ffffffffffffffffffffffffffffffffffffffff168373ffffffffffffffffffffffffffffffffffffffff161415156141af57600860008473ffffffffffffffffffffffffffffffffffffffff1673ffffffffffffffffffffffffffffffffffffffff1681526020019081526020016000206000815480929190600190039190505550600a600082815260200190815260200160002060006101000a81549073ffffffffffffffffffffffffffffffffffffffff02191690556009600082815260200190815260200160002060006101000a81549073ffffffffffffffffffffffffffffffffffffffff02191690555b7fddf252ad1be2c89b69c2b068fc378daa952ba7f163c4a11628f55a4df523b3ef838383604051808473ffffffffffffffffffffffffffffffffffffffff1673ffffffffffffffffffffffffffffffffffffffff1681526020018373ffffffffffffffffffffffffffffffffffffffff1673ffffffffffffffffffffffffffffffffffffffff168152602001828152602001935050505060405180910390a1505050565b60008061425e614d69565b60008863ffffffff168914151561427457600080fd5b8763ffffffff168814151561428857600080fd5b8661ffff168714151561429a57600080fd5b6002878115156142a657fe5b049250600d8361ffff1611156142bb57600d92505b610100604051908101604052808781526020014267ffffffffffffffff168152602001600067ffffffffffffffff1681526020018a63ffffffff1681526020018963ffffffff168152602001600063ffffffff1681526020018461ffff1681526020018861ffff1681525091506001600683908060018154018082558091505090600182039060005260206000209060020201600090919290919091506000820151816000015560208201518160010160006101000a81548167ffffffffffffffff021916908367ffffffffffffffff16021790555060408201518160010160086101000a81548167ffffffffffffffff021916908367ffffffffffffffff16021790555060608201518160010160106101000a81548163ffffffff021916908363ffffffff16021790555060808201518160010160146101000a81548163ffffffff021916908363ffffffff16021790555060a08201518160010160186101000a81548163ffffffff021916908363ffffffff16021790555060c082015181600101601c6101000a81548161ffff021916908361ffff16021790555060e082015181600101601e6101000a81548161ffff021916908361ffff16021790555050500390508063ffffffff168114151561449457600080fd5b7f0a5311bd2a6608f08a180df2ee7c5946819a649b204b554bb8e39825b2c50ad58582846060015163ffffffff16856080015163ffffffff168660000151604051808673ffffffffffffffffffffffffffffffffffffffff1673ffffffffffffffffffffffffffffffffffffffff1681526020018581526020018481526020018381526020018281526020019550505050505060405180910390a161453b6000868361401b565b80935050505095945050505050565b60008184141561455d5760009050614757565b818560010160109054906101000a900463ffffffff1663ffffffff16148061459e5750818560010160149054906101000a900463ffffffff1663ffffffff16145b156145ac5760009050614757565b838360010160109054906101000a900463ffffffff1663ffffffff1614806145ed5750838360010160149054906101000a900463ffffffff1663ffffffff16145b156145fb5760009050614757565b60008360010160109054906101000a900463ffffffff1663ffffffff16148061463e575060008560010160109054906101000a900463ffffffff1663ffffffff16145b1561464c5760019050614757565b8460010160109054906101000a900463ffffffff1663ffffffff168360010160109054906101000a900463ffffffff1663ffffffff1614806146c157508460010160149054906101000a900463ffffffff1663ffffffff168360010160109054906101000a900463ffffffff1663ffffffff16145b156146cf5760009050614757565b8460010160109054906101000a900463ffffffff1663ffffffff168360010160149054906101000a900463ffffffff1663ffffffff16148061474457508460010160149054906101000a900463ffffffff1663ffffffff168360010160149054906101000a900463ffffffff1663ffffffff16145b156147525760009050614757565b600190505b949350505050565b60008060006007600085815260200190815260200160002060009054906101000a900473ffffffffffffffffffffffffffffffffffffffff1691506007600086815260200190815260200160002060009054906101000a900473ffffffffffffffffffffffffffffffffffffffff1690508073ffffffffffffffffffffffffffffffffffffffff168273ffffffffffffffffffffffffffffffffffffffff16148061486857508173ffffffffffffffffffffffffffffffffffffffff16600a600087815260200190815260200160002060009054906101000a900473ffffffffffffffffffffffffffffffffffffffff1673ffffffffffffffffffffffffffffffffffffffff16145b9250505092915050565b6000808260a0015163ffffffff16141580156148a657504367ffffffffffffffff16826040015167ffffffffffffffff1611155b9050919050565b6000806000600b60009054906101000a900473ffffffffffffffffffffffffffffffffffffffff1673ffffffffffffffffffffffffffffffffffffffff1663eac9d94c6040518163ffffffff167c0100000000000000000000000000000000000000000000000000000000028152600401602060405180830381600087803b15801561493857600080fd5b505af115801561494c573d6000803e3d6000fd5b505050506040513d602081101561496257600080fd5b81019080805190602001909291905050509150816fffffffffffffffffffffffffffffffff168214151561499557600080fd5b6002828115156149a157fe5b0482019050662386f26fc100008110156149c057662386f26fc1000090505b809250505090565b6000808260a0015163ffffffff161480156149fb57504367ffffffffffffffff16826040015167ffffffffffffffff1611155b9050919050565b6000806000600685815481101515614a1657fe5b90600052602060002090600202019150600684815481101515614a3557fe5b90600052602060002090600202019050614a518286838761454a565b9250505092915050565b600080600683815481101515614a6d57fe5b90600052602060002090600202019150600684815481101515614a8c57fe5b90600052602060002090600202019050828160010160186101000a81548163ffffffff021916908363ffffffff160217905550614ac882614c70565b614ad181614c70565b600a600085815260200190815260200160002060006101000a81549073ffffffffffffffffffffffffffffffffffffffff0219169055600a600084815260200190815260200160002060006101000a81549073ffffffffffffffffffffffffffffffffffffffff02191690556010600081548092919060010191905055507f241ea03ca20251805084d27d4440371c34a0b85ff108f6bb5611248f73818b806007600086815260200190815260200160002060009054906101000a900473ffffffffffffffffffffffffffffffffffffffff1685858460010160089054906101000a900467ffffffffffffffff16604051808573ffffffffffffffffffffffffffffffffffffffff1673ffffffffffffffffffffffffffffffffffffffff1681526020018481526020018381526020018267ffffffffffffffff16815260200194505050505060405180910390a150505050565b60005b602082101515614c4d5782518452602084019350602083019250602082039150614c28565b6001826020036101000a0390508019835116818551168181178652505050505050565b43600554600383600101601c9054906101000a900461ffff1661ffff16600e81101515614c9957fe5b600891828204019190066004029054906101000a900463ffffffff1663ffffffff16811515614cc457fe5b04018160010160086101000a81548167ffffffffffffffff021916908367ffffffffffffffff160217905550600d81600101601c9054906101000a900461ffff1661ffff161015614d4357600181600101601c8282829054906101000a900461ffff160192506101000a81548161ffff021916908361ffff1602179055505b50565b608060405190810160405280600490602082028038833980820191505090505090565b6101006040519081016040528060008152602001600067ffffffffffffffff168152602001600067ffffffffffffffff168152602001600063ffffffff168152602001600063ffffffff168152602001600063ffffffff168152602001600061ffff168152602001600061ffff16815250905600a165627a7a72305820d36bc2c0cf953df21d4299b0e0b14f5dc0b3148aeeb320024accbe96b3714e290029",
  "source": "// CryptoKitties Source code\r\n// Copied from: https://etherscan.io/address/0x06012c8cf97bead5deae237070f9587f8e7a266d#code\r\n\r\npragma solidity ^0.4.25;\r\n\r\nimport \"./DogAuction.sol\";\r\n\r\n\r\n\r\n\r\n/// @title all functions related to creating kittens\r\ncontract DogMinting is DogAuction {\r\n\r\n    // Limits the number of cats the contract owner can ever create.\r\n    uint256 public constant PROMO_CREATION_LIMIT = 5000;\r\n    uint256 public constant GEN0_CREATION_LIMIT = 45000;\r\n\r\n    // Constants for gen0 auctions.\r\n    uint256 public constant GEN0_STARTING_PRICE = 10 finney;\r\n    uint256 public constant GEN0_AUCTION_DURATION = 1 days;\r\n\r\n    // Counts the number of cats the contract owner has created.\r\n    uint256 public promoCreatedCount;\r\n    uint256 public gen0CreatedCount;\r\n\r\n    /// @dev we can create promo kittens, up to a limit. Only callable by COO\r\n    /// @param _genes the encoded genes of the kitten to be created, any value is accepted\r\n    /// @param _owner the future owner of the created kittens. Default to contract COO\r\n    function createPromoDog(uint256 _genes, address _owner) external onlyCOO {\r\n        address dogOwner = _owner;\r\n        if (dogOwner == address(0)) {\r\n             dogOwner = cooAddress;\r\n        }\r\n        require(promoCreatedCount < PROMO_CREATION_LIMIT);\r\n\r\n        promoCreatedCount++;\r\n        _createDog(0, 0, 0, _genes, dogOwner);\r\n    }\r\n\r\n    /// @dev Creates a new gen0 kitty with the given genes and\r\n    ///  creates an auction for it.\r\n    function createGen0Auction(uint256 _genes) external onlyCOO {\r\n        require(gen0CreatedCount < GEN0_CREATION_LIMIT);\r\n\r\n        uint256 dogId = _createDog(0, 0, 0, _genes, address(this));\r\n        _approve(dogId, saleAuction);\r\n\r\n        saleAuction.createAuction(\r\n            dogId,\r\n            _computeNextGen0Price(),\r\n            0,\r\n            GEN0_AUCTION_DURATION,\r\n            address(this)\r\n        );\r\n\r\n        gen0CreatedCount++;\r\n    }\r\n\r\n    /// @dev Computes the next gen0 auction starting price, given\r\n    ///  the average of the past 5 prices + 50%.\r\n    function _computeNextGen0Price() internal view returns (uint256) {\r\n        uint256 avePrice = saleAuction.averageGen0SalePrice();\r\n\r\n        // Sanity check to ensure we don't overflow arithmetic\r\n        require(avePrice == uint256(uint128(avePrice)));\r\n\r\n        uint256 nextPrice = avePrice + (avePrice / 2);\r\n\r\n        // We never auction for less than starting price\r\n        if (nextPrice < GEN0_STARTING_PRICE) {\r\n            nextPrice = GEN0_STARTING_PRICE;\r\n        }\r\n\r\n        return nextPrice;\r\n    }\r\n}",
  "sourcePath": "C:\\Users\\CTrov\\OneDrive\\Documents\\ESILV\\BLOCKCHAIN PROGRAMMING\\Blockchain_Programming_TD6\\contracts\\DogMinting.sol",
  "compiler": {
    "name": "solc",
    "version": "0.4.25+commit.59dbf8f1.Emscripten.clang"
  },
  "schemaVersion": "2.0.2",
  "updatedAt": "2019-03-17T15:05:22.060Z"
}