{
  "contractName": "DogOwnership",
  "abi": [
    {
      "constant": true,
      "inputs": [],
      "name": "cfoAddress",
      "outputs": [
        {
          "name": "",
          "type": "address"
        }
      ],
      "payable": false,
      "stateMutability": "view",
      "type": "function"
    },
    {
      "constant": true,
      "inputs": [],
      "name": "name",
      "outputs": [
        {
          "name": "",
          "type": "string"
        }
      ],
      "payable": false,
      "stateMutability": "view",
      "type": "function"
    },
    {
      "constant": true,
      "inputs": [],
      "name": "ceoAddress",
      "outputs": [
        {
          "name": "",
          "type": "address"
        }
      ],
      "payable": false,
      "stateMutability": "view",
      "type": "function"
    },
    {
      "constant": true,
      "inputs": [],
      "name": "siringAuction",
      "outputs": [
        {
          "name": "",
          "type": "address"
        }
      ],
      "payable": false,
      "stateMutability": "view",
      "type": "function"
    },
    {
      "constant": false,
      "inputs": [
        {
          "name": "_newCEO",
          "type": "address"
        }
      ],
      "name": "setCEO",
      "outputs": [],
      "payable": false,
      "stateMutability": "nonpayable",
      "type": "function"
    },
    {
      "constant": false,
      "inputs": [
        {
          "name": "_newCOO",
          "type": "address"
        }
      ],
      "name": "setCOO",
      "outputs": [],
      "payable": false,
      "stateMutability": "nonpayable",
      "type": "function"
    },
    {
      "constant": false,
      "inputs": [],
      "name": "unpause",
      "outputs": [],
      "payable": false,
      "stateMutability": "nonpayable",
      "type": "function"
    },
    {
      "constant": true,
      "inputs": [
        {
          "name": "",
          "type": "uint256"
        }
      ],
      "name": "sireAllowedToAddress",
      "outputs": [
        {
          "name": "",
          "type": "address"
        }
      ],
      "payable": false,
      "stateMutability": "view",
      "type": "function"
    },
    {
      "constant": false,
      "inputs": [
        {
          "name": "_newCFO",
          "type": "address"
        }
      ],
      "name": "setCFO",
      "outputs": [],
      "payable": false,
      "stateMutability": "nonpayable",
      "type": "function"
    },
    {
      "constant": false,
      "inputs": [
        {
          "name": "secs",
          "type": "uint256"
        }
      ],
      "name": "setSecondsPerBlock",
      "outputs": [],
      "payable": false,
      "stateMutability": "nonpayable",
      "type": "function"
    },
    {
      "constant": true,
      "inputs": [],
      "name": "paused",
      "outputs": [
        {
          "name": "",
          "type": "bool"
        }
      ],
      "payable": false,
      "stateMutability": "view",
      "type": "function"
    },
    {
      "constant": true,
      "inputs": [],
      "name": "secondsPerBlock",
      "outputs": [
        {
          "name": "",
          "type": "uint256"
        }
      ],
      "payable": false,
      "stateMutability": "view",
      "type": "function"
    },
    {
      "constant": false,
      "inputs": [],
      "name": "pause",
      "outputs": [],
      "payable": false,
      "stateMutability": "nonpayable",
      "type": "function"
    },
    {
      "constant": true,
      "inputs": [
        {
          "name": "",
          "type": "uint256"
        }
      ],
      "name": "dogIndexToOwner",
      "outputs": [
        {
          "name": "",
          "type": "address"
        }
      ],
      "payable": false,
      "stateMutability": "view",
      "type": "function"
    },
    {
      "constant": true,
      "inputs": [],
      "name": "symbol",
      "outputs": [
        {
          "name": "",
          "type": "string"
        }
      ],
      "payable": false,
      "stateMutability": "view",
      "type": "function"
    },
    {
      "constant": true,
      "inputs": [
        {
          "name": "",
          "type": "uint256"
        }
      ],
      "name": "cooldowns",
      "outputs": [
        {
          "name": "",
          "type": "uint32"
        }
      ],
      "payable": false,
      "stateMutability": "view",
      "type": "function"
    },
    {
      "constant": true,
      "inputs": [],
      "name": "cooAddress",
      "outputs": [
        {
          "name": "",
          "type": "address"
        }
      ],
      "payable": false,
      "stateMutability": "view",
      "type": "function"
    },
    {
      "constant": true,
      "inputs": [],
      "name": "erc721Metadata",
      "outputs": [
        {
          "name": "",
          "type": "address"
        }
      ],
      "payable": false,
      "stateMutability": "view",
      "type": "function"
    },
    {
      "constant": true,
      "inputs": [
        {
          "name": "",
          "type": "uint256"
        }
      ],
      "name": "dogIndexToApproved",
      "outputs": [
        {
          "name": "",
          "type": "address"
        }
      ],
      "payable": false,
      "stateMutability": "view",
      "type": "function"
    },
    {
      "constant": true,
      "inputs": [],
      "name": "saleAuction",
      "outputs": [
        {
          "name": "",
          "type": "address"
        }
      ],
      "payable": false,
      "stateMutability": "view",
      "type": "function"
    },
    {
      "constant": true,
      "inputs": [
        {
          "name": "tokenId",
          "type": "uint256"
        }
      ],
      "name": "owner_Of",
      "outputs": [
        {
          "name": "",
          "type": "address"
        }
      ],
      "payable": false,
      "stateMutability": "view",
      "type": "function"
    },
    {
      "anonymous": false,
      "inputs": [
        {
          "indexed": false,
          "name": "from",
          "type": "address"
        },
        {
          "indexed": false,
          "name": "to",
          "type": "address"
        },
        {
          "indexed": false,
          "name": "tokenId",
          "type": "uint256"
        }
      ],
      "name": "Transfer",
      "type": "event"
    },
    {
      "anonymous": false,
      "inputs": [
        {
          "indexed": false,
          "name": "owner",
          "type": "address"
        },
        {
          "indexed": false,
          "name": "approved",
          "type": "address"
        },
        {
          "indexed": false,
          "name": "tokenId",
          "type": "uint256"
        }
      ],
      "name": "Approval",
      "type": "event"
    },
    {
      "anonymous": false,
      "inputs": [
        {
          "indexed": false,
          "name": "owner",
          "type": "address"
        },
        {
          "indexed": false,
          "name": "dogId",
          "type": "uint256"
        },
        {
          "indexed": false,
          "name": "matronId",
          "type": "uint256"
        },
        {
          "indexed": false,
          "name": "sireId",
          "type": "uint256"
        },
        {
          "indexed": false,
          "name": "genes",
          "type": "uint256"
        }
      ],
      "name": "Birth",
      "type": "event"
    },
    {
      "anonymous": false,
      "inputs": [
        {
          "indexed": false,
          "name": "newContract",
          "type": "address"
        }
      ],
      "name": "ContractUpgrade",
      "type": "event"
    },
    {
      "constant": true,
      "inputs": [
        {
          "name": "_interfaceID",
          "type": "bytes4"
        }
      ],
      "name": "supportsInterface",
      "outputs": [
        {
          "name": "",
          "type": "bool"
        }
      ],
      "payable": false,
      "stateMutability": "view",
      "type": "function"
    },
    {
      "constant": false,
      "inputs": [
        {
          "name": "_contractAddress",
          "type": "address"
        }
      ],
      "name": "setMetadataAddress",
      "outputs": [],
      "payable": false,
      "stateMutability": "nonpayable",
      "type": "function"
    },
    {
      "constant": true,
      "inputs": [
        {
          "name": "_owner",
          "type": "address"
        }
      ],
      "name": "balanceOf",
      "outputs": [
        {
          "name": "count",
          "type": "uint256"
        }
      ],
      "payable": false,
      "stateMutability": "view",
      "type": "function"
    },
    {
      "constant": false,
      "inputs": [
        {
          "name": "_to",
          "type": "address"
        },
        {
          "name": "_tokenId",
          "type": "uint256"
        }
      ],
      "name": "transfer",
      "outputs": [],
      "payable": false,
      "stateMutability": "nonpayable",
      "type": "function"
    },
    {
      "constant": false,
      "inputs": [
        {
          "name": "_to",
          "type": "address"
        },
        {
          "name": "_tokenId",
          "type": "uint256"
        }
      ],
      "name": "approve",
      "outputs": [],
      "payable": false,
      "stateMutability": "nonpayable",
      "type": "function"
    },
    {
      "constant": false,
      "inputs": [
        {
          "name": "_from",
          "type": "address"
        },
        {
          "name": "_to",
          "type": "address"
        },
        {
          "name": "_tokenId",
          "type": "uint256"
        }
      ],
      "name": "transferFrom",
      "outputs": [],
      "payable": false,
      "stateMutability": "nonpayable",
      "type": "function"
    },
    {
      "constant": true,
      "inputs": [],
      "name": "totalSupply",
      "outputs": [
        {
          "name": "",
          "type": "uint256"
        }
      ],
      "payable": false,
      "stateMutability": "view",
      "type": "function"
    },
    {
      "constant": true,
      "inputs": [
        {
          "name": "_tokenId",
          "type": "uint256"
        }
      ],
      "name": "ownerOf",
      "outputs": [
        {
          "name": "owner",
          "type": "address"
        }
      ],
      "payable": false,
      "stateMutability": "view",
      "type": "function"
    },
    {
      "constant": true,
      "inputs": [
        {
          "name": "_owner",
          "type": "address"
        }
      ],
      "name": "tokensOfOwner",
      "outputs": [
        {
          "name": "ownerTokens",
          "type": "uint256[]"
        }
      ],
      "payable": false,
      "stateMutability": "view",
      "type": "function"
    },
    {
      "constant": true,
      "inputs": [
        {
          "name": "_tokenId",
          "type": "uint256"
        },
        {
          "name": "_preferredTransport",
          "type": "string"
        }
      ],
      "name": "tokenMetadata",
      "outputs": [
        {
          "name": "infoUrl",
          "type": "string"
        }
      ],
      "payable": false,
      "stateMutability": "view",
      "type": "function"
    }
  ],
  "bytecode": "0x60806040526000600260146101000a81548160ff0219169083151502179055506101c060405190810160405280603c63ffffffff1663ffffffff168152602001607863ffffffff1663ffffffff16815260200161012c63ffffffff1663ffffffff16815260200161025863ffffffff1663ffffffff16815260200161070863ffffffff1663ffffffff168152602001610e1063ffffffff1663ffffffff168152602001611c2063ffffffff1663ffffffff16815260200161384063ffffffff1663ffffffff16815260200161708063ffffffff1663ffffffff16815260200161e10063ffffffff1663ffffffff1681526020016201518063ffffffff1663ffffffff1681526020016202a30063ffffffff1663ffffffff1681526020016205460063ffffffff1663ffffffff16815260200162093a8063ffffffff1663ffffffff16815250600390600e6200015692919062000170565b50600f6005553480156200016957600080fd5b5062000250565b82600e600701600890048101928215620002075791602002820160005b83821115620001d357835183826101000a81548163ffffffff021916908363ffffffff16021790555092602001926004016020816003010492830192600103026200018d565b8015620002055782816101000a81549063ffffffff0219169055600401602081600301049283019260010302620001d3565b505b5090506200021691906200021a565b5090565b6200024d91905b808211156200024957600081816101000a81549063ffffffff02191690555060010162000221565b5090565b90565b61236b80620002606000396000f30060806040526004361061018b576000357c0100000000000000000000000000000000000000000000000000000000900463ffffffff16806301ffc9a7146101905780630519ce79146101f45780630560ff441461024b57806306fdde0314610309578063095ea7b3146103995780630a0f8168146103e657806318160ddd1461043d57806321717ebf1461046857806323b872dd146104bf57806327d7874c1461052c5780632ba73c151461056f5780633f4ba83a146105b257806346116e6f146105c95780634e0a3379146106365780635663896e146106795780635c975abb146106a65780636352211e146106d557806370a08231146107425780637a7d4937146107995780638456cb59146107c45780638462151c146107db5780638a8360311461087357806395d89b41146108e05780639d6fac6f14610970578063a9059cbb146109bd578063b047fb5014610a0a578063bc4006f514610a61578063d83970a114610ab8578063e17b25af14610b25578063e6cbe35114610b68578063e756a66c14610bbf575b600080fd5b34801561019c57600080fd5b506101da60048036038101908080357bffffffffffffffffffffffffffffffffffffffffffffffffffffffff19169060200190929190505050610c2c565b604051808215151515815260200191505060405180910390f35b34801561020057600080fd5b50610209610f3d565b604051808273ffffffffffffffffffffffffffffffffffffffff1673ffffffffffffffffffffffffffffffffffffffff16815260200191505060405180910390f35b34801561025757600080fd5b5061028e60048036038101908080359060200190929190803590602001908201803590602001919091929391929390505050610f63565b6040518080602001828103825283818151815260200191508051906020019080838360005b838110156102ce5780820151818401526020810190506102b3565b50505050905090810190601f1680156102fb5780820380516001836020036101000a031916815260200191505b509250505060405180910390f35b34801561031557600080fd5b5061031e6110ec565b6040518080602001828103825283818151815260200191508051906020019080838360005b8381101561035e578082015181840152602081019050610343565b50505050905090810190601f16801561038b5780820380516001836020036101000a031916815260200191505b509250505060405180910390f35b3480156103a557600080fd5b506103e4600480360381019080803573ffffffffffffffffffffffffffffffffffffffff16906020019092919080359060200190929190505050611125565b005b3480156103f257600080fd5b506103fb611203565b604051808273ffffffffffffffffffffffffffffffffffffffff1673ffffffffffffffffffffffffffffffffffffffff16815260200191505060405180910390f35b34801561044957600080fd5b50610452611228565b6040518082815260200191505060405180910390f35b34801561047457600080fd5b5061047d611238565b604051808273ffffffffffffffffffffffffffffffffffffffff1673ffffffffffffffffffffffffffffffffffffffff16815260200191505060405180910390f35b3480156104cb57600080fd5b5061052a600480360381019080803573ffffffffffffffffffffffffffffffffffffffff169060200190929190803573ffffffffffffffffffffffffffffffffffffffff1690602001909291908035906020019092919050505061125e565b005b34801561053857600080fd5b5061056d600480360381019080803573ffffffffffffffffffffffffffffffffffffffff16906020019092919050505061132b565b005b34801561057b57600080fd5b506105b0600480360381019080803573ffffffffffffffffffffffffffffffffffffffff169060200190929190505050611405565b005b3480156105be57600080fd5b506105c76114e0565b005b3480156105d557600080fd5b506105f460048036038101908080359060200190929190505050611573565b604051808273ffffffffffffffffffffffffffffffffffffffff1673ffffffffffffffffffffffffffffffffffffffff16815260200191505060405180910390f35b34801561064257600080fd5b50610677600480360381019080803573ffffffffffffffffffffffffffffffffffffffff1690602001909291905050506115a6565b005b34801561068557600080fd5b506106a460048036038101908080359060200190929190505050611681565b005b3480156106b257600080fd5b506106bb6117d5565b604051808215151515815260200191505060405180910390f35b3480156106e157600080fd5b50610700600480360381019080803590602001909291905050506117e8565b604051808273ffffffffffffffffffffffffffffffffffffffff1673ffffffffffffffffffffffffffffffffffffffff16815260200191505060405180910390f35b34801561074e57600080fd5b50610783600480360381019080803573ffffffffffffffffffffffffffffffffffffffff169060200190929190505050611861565b6040518082815260200191505060405180910390f35b3480156107a557600080fd5b506107ae6118aa565b6040518082815260200191505060405180910390f35b3480156107d057600080fd5b506107d96118b0565b005b3480156107e757600080fd5b5061081c600480360381019080803573ffffffffffffffffffffffffffffffffffffffff1690602001909291905050506119f4565b6040518080602001828103825283818151815260200191508051906020019060200280838360005b8381101561085f578082015181840152602081019050610844565b505050509050019250505060405180910390f35b34801561087f57600080fd5b5061089e60048036038101908080359060200190929190505050611b41565b604051808273ffffffffffffffffffffffffffffffffffffffff1673ffffffffffffffffffffffffffffffffffffffff16815260200191505060405180910390f35b3480156108ec57600080fd5b506108f5611b74565b6040518080602001828103825283818151815260200191508051906020019080838360005b8381101561093557808201518184015260208101905061091a565b50505050905090810190601f1680156109625780820380516001836020036101000a031916815260200191505b509250505060405180910390f35b34801561097c57600080fd5b5061099b60048036038101908080359060200190929190505050611bad565b604051808263ffffffff1663ffffffff16815260200191505060405180910390f35b3480156109c957600080fd5b50610a08600480360381019080803573ffffffffffffffffffffffffffffffffffffffff16906020019092919080359060200190929190505050611bdc565b005b348015610a1657600080fd5b50610a1f611d4d565b604051808273ffffffffffffffffffffffffffffffffffffffff1673ffffffffffffffffffffffffffffffffffffffff16815260200191505060405180910390f35b348015610a6d57600080fd5b50610a76611d73565b604051808273ffffffffffffffffffffffffffffffffffffffff1673ffffffffffffffffffffffffffffffffffffffff16815260200191505060405180910390f35b348015610ac457600080fd5b50610ae360048036038101908080359060200190929190505050611d99565b604051808273ffffffffffffffffffffffffffffffffffffffff1673ffffffffffffffffffffffffffffffffffffffff16815260200191505060405180910390f35b348015610b3157600080fd5b50610b66600480360381019080803573ffffffffffffffffffffffffffffffffffffffff169060200190929190505050611dcc565b005b348015610b7457600080fd5b50610b7d611e6b565b604051808273ffffffffffffffffffffffffffffffffffffffff1673ffffffffffffffffffffffffffffffffffffffff16815260200191505060405180910390f35b348015610bcb57600080fd5b50610bea60048036038101908080359060200190929190505050611e91565b604051808273ffffffffffffffffffffffffffffffffffffffff1673ffffffffffffffffffffffffffffffffffffffff16815260200191505060405180910390f35b600060405180807f737570706f727473496e74657266616365286279746573342900000000000000815250601901905060405180910390207bffffffffffffffffffffffffffffffffffffffffffffffffffffffff1916827bffffffffffffffffffffffffffffffffffffffffffffffffffffffff19161480610f36575060405180807f746f6b656e4d657461646174612875696e743235362c737472696e6729000000815250601d019050604051809103902060405180807f746f6b656e734f664f776e6572286164647265737329000000000000000000008152506016019050604051809103902060405180807f7472616e7366657246726f6d28616464726573732c616464726573732c75696e81526020017f74323536290000000000000000000000000000000000000000000000000000008152506025019050604051809103902060405180807f7472616e7366657228616464726573732c75696e7432353629000000000000008152506019019050604051809103902060405180807f617070726f766528616464726573732c75696e743235362900000000000000008152506018019050604051809103902060405180807f6f776e65724f662875696e7432353629000000000000000000000000000000008152506010019050604051809103902060405180807f62616c616e63654f6628616464726573732900000000000000000000000000008152506012019050604051809103902060405180807f746f74616c537570706c79282900000000000000000000000000000000000000815250600d019050604051809103902060405180807f73796d626f6c28290000000000000000000000000000000000000000000000008152506008019050604051809103902060405180807f6e616d6528290000000000000000000000000000000000000000000000000000815250600601905060405180910390201818181818181818187bffffffffffffffffffffffffffffffffffffffffffffffffffffffff1916827bffffffffffffffffffffffffffffffffffffffffffffffffffffffff1916145b9050919050565b600160009054906101000a900473ffffffffffffffffffffffffffffffffffffffff1681565b6060610f6d61231c565b60008073ffffffffffffffffffffffffffffffffffffffff16600e60009054906101000a900473ffffffffffffffffffffffffffffffffffffffff1673ffffffffffffffffffffffffffffffffffffffff1614151515610fcc57600080fd5b600e60009054906101000a900473ffffffffffffffffffffffffffffffffffffffff1673ffffffffffffffffffffffffffffffffffffffff1663cb4799f28787876040518463ffffffff167c010000000000000000000000000000000000000000000000000000000002815260040180848152602001806020018281038252848482818152602001925080828437820191505094505050505060a060405180830381600087803b15801561107f57600080fd5b505af1158015611093573d6000803e3d6000fd5b505050506040513d601f19601f8201168201806040525060a08110156110b857600080fd5b810190809190826080018051906020019092919050505080925081935050506110e18282611f0f565b925050509392505050565b6040805190810160405280600a81526020017f43727970746f446f67730000000000000000000000000000000000000000000081525081565b600260149054906101000a900460ff1615151561114157600080fd5b61114b3382611f6b565b151561115657600080fd5b6111608183611fd7565b7f8c5be1e5ebec7d5bd14f71427d1e84f3dd0314c0f7b2291e5b200ac8c7c3b925338383604051808473ffffffffffffffffffffffffffffffffffffffff1673ffffffffffffffffffffffffffffffffffffffff1681526020018373ffffffffffffffffffffffffffffffffffffffff1673ffffffffffffffffffffffffffffffffffffffff168152602001828152602001935050505060405180910390a15050565b6000809054906101000a900473ffffffffffffffffffffffffffffffffffffffff1681565b6000600160068054905003905090565b600c60009054906101000a900473ffffffffffffffffffffffffffffffffffffffff1681565b600260149054906101000a900460ff1615151561127a57600080fd5b600073ffffffffffffffffffffffffffffffffffffffff168273ffffffffffffffffffffffffffffffffffffffff16141515156112b657600080fd5b3073ffffffffffffffffffffffffffffffffffffffff168273ffffffffffffffffffffffffffffffffffffffff16141515156112f157600080fd5b6112fb338261202d565b151561130657600080fd5b6113108382611f6b565b151561131b57600080fd5b611326838383612099565b505050565b6000809054906101000a900473ffffffffffffffffffffffffffffffffffffffff1673ffffffffffffffffffffffffffffffffffffffff163373ffffffffffffffffffffffffffffffffffffffff1614151561138657600080fd5b600073ffffffffffffffffffffffffffffffffffffffff168173ffffffffffffffffffffffffffffffffffffffff16141515156113c257600080fd5b806000806101000a81548173ffffffffffffffffffffffffffffffffffffffff021916908373ffffffffffffffffffffffffffffffffffffffff16021790555050565b6000809054906101000a900473ffffffffffffffffffffffffffffffffffffffff1673ffffffffffffffffffffffffffffffffffffffff163373ffffffffffffffffffffffffffffffffffffffff1614151561146057600080fd5b600073ffffffffffffffffffffffffffffffffffffffff168173ffffffffffffffffffffffffffffffffffffffff161415151561149c57600080fd5b80600260006101000a81548173ffffffffffffffffffffffffffffffffffffffff021916908373ffffffffffffffffffffffffffffffffffffffff16021790555050565b6000809054906101000a900473ffffffffffffffffffffffffffffffffffffffff1673ffffffffffffffffffffffffffffffffffffffff163373ffffffffffffffffffffffffffffffffffffffff1614151561153b57600080fd5b600260149054906101000a900460ff16151561155657600080fd5b6000600260146101000a81548160ff021916908315150217905550565b600a6020528060005260406000206000915054906101000a900473ffffffffffffffffffffffffffffffffffffffff1681565b6000809054906101000a900473ffffffffffffffffffffffffffffffffffffffff1673ffffffffffffffffffffffffffffffffffffffff163373ffffffffffffffffffffffffffffffffffffffff1614151561160157600080fd5b600073ffffffffffffffffffffffffffffffffffffffff168173ffffffffffffffffffffffffffffffffffffffff161415151561163d57600080fd5b80600160006101000a81548173ffffffffffffffffffffffffffffffffffffffff021916908373ffffffffffffffffffffffffffffffffffffffff16021790555050565b600260009054906101000a900473ffffffffffffffffffffffffffffffffffffffff1673ffffffffffffffffffffffffffffffffffffffff163373ffffffffffffffffffffffffffffffffffffffff16148061172957506000809054906101000a900473ffffffffffffffffffffffffffffffffffffffff1673ffffffffffffffffffffffffffffffffffffffff163373ffffffffffffffffffffffffffffffffffffffff16145b806117815750600160009054906101000a900473ffffffffffffffffffffffffffffffffffffffff1673ffffffffffffffffffffffffffffffffffffffff163373ffffffffffffffffffffffffffffffffffffffff16145b151561178c57600080fd5b60036000600e8110151561179c57fe5b600891828204019190066004029054906101000a900463ffffffff1663ffffffff16811015156117cb57600080fd5b8060058190555050565b600260149054906101000a900460ff1681565b60006007600083815260200190815260200160002060009054906101000a900473ffffffffffffffffffffffffffffffffffffffff169050600073ffffffffffffffffffffffffffffffffffffffff168173ffffffffffffffffffffffffffffffffffffffff161415151561185c57600080fd5b919050565b6000600860008373ffffffffffffffffffffffffffffffffffffffff1673ffffffffffffffffffffffffffffffffffffffff168152602001908152602001600020549050919050565b60055481565b600260009054906101000a900473ffffffffffffffffffffffffffffffffffffffff1673ffffffffffffffffffffffffffffffffffffffff163373ffffffffffffffffffffffffffffffffffffffff16148061195857506000809054906101000a900473ffffffffffffffffffffffffffffffffffffffff1673ffffffffffffffffffffffffffffffffffffffff163373ffffffffffffffffffffffffffffffffffffffff16145b806119b05750600160009054906101000a900473ffffffffffffffffffffffffffffffffffffffff1673ffffffffffffffffffffffffffffffffffffffff163373ffffffffffffffffffffffffffffffffffffffff16145b15156119bb57600080fd5b600260149054906101000a900460ff161515156119d757600080fd5b6001600260146101000a81548160ff021916908315150217905550565b6060600060606000806000611a0887611861565b94506000851415611a4b576000604051908082528060200260200182016040528015611a435781602001602082028038833980820191505090505b509550611b37565b84604051908082528060200260200182016040528015611a7a5781602001602082028038833980820191505090505b509350611a85611228565b925060009150600190505b8281111515611b33578673ffffffffffffffffffffffffffffffffffffffff166007600083815260200190815260200160002060009054906101000a900473ffffffffffffffffffffffffffffffffffffffff1673ffffffffffffffffffffffffffffffffffffffff161415611b2657808483815181101515611b0f57fe5b906020019060200201818152505081806001019250505b8080600101915050611a90565b8395505b5050505050919050565b60076020528060005260406000206000915054906101000a900473ffffffffffffffffffffffffffffffffffffffff1681565b6040805190810160405280600281526020017f434400000000000000000000000000000000000000000000000000000000000081525081565b600381600e81101515611bbc57fe5b60089182820401919006600402915054906101000a900463ffffffff1681565b600260149054906101000a900460ff16151515611bf857600080fd5b600073ffffffffffffffffffffffffffffffffffffffff168273ffffffffffffffffffffffffffffffffffffffff1614151515611c3457600080fd5b3073ffffffffffffffffffffffffffffffffffffffff168273ffffffffffffffffffffffffffffffffffffffff1614151515611c6f57600080fd5b600b60009054906101000a900473ffffffffffffffffffffffffffffffffffffffff1673ffffffffffffffffffffffffffffffffffffffff168273ffffffffffffffffffffffffffffffffffffffff1614151515611ccc57600080fd5b600c60009054906101000a900473ffffffffffffffffffffffffffffffffffffffff1673ffffffffffffffffffffffffffffffffffffffff168273ffffffffffffffffffffffffffffffffffffffff1614151515611d2957600080fd5b611d333382611f6b565b1515611d3e57600080fd5b611d49338383612099565b5050565b600260009054906101000a900473ffffffffffffffffffffffffffffffffffffffff1681565b600e60009054906101000a900473ffffffffffffffffffffffffffffffffffffffff1681565b60096020528060005260406000206000915054906101000a900473ffffffffffffffffffffffffffffffffffffffff1681565b6000809054906101000a900473ffffffffffffffffffffffffffffffffffffffff1673ffffffffffffffffffffffffffffffffffffffff163373ffffffffffffffffffffffffffffffffffffffff16141515611e2757600080fd5b80600e60006101000a81548173ffffffffffffffffffffffffffffffffffffffff021916908373ffffffffffffffffffffffffffffffffffffffff16021790555050565b600b60009054906101000a900473ffffffffffffffffffffffffffffffffffffffff1681565b600080600d600084815260200190815260200160002060009054906101000a900473ffffffffffffffffffffffffffffffffffffffff169050600073ffffffffffffffffffffffffffffffffffffffff168173ffffffffffffffffffffffffffffffffffffffff1614151515611f0657600080fd5b80915050919050565b606080600080846040519080825280601f01601f191660200182016040528015611f485781602001602082028038833980820191505090505b509250602083019150859050611f5f8282876122d1565b82935050505092915050565b60008273ffffffffffffffffffffffffffffffffffffffff166007600084815260200190815260200160002060009054906101000a900473ffffffffffffffffffffffffffffffffffffffff1673ffffffffffffffffffffffffffffffffffffffff1614905092915050565b806009600084815260200190815260200160002060006101000a81548173ffffffffffffffffffffffffffffffffffffffff021916908373ffffffffffffffffffffffffffffffffffffffff1602179055505050565b60008273ffffffffffffffffffffffffffffffffffffffff166009600084815260200190815260200160002060009054906101000a900473ffffffffffffffffffffffffffffffffffffffff1673ffffffffffffffffffffffffffffffffffffffff1614905092915050565b600860008373ffffffffffffffffffffffffffffffffffffffff1673ffffffffffffffffffffffffffffffffffffffff16815260200190815260200160002060008154809291906001019190505550816007600083815260200190815260200160002060006101000a81548173ffffffffffffffffffffffffffffffffffffffff021916908373ffffffffffffffffffffffffffffffffffffffff160217905550600073ffffffffffffffffffffffffffffffffffffffff168373ffffffffffffffffffffffffffffffffffffffff1614151561222d57600860008473ffffffffffffffffffffffffffffffffffffffff1673ffffffffffffffffffffffffffffffffffffffff1681526020019081526020016000206000815480929190600190039190505550600a600082815260200190815260200160002060006101000a81549073ffffffffffffffffffffffffffffffffffffffff02191690556009600082815260200190815260200160002060006101000a81549073ffffffffffffffffffffffffffffffffffffffff02191690555b7fddf252ad1be2c89b69c2b068fc378daa952ba7f163c4a11628f55a4df523b3ef838383604051808473ffffffffffffffffffffffffffffffffffffffff1673ffffffffffffffffffffffffffffffffffffffff1681526020018373ffffffffffffffffffffffffffffffffffffffff1673ffffffffffffffffffffffffffffffffffffffff168152602001828152602001935050505060405180910390a1505050565b60005b6020821015156122f957825184526020840193506020830192506020820391506122d4565b6001826020036101000a0390508019835116818551168181178652505050505050565b6080604051908101604052806004906020820280388339808201915050905050905600a165627a7a7230582034a74f420a50326cbadcda9f55c2bbe8f337d122fe83fafd262991064c870bd20029",
  "source": "// CryptoKitties Source code\r\n// Copied from: https://etherscan.io/address/0x06012c8cf97bead5deae237070f9587f8e7a266d#code\r\n\r\npragma solidity ^0.4.25;\r\n\r\nimport \"./DogBase.sol\";\r\nimport \"./ERC721.sol\";\r\nimport \"./ERC721Metadata.sol\";\r\n\r\n\r\n/// @title The facet of the CryptoKitties core contract that manages ownership, ERC-721 (draft) compliant.\r\n/// @author Axiom Zen (https://www.axiomzen.co)\r\n/// @dev Ref: https://github.com/ethereum/EIPs/issues/721\r\n///  See the KittyCore contract documentation to understand how the various contract facets are arranged.\r\ncontract DogOwnership is DogBase, ERC721 {\r\n\r\n    /// @notice Name and symbol of the non fungible token, as defined in ERC721.\r\n    string public constant name = \"CryptoDogs\";\r\n    string public constant symbol = \"CD\";\r\n\r\n    // The contract that will return kitty metadata\r\n    ERC721Metadata public erc721Metadata;\r\n\r\n    bytes4 constant InterfaceSignature_ERC165 =\r\n        bytes4(keccak256('supportsInterface(bytes4)'));\r\n\r\n    bytes4 constant InterfaceSignature_ERC721 =\r\n        bytes4(keccak256('name()')) ^\r\n        bytes4(keccak256('symbol()')) ^\r\n        bytes4(keccak256('totalSupply()')) ^\r\n        bytes4(keccak256('balanceOf(address)')) ^\r\n        bytes4(keccak256('ownerOf(uint256)')) ^\r\n        bytes4(keccak256('approve(address,uint256)')) ^\r\n        bytes4(keccak256('transfer(address,uint256)')) ^\r\n        bytes4(keccak256('transferFrom(address,address,uint256)')) ^\r\n        bytes4(keccak256('tokensOfOwner(address)')) ^\r\n        bytes4(keccak256('tokenMetadata(uint256,string)'));\r\n\r\n    /// @notice Introspection interface as per ERC-165 (https://github.com/ethereum/EIPs/issues/165).\r\n    ///  Returns true for any standardized interfaces implemented by this contract. We implement\r\n    ///  ERC-165 (obviously!) and ERC-721.\r\n    function supportsInterface(bytes4 _interfaceID) external view returns (bool)\r\n    {\r\n        // DEBUG ONLY\r\n        //require((InterfaceSignature_ERC165 == 0x01ffc9a7) && (InterfaceSignature_ERC721 == 0x9a20483d));\r\n\r\n        return ((_interfaceID == InterfaceSignature_ERC165) || (_interfaceID == InterfaceSignature_ERC721));\r\n    }\r\n\r\n    /// @dev Set the address of the sibling contract that tracks metadata.\r\n    ///  CEO only.\r\n    function setMetadataAddress(address _contractAddress) public onlyCEO {\r\n        erc721Metadata = ERC721Metadata(_contractAddress);\r\n    }\r\n\r\n    // Internal utility functions: These functions all assume that their input arguments\r\n    // are valid. We leave it to public methods to sanitize their inputs and follow\r\n    // the required logic.\r\n\r\n    /// @dev Checks if a given address is the current owner of a particular Kitty.\r\n    /// @param _claimant the address we are validating against.\r\n    /// @param _tokenId kitten id, only valid when > 0\r\n    function _owns(address _claimant, uint256 _tokenId) internal view returns (bool) {\r\n        return dogIndexToOwner[_tokenId] == _claimant;\r\n    }\r\n\r\n    /// @dev Checks if a given address currently has transferApproval for a particular Kitty.\r\n    /// @param _claimant the address we are confirming kitten is approved for.\r\n    /// @param _tokenId kitten id, only valid when > 0\r\n    function _approvedFor(address _claimant, uint256 _tokenId) internal view returns (bool) {\r\n        return dogIndexToApproved[_tokenId] == _claimant;\r\n    }\r\n\r\n    /// @dev Marks an address as being approved for transferFrom(), overwriting any previous\r\n    ///  approval. Setting _approved to address(0) clears all transfer approval.\r\n    ///  NOTE: _approve() does NOT send the Approval event. This is intentional because\r\n    ///  _approve() and transferFrom() are used together for putting Kitties on auction, and\r\n    ///  there is no value in spamming the log with Approval events in that case.\r\n    function _approve(uint256 _tokenId, address _approved) internal {\r\n        dogIndexToApproved[_tokenId] = _approved;\r\n    }\r\n\r\n    /// @notice Returns the number of Kitties owned by a specific address.\r\n    /// @param _owner The owner address to check.\r\n    /// @dev Required for ERC-721 compliance\r\n    function balanceOf(address _owner) public view returns (uint256 count) {\r\n        return ownershipTokenCount[_owner];\r\n    }\r\n\r\n    /// @notice Transfers a Kitty to another address. If transferring to a smart\r\n    ///  contract be VERY CAREFUL to ensure that it is aware of ERC-721 (or\r\n    ///  CryptoKitties specifically) or your Kitty may be lost forever. Seriously.\r\n    /// @param _to The address of the recipient, can be a user or contract.\r\n    /// @param _tokenId The ID of the Kitty to transfer.\r\n    /// @dev Required for ERC-721 compliance.\r\n    function transfer(\r\n        address _to,\r\n        uint256 _tokenId\r\n    )\r\n        external\r\n        whenNotPaused\r\n    {\r\n        // Safety check to prevent against an unexpected 0x0 default.\r\n        require(_to != address(0));\r\n        // Disallow transfers to this contract to prevent accidental misuse.\r\n        // The contract should never own any kitties (except very briefly\r\n        // after a gen0 cat is created and before it goes on auction).\r\n        require(_to != address(this));\r\n        // Disallow transfers to the auction contracts to prevent accidental\r\n        // misuse. Auction contracts should only take ownership of kitties\r\n        // through the allow + transferFrom flow.\r\n        require(_to != address(saleAuction));\r\n        require(_to != address(siringAuction));\r\n\r\n        // You can only send your own cat.\r\n        require(_owns(msg.sender, _tokenId));\r\n\r\n        // Reassign ownership, clear pending approvals, emit Transfer event.\r\n        _transfer(msg.sender, _to, _tokenId);\r\n    }\r\n\r\n    /// @notice Grant another address the right to transfer a specific Kitty via\r\n    ///  transferFrom(). This is the preferred flow for transfering NFTs to contracts.\r\n    /// @param _to The address to be granted transfer approval. Pass address(0) to\r\n    ///  clear all approvals.\r\n    /// @param _tokenId The ID of the Kitty that can be transferred if this call succeeds.\r\n    /// @dev Required for ERC-721 compliance.\r\n    function approve(\r\n        address _to,\r\n        uint256 _tokenId\r\n    )\r\n        external\r\n        whenNotPaused\r\n    {\r\n        // Only an owner can grant transfer approval.\r\n        require(_owns(msg.sender, _tokenId));\r\n\r\n        // Register the approval (replacing any previous approval).\r\n        _approve(_tokenId, _to);\r\n\r\n        // Emit approval event.\r\n        emit Approval(msg.sender, _to, _tokenId);\r\n    }\r\n\r\n    /// @notice Transfer a Kitty owned by another address, for which the calling address\r\n    ///  has previously been granted transfer approval by the owner.\r\n    /// @param _from The address that owns the Kitty to be transfered.\r\n    /// @param _to The address that should take ownership of the Kitty. Can be any address,\r\n    ///  including the caller.\r\n    /// @param _tokenId The ID of the Kitty to be transferred.\r\n    /// @dev Required for ERC-721 compliance.\r\n    function transferFrom(\r\n        address _from,\r\n        address _to,\r\n        uint256 _tokenId\r\n    )\r\n        external\r\n        whenNotPaused\r\n    {\r\n        // Safety check to prevent against an unexpected 0x0 default.\r\n        require(_to != address(0));\r\n        // Disallow transfers to this contract to prevent accidental misuse.\r\n        // The contract should never own any kitties (except very briefly\r\n        // after a gen0 cat is created and before it goes on auction).\r\n        require(_to != address(this));\r\n        // Check for approval and valid ownership\r\n        require(_approvedFor(msg.sender, _tokenId));\r\n        require(_owns(_from, _tokenId));\r\n\r\n        // Reassign ownership (also clears pending approvals and emits Transfer event).\r\n        _transfer(_from, _to, _tokenId);\r\n    }\r\n\r\n    /// @notice Returns the total number of Kitties currently in existence.\r\n    /// @dev Required for ERC-721 compliance.\r\n    function totalSupply() public view returns (uint) {\r\n        return kennel.length - 1;\r\n    }\r\n\r\n    /// @notice Returns the address currently assigned ownership of a given Kitty.\r\n    /// @dev Required for ERC-721 compliance.\r\n    function ownerOf(uint256 _tokenId)\r\n        external\r\n        view\r\n        returns (address owner)\r\n    {\r\n        owner = dogIndexToOwner[_tokenId];\r\n\r\n        require(owner != address(0));\r\n    }\r\n\r\n    /// @notice Returns a list of all Kitty IDs assigned to an address.\r\n    /// @param _owner The owner whose Kitties we are interested in.\r\n    /// @dev This method MUST NEVER be called by smart contract code. First, it's fairly\r\n    ///  expensive (it walks the entire Kitty array looking for cats belonging to owner),\r\n    ///  but it also returns a dynamic array, which is only supported for web3 calls, and\r\n    ///  not contract-to-contract calls.\r\n    function tokensOfOwner(address _owner) external view returns(uint256[] ownerTokens) {\r\n        uint256 tokenCount = balanceOf(_owner);\r\n\r\n        if (tokenCount == 0) {\r\n            // Return an empty array\r\n            return new uint256[](0);\r\n        } else {\r\n            uint256[] memory result = new uint256[](tokenCount);\r\n            uint256 totalDogs = totalSupply();\r\n            uint256 resultIndex = 0;\r\n\r\n            // We count on the fact that all cats have IDs starting at 1 and increasing\r\n            // sequentially up to the totalCat count.\r\n            uint256 DogId;\r\n\r\n            for (DogId = 1; DogId <= totalDogs; DogId++) {\r\n                if (dogIndexToOwner[DogId] == _owner) {\r\n                    result[resultIndex] = DogId;\r\n                    resultIndex++;\r\n                }\r\n            }\r\n\r\n            return result;\r\n        }\r\n    }\r\n\r\n    /// @dev Adapted from memcpy() by @arachnid (Nick Johnson <arachnid@notdot.net>)\r\n    ///  This method is licenced under the Apache License.\r\n    ///  Ref: https://github.com/Arachnid/solidity-stringutils/blob/2f6ca9accb48ae14c66f1437ec50ed19a0616f78/strings.sol\r\n    function _memcpy(uint _dest, uint _src, uint _len) private pure {\r\n        // Copy word-length chunks while possible\r\n        for(; _len >= 32; _len -= 32) {\r\n            assembly {\r\n                mstore(_dest, mload(_src))\r\n            }\r\n            _dest += 32;\r\n            _src += 32;\r\n        }\r\n\r\n        // Copy remaining bytes\r\n        uint256 mask = 256 ** (32 - _len) - 1;\r\n        assembly {\r\n            let srcpart := and(mload(_src), not(mask))\r\n            let destpart := and(mload(_dest), mask)\r\n            mstore(_dest, or(destpart, srcpart))\r\n        }\r\n    }\r\n\r\n    /// @dev Adapted from toString(slice) by @arachnid (Nick Johnson <arachnid@notdot.net>)\r\n    ///  This method is licenced under the Apache License.\r\n    ///  Ref: https://github.com/Arachnid/solidity-stringutils/blob/2f6ca9accb48ae14c66f1437ec50ed19a0616f78/strings.sol\r\n    function _toString(bytes32[4] _rawBytes, uint256 _stringLength) private pure returns (string) {\r\n        var outputString = new string(_stringLength);\r\n        uint256 outputPtr;\r\n        uint256 bytesPtr;\r\n\r\n        assembly {\r\n            outputPtr := add(outputString, 32)\r\n            bytesPtr := _rawBytes\r\n        }\r\n\r\n        _memcpy(outputPtr, bytesPtr, _stringLength);\r\n\r\n        return outputString;\r\n    }\r\n\r\n    /// @notice Returns a URI pointing to a metadata package for this token conforming to\r\n    ///  ERC-721 (https://github.com/ethereum/EIPs/issues/721)\r\n    /// @param _tokenId The ID number of the Kitty whose metadata should be returned.\r\n    function tokenMetadata(uint256 _tokenId, string _preferredTransport) external view returns (string infoUrl) {\r\n        require(erc721Metadata != address(0));\r\n        bytes32[4] memory buffer;\r\n        uint256 count;\r\n        (buffer, count) = erc721Metadata.getMetadata(_tokenId, _preferredTransport);\r\n\r\n        return _toString(buffer, count);\r\n    }\r\n}",
  "sourcePath": "C:\\Users\\CTrov\\OneDrive\\Documents\\ESILV\\BLOCKCHAIN PROGRAMMING\\Blockchain_Programming_TD6\\contracts\\DogOwnership.sol",
  "compiler": {
    "name": "solc",
    "version": "0.4.25+commit.59dbf8f1.Emscripten.clang"
  },
  "schemaVersion": "2.0.2",
  "updatedAt": "2019-03-17T20:04:31.888Z"
}