{
  "contractName": "SaleClockAuction",
  "abi": [
    {
      "constant": false,
      "inputs": [],
      "name": "unpause",
      "outputs": [
        {
          "name": "",
          "type": "bool"
        }
      ],
      "payable": false,
      "stateMutability": "nonpayable",
      "type": "function"
    },
    {
      "constant": true,
      "inputs": [
        {
          "name": "",
          "type": "uint256"
        }
      ],
      "name": "lastGen0SalePrices",
      "outputs": [
        {
          "name": "",
          "type": "uint256"
        }
      ],
      "payable": false,
      "stateMutability": "view",
      "type": "function"
    },
    {
      "constant": true,
      "inputs": [],
      "name": "paused",
      "outputs": [
        {
          "name": "",
          "type": "bool"
        }
      ],
      "payable": false,
      "stateMutability": "view",
      "type": "function"
    },
    {
      "constant": false,
      "inputs": [],
      "name": "withdrawBalance",
      "outputs": [],
      "payable": false,
      "stateMutability": "nonpayable",
      "type": "function"
    },
    {
      "constant": true,
      "inputs": [
        {
          "name": "_tokenId",
          "type": "uint256"
        }
      ],
      "name": "getAuction",
      "outputs": [
        {
          "name": "seller",
          "type": "address"
        },
        {
          "name": "startingPrice",
          "type": "uint256"
        },
        {
          "name": "endingPrice",
          "type": "uint256"
        },
        {
          "name": "duration",
          "type": "uint256"
        },
        {
          "name": "startedAt",
          "type": "uint256"
        }
      ],
      "payable": false,
      "stateMutability": "view",
      "type": "function"
    },
    {
      "constant": true,
      "inputs": [],
      "name": "ownerCut",
      "outputs": [
        {
          "name": "",
          "type": "uint256"
        }
      ],
      "payable": false,
      "stateMutability": "view",
      "type": "function"
    },
    {
      "constant": false,
      "inputs": [],
      "name": "pause",
      "outputs": [
        {
          "name": "",
          "type": "bool"
        }
      ],
      "payable": false,
      "stateMutability": "nonpayable",
      "type": "function"
    },
    {
      "constant": true,
      "inputs": [],
      "name": "isSaleClockAuction",
      "outputs": [
        {
          "name": "",
          "type": "bool"
        }
      ],
      "payable": false,
      "stateMutability": "view",
      "type": "function"
    },
    {
      "constant": false,
      "inputs": [
        {
          "name": "_tokenId",
          "type": "uint256"
        }
      ],
      "name": "cancelAuctionWhenPaused",
      "outputs": [],
      "payable": false,
      "stateMutability": "nonpayable",
      "type": "function"
    },
    {
      "constant": true,
      "inputs": [],
      "name": "gen0SaleCount",
      "outputs": [
        {
          "name": "",
          "type": "uint256"
        }
      ],
      "payable": false,
      "stateMutability": "view",
      "type": "function"
    },
    {
      "constant": true,
      "inputs": [],
      "name": "owner",
      "outputs": [
        {
          "name": "",
          "type": "address"
        }
      ],
      "payable": false,
      "stateMutability": "view",
      "type": "function"
    },
    {
      "constant": false,
      "inputs": [
        {
          "name": "_tokenId",
          "type": "uint256"
        }
      ],
      "name": "cancelAuction",
      "outputs": [],
      "payable": false,
      "stateMutability": "nonpayable",
      "type": "function"
    },
    {
      "constant": true,
      "inputs": [
        {
          "name": "_tokenId",
          "type": "uint256"
        }
      ],
      "name": "getCurrentPrice",
      "outputs": [
        {
          "name": "",
          "type": "uint256"
        }
      ],
      "payable": false,
      "stateMutability": "view",
      "type": "function"
    },
    {
      "constant": true,
      "inputs": [],
      "name": "nonFungibleContract",
      "outputs": [
        {
          "name": "",
          "type": "address"
        }
      ],
      "payable": false,
      "stateMutability": "view",
      "type": "function"
    },
    {
      "constant": false,
      "inputs": [
        {
          "name": "newOwner",
          "type": "address"
        }
      ],
      "name": "transferOwnership",
      "outputs": [],
      "payable": false,
      "stateMutability": "nonpayable",
      "type": "function"
    },
    {
      "inputs": [
        {
          "name": "_nftAddr",
          "type": "address"
        },
        {
          "name": "_cut",
          "type": "uint256"
        }
      ],
      "payable": false,
      "stateMutability": "nonpayable",
      "type": "constructor"
    },
    {
      "anonymous": false,
      "inputs": [
        {
          "indexed": false,
          "name": "tokenId",
          "type": "uint256"
        },
        {
          "indexed": false,
          "name": "startingPrice",
          "type": "uint256"
        },
        {
          "indexed": false,
          "name": "endingPrice",
          "type": "uint256"
        },
        {
          "indexed": false,
          "name": "duration",
          "type": "uint256"
        }
      ],
      "name": "AuctionCreated",
      "type": "event"
    },
    {
      "anonymous": false,
      "inputs": [
        {
          "indexed": false,
          "name": "tokenId",
          "type": "uint256"
        },
        {
          "indexed": false,
          "name": "totalPrice",
          "type": "uint256"
        },
        {
          "indexed": false,
          "name": "winner",
          "type": "address"
        }
      ],
      "name": "AuctionSuccessful",
      "type": "event"
    },
    {
      "anonymous": false,
      "inputs": [
        {
          "indexed": false,
          "name": "tokenId",
          "type": "uint256"
        }
      ],
      "name": "AuctionCancelled",
      "type": "event"
    },
    {
      "anonymous": false,
      "inputs": [],
      "name": "Pause",
      "type": "event"
    },
    {
      "anonymous": false,
      "inputs": [],
      "name": "Unpause",
      "type": "event"
    },
    {
      "constant": false,
      "inputs": [
        {
          "name": "_tokenId",
          "type": "uint256"
        },
        {
          "name": "_startingPrice",
          "type": "uint256"
        },
        {
          "name": "_endingPrice",
          "type": "uint256"
        },
        {
          "name": "_duration",
          "type": "uint256"
        },
        {
          "name": "_seller",
          "type": "address"
        }
      ],
      "name": "createAuction",
      "outputs": [],
      "payable": false,
      "stateMutability": "nonpayable",
      "type": "function"
    },
    {
      "constant": false,
      "inputs": [
        {
          "name": "_tokenId",
          "type": "uint256"
        }
      ],
      "name": "bid",
      "outputs": [],
      "payable": true,
      "stateMutability": "payable",
      "type": "function"
    },
    {
      "constant": true,
      "inputs": [],
      "name": "averageGen0SalePrice",
      "outputs": [
        {
          "name": "",
          "type": "uint256"
        }
      ],
      "payable": false,
      "stateMutability": "view",
      "type": "function"
    }
  ],
  "bytecode": "0x608060405260008060146101000a81548160ff0219169083151502179055506001600460006101000a81548160ff02191690831515021790555034801561004557600080fd5b5060405160408061197a833981018060405281019080805190602001909291908051906020019092919050505081816000336000806101000a81548173ffffffffffffffffffffffffffffffffffffffff021916908373ffffffffffffffffffffffffffffffffffffffff16021790555061271082111515156100c757600080fd5b816002819055508290508073ffffffffffffffffffffffffffffffffffffffff166301ffc9a7639a20483d7c0100000000000000000000000000000000000000000000000000000000026040518263ffffffff167c010000000000000000000000000000000000000000000000000000000002815260040180827bffffffffffffffffffffffffffffffffffffffffffffffffffffffff19167bffffffffffffffffffffffffffffffffffffffffffffffffffffffff19168152602001915050602060405180830381600087803b1580156101a157600080fd5b505af11580156101b5573d6000803e3d6000fd5b505050506040513d60208110156101cb57600080fd5b810190808051906020019092919050505015156101e757600080fd5b80600160006101000a81548173ffffffffffffffffffffffffffffffffffffffff021916908373ffffffffffffffffffffffffffffffffffffffff160217905550505050505061173e8061023c6000396000f3006080604052600436106100fc576000357c0100000000000000000000000000000000000000000000000000000000900463ffffffff16806327ebe40a146101015780633f4ba83a1461016c578063454a2ab31461019b578063484eccb4146101bb5780635c975abb146101fc5780635fd8c7101461022b57806378bd79351461024257806383b5ff8b146102cb5780638456cb59146102f657806385b8618814610325578063878eb368146103545780638a98a9cc146103815780638da5cb5b146103ac57806396b5a75514610403578063c55d0f5614610430578063dd1b7a0f14610471578063eac9d94c146104c8578063f2fde38b146104f3575b600080fd5b34801561010d57600080fd5b5061016a60048036038101908080359060200190929190803590602001909291908035906020019092919080359060200190929190803573ffffffffffffffffffffffffffffffffffffffff169060200190929190505050610536565b005b34801561017857600080fd5b50610181610686565b604051808215151515815260200191505060405180910390f35b6101b96004803603810190808035906020019092919050505061074b565b005b3480156101c757600080fd5b506101e66004803603810190808035906020019092919050505061082d565b6040518082815260200191505060405180910390f35b34801561020857600080fd5b50610211610847565b604051808215151515815260200191505060405180910390f35b34801561023757600080fd5b5061024061085a565b005b34801561024e57600080fd5b5061026d60048036038101908080359060200190929190505050610965565b604051808673ffffffffffffffffffffffffffffffffffffffff1673ffffffffffffffffffffffffffffffffffffffff1681526020018581526020018481526020018381526020018281526020019550505050505060405180910390f35b3480156102d757600080fd5b506102e0610a88565b6040518082815260200191505060405180910390f35b34801561030257600080fd5b5061030b610a8e565b604051808215151515815260200191505060405180910390f35b34801561033157600080fd5b5061033a610b55565b604051808215151515815260200191505060405180910390f35b34801561036057600080fd5b5061037f60048036038101908080359060200190929190505050610b68565b005b34801561038d57600080fd5b50610396610c3a565b6040518082815260200191505060405180910390f35b3480156103b857600080fd5b506103c1610c40565b604051808273ffffffffffffffffffffffffffffffffffffffff1673ffffffffffffffffffffffffffffffffffffffff16815260200191505060405180910390f35b34801561040f57600080fd5b5061042e60048036038101908080359060200190929190505050610c65565b005b34801561043c57600080fd5b5061045b60048036038101908080359060200190929190505050610d01565b6040518082815260200191505060405180910390f35b34801561047d57600080fd5b50610486610d3e565b604051808273ffffffffffffffffffffffffffffffffffffffff1673ffffffffffffffffffffffffffffffffffffffff16815260200191505060405180910390f35b3480156104d457600080fd5b506104dd610d64565b6040518082815260200191505060405180910390f35b3480156104ff57600080fd5b50610534600480360381019080803573ffffffffffffffffffffffffffffffffffffffff169060200190929190505050610db0565b005b61053e611694565b846fffffffffffffffffffffffffffffffff168514151561055e57600080fd5b836fffffffffffffffffffffffffffffffff168414151561057e57600080fd5b8267ffffffffffffffff168314151561059657600080fd5b600160009054906101000a900473ffffffffffffffffffffffffffffffffffffffff1673ffffffffffffffffffffffffffffffffffffffff163373ffffffffffffffffffffffffffffffffffffffff161415156105f257600080fd5b6105fc8287610e85565b60a0604051908101604052808373ffffffffffffffffffffffffffffffffffffffff168152602001866fffffffffffffffffffffffffffffffff168152602001856fffffffffffffffffffffffffffffffff1681526020018467ffffffffffffffff1681526020014267ffffffffffffffff16815250905061067e8682610f9a565b505050505050565b60008060009054906101000a900473ffffffffffffffffffffffffffffffffffffffff1673ffffffffffffffffffffffffffffffffffffffff163373ffffffffffffffffffffffffffffffffffffffff161415156106e357600080fd5b600060149054906101000a900460ff1615156106fe57600080fd5b60008060146101000a81548160ff0219169083151502179055507f7805862f689e2f13df9f062ff482ad3ad112aca9e0847911ed832e158c525b3360405160405180910390a16001905090565b6000806003600084815260200190815260200160002060000160009054906101000a900473ffffffffffffffffffffffffffffffffffffffff1691506107918334611180565b905061079d338461132d565b600160009054906101000a900473ffffffffffffffffffffffffffffffffffffffff1673ffffffffffffffffffffffffffffffffffffffff168273ffffffffffffffffffffffffffffffffffffffff161415610828578060066005805481151561080357fe5b0660058110151561081057fe5b01819055506005600081548092919060010191905055505b505050565b60068160058110151561083c57fe5b016000915090505481565b600060149054906101000a900460ff1681565b600080600160009054906101000a900473ffffffffffffffffffffffffffffffffffffffff1691506000809054906101000a900473ffffffffffffffffffffffffffffffffffffffff1673ffffffffffffffffffffffffffffffffffffffff163373ffffffffffffffffffffffffffffffffffffffff16148061090857508173ffffffffffffffffffffffffffffffffffffffff163373ffffffffffffffffffffffffffffffffffffffff16145b151561091357600080fd5b8173ffffffffffffffffffffffffffffffffffffffff166108fc3073ffffffffffffffffffffffffffffffffffffffff16319081150290604051600060405180830381858888f1935050505090505050565b60008060008060008060036000888152602001908152602001600020905061098c8161140e565b151561099757600080fd5b8060000160009054906101000a900473ffffffffffffffffffffffffffffffffffffffff168160010160009054906101000a90046fffffffffffffffffffffffffffffffff168260010160109054906101000a90046fffffffffffffffffffffffffffffffff168360020160009054906101000a900467ffffffffffffffff168460020160089054906101000a900467ffffffffffffffff16836fffffffffffffffffffffffffffffffff169350826fffffffffffffffffffffffffffffffff1692508167ffffffffffffffff1691508067ffffffffffffffff169050955095509550955095505091939590929450565b60025481565b60008060009054906101000a900473ffffffffffffffffffffffffffffffffffffffff1673ffffffffffffffffffffffffffffffffffffffff163373ffffffffffffffffffffffffffffffffffffffff16141515610aeb57600080fd5b600060149054906101000a900460ff16151515610b0757600080fd5b6001600060146101000a81548160ff0219169083151502179055507f6985a02210a168e66602d3235cb6db0e70f92b3ba4d376a33c0f3d9434bff62560405160405180910390a16001905090565b600460009054906101000a900460ff1681565b60008060149054906101000a900460ff161515610b8457600080fd5b6000809054906101000a900473ffffffffffffffffffffffffffffffffffffffff1673ffffffffffffffffffffffffffffffffffffffff163373ffffffffffffffffffffffffffffffffffffffff16141515610bdf57600080fd5b600360008381526020019081526020016000209050610bfd8161140e565b1515610c0857600080fd5b610c36828260000160009054906101000a900473ffffffffffffffffffffffffffffffffffffffff1661143c565b5050565b60055481565b6000809054906101000a900473ffffffffffffffffffffffffffffffffffffffff1681565b600080600360008481526020019081526020016000209150610c868261140e565b1515610c9157600080fd5b8160000160009054906101000a900473ffffffffffffffffffffffffffffffffffffffff1690508073ffffffffffffffffffffffffffffffffffffffff163373ffffffffffffffffffffffffffffffffffffffff16141515610cf257600080fd5b610cfc838261143c565b505050565b600080600360008481526020019081526020016000209050610d228161140e565b1515610d2d57600080fd5b610d368161148a565b915050919050565b600160009054906101000a900473ffffffffffffffffffffffffffffffffffffffff1681565b6000806000809150600090505b6005811015610d9c57600681600581101515610d8957fe5b0154820191508080600101915050610d71565b600582811515610da857fe5b049250505090565b6000809054906101000a900473ffffffffffffffffffffffffffffffffffffffff1673ffffffffffffffffffffffffffffffffffffffff163373ffffffffffffffffffffffffffffffffffffffff16141515610e0b57600080fd5b600073ffffffffffffffffffffffffffffffffffffffff168173ffffffffffffffffffffffffffffffffffffffff16141515610e8257806000806101000a81548173ffffffffffffffffffffffffffffffffffffffff021916908373ffffffffffffffffffffffffffffffffffffffff1602179055505b50565b600160009054906101000a900473ffffffffffffffffffffffffffffffffffffffff1673ffffffffffffffffffffffffffffffffffffffff166323b872dd8330846040518463ffffffff167c0100000000000000000000000000000000000000000000000000000000028152600401808473ffffffffffffffffffffffffffffffffffffffff1673ffffffffffffffffffffffffffffffffffffffff1681526020018373ffffffffffffffffffffffffffffffffffffffff1673ffffffffffffffffffffffffffffffffffffffff1681526020018281526020019350505050600060405180830381600087803b158015610f7e57600080fd5b505af1158015610f92573d6000803e3d6000fd5b505050505050565b6202a300816060015167ffffffffffffffff16141515610fb957600080fd5b806003600084815260200190815260200160002060008201518160000160006101000a81548173ffffffffffffffffffffffffffffffffffffffff021916908373ffffffffffffffffffffffffffffffffffffffff16021790555060208201518160010160006101000a8154816fffffffffffffffffffffffffffffffff02191690836fffffffffffffffffffffffffffffffff16021790555060408201518160010160106101000a8154816fffffffffffffffffffffffffffffffff02191690836fffffffffffffffffffffffffffffffff16021790555060608201518160020160006101000a81548167ffffffffffffffff021916908367ffffffffffffffff16021790555060808201518160020160086101000a81548167ffffffffffffffff021916908367ffffffffffffffff1602179055509050507fa9c8dfcda5664a5a124c713e386da27de87432d5b668e79458501eb296389ba78282602001516fffffffffffffffffffffffffffffffff1683604001516fffffffffffffffffffffffffffffffff16846060015167ffffffffffffffff166040518085815260200184815260200183815260200182815260200194505050505060405180910390a15050565b6000806000806000806000600360008a815260200190815260200160002095506111a98661140e565b15156111b457600080fd5b6111bd8661148a565b94508488101515156111ce57600080fd5b8560000160009054906101000a900473ffffffffffffffffffffffffffffffffffffffff1693506111fe8961157d565b600085111561125f5761121085611639565b925082850391508373ffffffffffffffffffffffffffffffffffffffff166108fc839081150290604051600060405180830381858888f1935050505015801561125d573d6000803e3d6000fd5b505b84880390503373ffffffffffffffffffffffffffffffffffffffff166108fc829081150290604051600060405180830381858888f193505050501580156112aa573d6000803e3d6000fd5b507f4fcc30d90a842164dd58501ab874a101a3749c3d4747139cefe7c876f4ccebd2898633604051808481526020018381526020018273ffffffffffffffffffffffffffffffffffffffff1673ffffffffffffffffffffffffffffffffffffffff168152602001935050505060405180910390a184965050505050505092915050565b600160009054906101000a900473ffffffffffffffffffffffffffffffffffffffff1673ffffffffffffffffffffffffffffffffffffffff1663a9059cbb83836040518363ffffffff167c0100000000000000000000000000000000000000000000000000000000028152600401808373ffffffffffffffffffffffffffffffffffffffff1673ffffffffffffffffffffffffffffffffffffffff16815260200182815260200192505050600060405180830381600087803b1580156113f257600080fd5b505af1158015611406573d6000803e3d6000fd5b505050505050565b6000808260020160089054906101000a900467ffffffffffffffff1667ffffffffffffffff16119050919050565b6114458261157d565b61144f818361132d565b7f2809c7e17bf978fbc7194c0a694b638c4215e9140cacc6c38ca36010b45697df826040518082815260200191505060405180910390a15050565b600080600090508260020160089054906101000a900467ffffffffffffffff1667ffffffffffffffff164211156114e3578260020160089054906101000a900467ffffffffffffffff1667ffffffffffffffff16420390505b6115758360010160009054906101000a90046fffffffffffffffffffffffffffffffff166fffffffffffffffffffffffffffffffff168460010160109054906101000a90046fffffffffffffffffffffffffffffffff166fffffffffffffffffffffffffffffffff168560020160009054906101000a900467ffffffffffffffff1667ffffffffffffffff1684611654565b915050919050565b60036000828152602001908152602001600020600080820160006101000a81549073ffffffffffffffffffffffffffffffffffffffff02191690556001820160006101000a8154906fffffffffffffffffffffffffffffffff02191690556001820160106101000a8154906fffffffffffffffffffffffffffffffff02191690556002820160006101000a81549067ffffffffffffffff02191690556002820160086101000a81549067ffffffffffffffff0219169055505050565b6000612710600254830281151561164c57fe5b049050919050565b600080600080858510151561166b57869350611689565b87870392508585840281151561167d57fe5b05915081880190508093505b505050949350505050565b60a060405190810160405280600073ffffffffffffffffffffffffffffffffffffffff16815260200160006fffffffffffffffffffffffffffffffff16815260200160006fffffffffffffffffffffffffffffffff168152602001600067ffffffffffffffff168152602001600067ffffffffffffffff16815250905600a165627a7a72305820742d3b1aae7a41a4f983ec80ea96fd1eb25deab833461585f8087fd189c08d6c0029",
  "source": "// CryptoKitties Source code\r\n// Copied from: https://etherscan.io/address/0x06012c8cf97bead5deae237070f9587f8e7a266d#code\r\n\r\npragma solidity ^0.4.25;\r\n\r\nimport \"./ClockAuction.sol\";\r\n\r\n\r\n/// @title Clock auction modified for sale of kitties\r\n/// @notice We omit a fallback function to prevent accidental sends to this contract.\r\ncontract SaleClockAuction is ClockAuction {\r\n\r\n    // @dev Sanity check that allows us to ensure that we are pointing to the\r\n    //  right auction in our setSaleAuctionAddress() call.\r\n    bool public isSaleClockAuction = true;\r\n\r\n    // Tracks last 5 sale price of gen0 kitty sales\r\n    uint256 public gen0SaleCount;\r\n    uint256[5] public lastGen0SalePrices;\r\n\r\n    // Delegate constructor\r\n    constructor(address _nftAddr, uint256 _cut) public\r\n        ClockAuction(_nftAddr, _cut) {}\r\n\r\n    /// @dev Creates and begins a new auction.\r\n    /// @param _tokenId - ID of token to auction, sender must be owner.\r\n    /// @param _startingPrice - Price of item (in wei) at beginning of auction.\r\n    /// @param _endingPrice - Price of item (in wei) at end of auction.\r\n    /// @param _duration - Length of auction (in seconds).\r\n    /// @param _seller - Seller, if not the message sender\r\n    function createAuction(\r\n        uint256 _tokenId,\r\n        uint256 _startingPrice,\r\n        uint256 _endingPrice,\r\n        uint256 _duration,\r\n        address _seller\r\n    )\r\n        external\r\n    {\r\n        // Sanity check that no inputs overflow how many bits we've allocated\r\n        // to store them in the auction struct.\r\n        require(_startingPrice == uint256(uint128(_startingPrice)));\r\n        require(_endingPrice == uint256(uint128(_endingPrice)));\r\n        require(_duration == uint256(uint64(_duration)));\r\n\r\n        require(msg.sender == address(nonFungibleContract));\r\n        _escrow(_seller, _tokenId);\r\n        Auction memory auction = Auction(\r\n            _seller,\r\n            uint128(_startingPrice),\r\n            uint128(_endingPrice),\r\n            uint64(_duration),\r\n            uint64(now)\r\n        );\r\n        _addAuction(_tokenId, auction);\r\n    }\r\n\r\n    /// @dev Updates lastSalePrice if seller is the nft contract\r\n    /// Otherwise, works the same as default bid method.\r\n    function bid(uint256 _tokenId)\r\n        external\r\n        payable\r\n    {\r\n        // _bid verifies token ID size\r\n        address seller = tokenIdToAuction[_tokenId].seller;\r\n        uint256 price = _bid(_tokenId, msg.value);\r\n        _transfer(msg.sender, _tokenId);\r\n\r\n        // If not a gen0 auction, exit\r\n        if (seller == address(nonFungibleContract)) {\r\n            // Track gen0 sale prices\r\n            lastGen0SalePrices[gen0SaleCount % 5] = price;\r\n            gen0SaleCount++;\r\n        }\r\n    }\r\n\r\n    function averageGen0SalePrice() external view returns (uint256) {\r\n        uint256 sum = 0;\r\n        for (uint256 i = 0; i < 5; i++) {\r\n            sum += lastGen0SalePrices[i];\r\n        }\r\n        return sum / 5;\r\n    }\r\n\r\n}\r\n",
  "sourcePath": "C:\\Users\\CTrov\\OneDrive\\Documents\\ESILV\\BLOCKCHAIN PROGRAMMING\\Blockchain_Programming_TD6\\contracts\\SaleClockAuction.sol",
  "compiler": {
    "name": "solc",
    "version": "0.4.25+commit.59dbf8f1.Emscripten.clang"
  },
  "schemaVersion": "2.0.2",
  "updatedAt": "2019-03-17T20:04:31.847Z"
}